{
  "contractName": "CustomPaymaster",
  "abi": [
    {
      "anonymous": false,
      "inputs": [
        {
          "indexed": true,
          "internalType": "address",
          "name": "previousOwner",
          "type": "address"
        },
        {
          "indexed": true,
          "internalType": "address",
          "name": "newOwner",
          "type": "address"
        }
      ],
      "name": "OwnershipTransferred",
      "type": "event"
    },
    {
      "inputs": [],
      "name": "CALLDATA_SIZE_LIMIT",
      "outputs": [
        {
          "internalType": "uint256",
          "name": "",
          "type": "uint256"
        }
      ],
      "stateMutability": "view",
      "type": "function"
    },
    {
      "inputs": [],
      "name": "FORWARDER_HUB_OVERHEAD",
      "outputs": [
        {
          "internalType": "uint256",
          "name": "",
          "type": "uint256"
        }
      ],
      "stateMutability": "view",
      "type": "function"
    },
    {
      "inputs": [],
      "name": "PAYMASTER_ACCEPTANCE_BUDGET",
      "outputs": [
        {
          "internalType": "uint256",
          "name": "",
          "type": "uint256"
        }
      ],
      "stateMutability": "view",
      "type": "function"
    },
    {
      "inputs": [],
      "name": "POST_RELAYED_CALL_GAS_LIMIT",
      "outputs": [
        {
          "internalType": "uint256",
          "name": "",
          "type": "uint256"
        }
      ],
      "stateMutability": "view",
      "type": "function"
    },
    {
      "inputs": [],
      "name": "PRE_RELAYED_CALL_GAS_LIMIT",
      "outputs": [
        {
          "internalType": "uint256",
          "name": "",
          "type": "uint256"
        }
      ],
      "stateMutability": "view",
      "type": "function"
    },
    {
      "inputs": [
        {
          "components": [
            {
              "components": [
                {
                  "internalType": "address",
                  "name": "from",
                  "type": "address"
                },
                {
                  "internalType": "address",
                  "name": "to",
                  "type": "address"
                },
                {
                  "internalType": "uint256",
                  "name": "value",
                  "type": "uint256"
                },
                {
                  "internalType": "uint256",
                  "name": "gas",
                  "type": "uint256"
                },
                {
                  "internalType": "uint256",
                  "name": "nonce",
                  "type": "uint256"
                },
                {
                  "internalType": "bytes",
                  "name": "data",
                  "type": "bytes"
                },
                {
                  "internalType": "uint256",
                  "name": "validUntil",
                  "type": "uint256"
                }
              ],
              "internalType": "struct IForwarder.ForwardRequest",
              "name": "request",
              "type": "tuple"
            },
            {
              "components": [
                {
                  "internalType": "uint256",
                  "name": "gasPrice",
                  "type": "uint256"
                },
                {
                  "internalType": "uint256",
                  "name": "pctRelayFee",
                  "type": "uint256"
                },
                {
                  "internalType": "uint256",
                  "name": "baseRelayFee",
                  "type": "uint256"
                },
                {
                  "internalType": "address",
                  "name": "relayWorker",
                  "type": "address"
                },
                {
                  "internalType": "address",
                  "name": "paymaster",
                  "type": "address"
                },
                {
                  "internalType": "address",
                  "name": "forwarder",
                  "type": "address"
                },
                {
                  "internalType": "bytes",
                  "name": "paymasterData",
                  "type": "bytes"
                },
                {
                  "internalType": "uint256",
                  "name": "clientId",
                  "type": "uint256"
                }
              ],
              "internalType": "struct GsnTypes.RelayData",
              "name": "relayData",
              "type": "tuple"
            }
          ],
          "internalType": "struct GsnTypes.RelayRequest",
          "name": "relayRequest",
          "type": "tuple"
        }
      ],
      "name": "_verifyForwarder",
      "outputs": [],
      "stateMutability": "view",
      "type": "function"
    },
    {
      "inputs": [],
      "name": "getGasAndDataLimits",
      "outputs": [
        {
          "components": [
            {
              "internalType": "uint256",
              "name": "acceptanceBudget",
              "type": "uint256"
            },
            {
              "internalType": "uint256",
              "name": "preRelayedCallGasLimit",
              "type": "uint256"
            },
            {
              "internalType": "uint256",
              "name": "postRelayedCallGasLimit",
              "type": "uint256"
            },
            {
              "internalType": "uint256",
              "name": "calldataSizeLimit",
              "type": "uint256"
            }
          ],
          "internalType": "struct IPaymaster.GasAndDataLimits",
          "name": "limits",
          "type": "tuple"
        }
      ],
      "stateMutability": "view",
      "type": "function"
    },
    {
      "inputs": [],
      "name": "getHubAddr",
      "outputs": [
        {
          "internalType": "address",
          "name": "",
          "type": "address"
        }
      ],
      "stateMutability": "view",
      "type": "function"
    },
    {
      "inputs": [],
      "name": "getRelayHubDeposit",
      "outputs": [
        {
          "internalType": "uint256",
          "name": "",
          "type": "uint256"
        }
      ],
      "stateMutability": "view",
      "type": "function"
    },
    {
      "inputs": [],
      "name": "owner",
      "outputs": [
        {
          "internalType": "address",
          "name": "",
          "type": "address"
        }
      ],
      "stateMutability": "view",
      "type": "function"
    },
    {
      "inputs": [
        {
          "internalType": "bytes",
          "name": "context",
          "type": "bytes"
        },
        {
          "internalType": "bool",
          "name": "success",
          "type": "bool"
        },
        {
          "internalType": "uint256",
          "name": "gasUseWithoutPost",
          "type": "uint256"
        },
        {
          "components": [
            {
              "internalType": "uint256",
              "name": "gasPrice",
              "type": "uint256"
            },
            {
              "internalType": "uint256",
              "name": "pctRelayFee",
              "type": "uint256"
            },
            {
              "internalType": "uint256",
              "name": "baseRelayFee",
              "type": "uint256"
            },
            {
              "internalType": "address",
              "name": "relayWorker",
              "type": "address"
            },
            {
              "internalType": "address",
              "name": "paymaster",
              "type": "address"
            },
            {
              "internalType": "address",
              "name": "forwarder",
              "type": "address"
            },
            {
              "internalType": "bytes",
              "name": "paymasterData",
              "type": "bytes"
            },
            {
              "internalType": "uint256",
              "name": "clientId",
              "type": "uint256"
            }
          ],
          "internalType": "struct GsnTypes.RelayData",
          "name": "relayData",
          "type": "tuple"
        }
      ],
      "name": "postRelayedCall",
      "outputs": [],
      "stateMutability": "nonpayable",
      "type": "function"
    },
    {
      "inputs": [],
      "name": "renounceOwnership",
      "outputs": [],
      "stateMutability": "nonpayable",
      "type": "function"
    },
    {
      "inputs": [
        {
          "internalType": "address",
          "name": "",
          "type": "address"
        }
      ],
      "name": "senderWhitelist",
      "outputs": [
        {
          "internalType": "bool",
          "name": "",
          "type": "bool"
        }
      ],
      "stateMutability": "view",
      "type": "function"
    },
    {
      "inputs": [
        {
          "internalType": "contract IRelayHub",
          "name": "hub",
          "type": "address"
        }
      ],
      "name": "setRelayHub",
      "outputs": [],
      "stateMutability": "nonpayable",
      "type": "function"
    },
    {
      "inputs": [
        {
          "internalType": "contract IForwarder",
          "name": "forwarder",
          "type": "address"
        }
      ],
      "name": "setTrustedForwarder",
      "outputs": [],
      "stateMutability": "nonpayable",
      "type": "function"
    },
    {
      "inputs": [
        {
          "internalType": "address",
          "name": "",
          "type": "address"
        }
      ],
      "name": "targetWhitelist",
      "outputs": [
        {
          "internalType": "bool",
          "name": "",
          "type": "bool"
        }
      ],
      "stateMutability": "view",
      "type": "function"
    },
    {
      "inputs": [
        {
          "internalType": "address",
          "name": "newOwner",
          "type": "address"
        }
      ],
      "name": "transferOwnership",
      "outputs": [],
      "stateMutability": "nonpayable",
      "type": "function"
    },
    {
      "inputs": [],
      "name": "trustedForwarder",
      "outputs": [
        {
          "internalType": "contract IForwarder",
          "name": "",
          "type": "address"
        }
      ],
      "stateMutability": "view",
      "type": "function"
    },
    {
      "inputs": [],
      "name": "useSenderWhitelist",
      "outputs": [
        {
          "internalType": "bool",
          "name": "",
          "type": "bool"
        }
      ],
      "stateMutability": "view",
      "type": "function"
    },
    {
      "inputs": [],
      "name": "useTargetWhitelist",
      "outputs": [
        {
          "internalType": "bool",
          "name": "",
          "type": "bool"
        }
      ],
      "stateMutability": "view",
      "type": "function"
    },
    {
      "inputs": [],
      "name": "versionPaymaster",
      "outputs": [
        {
          "internalType": "string",
          "name": "",
          "type": "string"
        }
      ],
      "stateMutability": "view",
      "type": "function"
    },
    {
      "inputs": [
        {
          "internalType": "uint256",
          "name": "amount",
          "type": "uint256"
        },
        {
          "internalType": "address payable",
          "name": "target",
          "type": "address"
        }
      ],
      "name": "withdrawRelayHubDepositTo",
      "outputs": [],
      "stateMutability": "nonpayable",
      "type": "function"
    },
    {
      "stateMutability": "payable",
      "type": "receive"
    },
    {
      "inputs": [
        {
          "internalType": "contract TokenBank",
          "name": "_tokenBank",
          "type": "address"
        }
      ],
      "name": "setTokenBank",
      "outputs": [],
      "stateMutability": "nonpayable",
      "type": "function"
    },
    {
      "inputs": [
        {
          "internalType": "address",
          "name": "sender",
          "type": "address"
        }
      ],
      "name": "whitelistSender",
      "outputs": [],
      "stateMutability": "nonpayable",
      "type": "function"
    },
    {
      "inputs": [
        {
          "internalType": "address",
          "name": "target",
          "type": "address"
        }
      ],
      "name": "whitelistTarget",
      "outputs": [],
      "stateMutability": "nonpayable",
      "type": "function"
    },
    {
      "inputs": [
        {
          "components": [
            {
              "components": [
                {
                  "internalType": "address",
                  "name": "from",
                  "type": "address"
                },
                {
                  "internalType": "address",
                  "name": "to",
                  "type": "address"
                },
                {
                  "internalType": "uint256",
                  "name": "value",
                  "type": "uint256"
                },
                {
                  "internalType": "uint256",
                  "name": "gas",
                  "type": "uint256"
                },
                {
                  "internalType": "uint256",
                  "name": "nonce",
                  "type": "uint256"
                },
                {
                  "internalType": "bytes",
                  "name": "data",
                  "type": "bytes"
                },
                {
                  "internalType": "uint256",
                  "name": "validUntil",
                  "type": "uint256"
                }
              ],
              "internalType": "struct IForwarder.ForwardRequest",
              "name": "request",
              "type": "tuple"
            },
            {
              "components": [
                {
                  "internalType": "uint256",
                  "name": "gasPrice",
                  "type": "uint256"
                },
                {
                  "internalType": "uint256",
                  "name": "pctRelayFee",
                  "type": "uint256"
                },
                {
                  "internalType": "uint256",
                  "name": "baseRelayFee",
                  "type": "uint256"
                },
                {
                  "internalType": "address",
                  "name": "relayWorker",
                  "type": "address"
                },
                {
                  "internalType": "address",
                  "name": "paymaster",
                  "type": "address"
                },
                {
                  "internalType": "address",
                  "name": "forwarder",
                  "type": "address"
                },
                {
                  "internalType": "bytes",
                  "name": "paymasterData",
                  "type": "bytes"
                },
                {
                  "internalType": "uint256",
                  "name": "clientId",
                  "type": "uint256"
                }
              ],
              "internalType": "struct GsnTypes.RelayData",
              "name": "relayData",
              "type": "tuple"
            }
          ],
          "internalType": "struct GsnTypes.RelayRequest",
          "name": "relayRequest",
          "type": "tuple"
        },
        {
          "internalType": "bytes",
          "name": "signature",
          "type": "bytes"
        },
        {
          "internalType": "bytes",
          "name": "approvalData",
          "type": "bytes"
        },
        {
          "internalType": "uint256",
          "name": "maxPossibleGas",
          "type": "uint256"
        }
      ],
      "name": "preRelayedCall",
      "outputs": [
        {
          "internalType": "bytes",
          "name": "context",
          "type": "bytes"
        },
        {
          "internalType": "bool",
          "name": "revertOnRecipientRevert",
          "type": "bool"
        }
      ],
      "stateMutability": "nonpayable",
      "type": "function"
    }
  ],
  "bytecode": "0x608060405234801561001057600080fd5b5060006100216100c460201b60201c565b9050806000806101000a81548173ffffffffffffffffffffffffffffffffffffffff021916908373ffffffffffffffffffffffffffffffffffffffff1602179055508073ffffffffffffffffffffffffffffffffffffffff16600073ffffffffffffffffffffffffffffffffffffffff167f8be0079c531659141344cd1fd0a4f28419497f9722a3daafe3b4186f6b6457e060405160405180910390a3506100cc565b600033905090565b612282806100db6000396000f3fe6080604052600436106101845760003560e01c80638222f07d116100d1578063b90b41cf1161008a578063dd1bcaa111610064578063dd1bcaa114610675578063df463a66146106a0578063f2fde38b146106cb578063f9c002f7146106f4576102ab565b8063b90b41cf146105f6578063bbdaa3c914610621578063da7422281461064c576102ab565b80638222f07d146104d2578063858437b01461050f5780638da5cb5b1461054c578063921276ea14610577578063a5dcd07b146105a2578063b039a88f146105cb576102ab565b80634f28bfb91161013e57806374e861d61161011857806374e861d61461042a57806376fa01c3146104555780637bb052641461047e5780637da0a877146104a7576102ab565b80634f28bfb9146103bd5780635c5e3db1146103e8578063715018a614610413576102ab565b8062be5dd4146102b05780631cfda9fa146102ee5780632afe31c1146103175780632d14c4b7146103425780632f10a6c61461036b578063489b990e14610394576102ab565b366102ab57600073ffffffffffffffffffffffffffffffffffffffff16600160009054906101000a900473ffffffffffffffffffffffffffffffffffffffff1673ffffffffffffffffffffffffffffffffffffffff16141561021b576040517f08c379a000000000000000000000000000000000000000000000000000000000815260040161021290611ee3565b60405180910390fd5b600160009054906101000a900473ffffffffffffffffffffffffffffffffffffffff1673ffffffffffffffffffffffffffffffffffffffff1663aa67c91934306040518363ffffffff1660e01b81526004016102779190611de0565b6000604051808303818588803b15801561029057600080fd5b505af11580156102a4573d6000803e3d6000fd5b5050505050005b600080fd5b3480156102bc57600080fd5b506102d760048036038101906102d291906119b5565b61071f565b6040516102e5929190611e16565b60405180910390f35b3480156102fa57600080fd5b506103156004803603810190610310919061180f565b6108b6565b005b34801561032357600080fd5b5061032c6109db565b6040516103399190611f5e565b60405180910390f35b34801561034e57600080fd5b5061036960048036038101906103649190611a91565b610a8d565b005b34801561037757600080fd5b50610392600480360381019061038d919061180f565b610bce565b005b3480156103a057600080fd5b506103bb60048036038101906103b6919061194b565b610cf3565b005b3480156103c957600080fd5b506103d2610d37565b6040516103df9190611dfb565b60405180910390f35b3480156103f457600080fd5b506103fd610d4a565b60405161040a9190611f5e565b60405180910390f35b34801561041f57600080fd5b50610428610d50565b005b34801561043657600080fd5b5061043f610ebd565b60405161044c9190611dc5565b60405180910390f35b34801561046157600080fd5b5061047c60048036038101906104779190611861565b610ee7565b005b34801561048a57600080fd5b506104a560048036038101906104a09190611922565b610eee565b005b3480156104b357600080fd5b506104bc610fe1565b6040516104c99190611e46565b60405180910390f35b3480156104de57600080fd5b506104f960048036038101906104f4919061180f565b611007565b6040516105069190611dfb565b60405180910390f35b34801561051b57600080fd5b506105366004803603810190610531919061180f565b611027565b6040516105439190611dfb565b60405180910390f35b34801561055857600080fd5b50610561611047565b60405161056e9190611dc5565b60405180910390f35b34801561058357600080fd5b5061058c611070565b6040516105999190611e61565b60405180910390f35b3480156105ae57600080fd5b506105c960048036038101906105c49190611974565b611090565b005b3480156105d757600080fd5b506105e061114d565b6040516105ed9190611f43565b60405180910390f35b34801561060257600080fd5b5061060b61118a565b6040516106189190611f5e565b60405180910390f35b34801561062d57600080fd5b50610636611190565b6040516106439190611f5e565b60405180910390f35b34801561065857600080fd5b50610673600480360381019061066e91906118f9565b611197565b005b34801561068157600080fd5b5061068a61128a565b6040516106979190611dfb565b60405180910390f35b3480156106ac57600080fd5b506106b561129d565b6040516106c29190611f5e565b60405180910390f35b3480156106d757600080fd5b506106f260048036038101906106ed919061180f565b6112a8565b005b34801561070057600080fd5b5061070961149a565b6040516107169190611f5e565b60405180910390f35b60606000600560009054906101000a900473ffffffffffffffffffffffffffffffffffffffff1673ffffffffffffffffffffffffffffffffffffffff16630c89a0df8980600001906107719190611fa2565b6000016020810190610783919061180f565b6040518263ffffffff1660e01b815260040161079f9190611dc5565b600060405180830381600087803b1580156107b957600080fd5b505af11580156107cd573d6000803e3d6000fd5b50505050600260159054906101000a900460ff161561089457600460008980600001906107fa9190611fa2565b602001602081019061080c919061180f565b73ffffffffffffffffffffffffffffffffffffffff1673ffffffffffffffffffffffffffffffffffffffff16815260200190815260200160002060009054906101000a900460ff16610893576040517f08c379a000000000000000000000000000000000000000000000000000000000815260040161088a90611ec3565b60405180910390fd5b5b6000604051806020016040528060008152509091509150965096945050505050565b6108be6114a1565b73ffffffffffffffffffffffffffffffffffffffff166108dc611047565b73ffffffffffffffffffffffffffffffffffffffff1614610965576040517f08c379a00000000000000000000000000000000000000000000000000000000081526004018080602001828103825260208152602001807f4f776e61626c653a2063616c6c6572206973206e6f7420746865206f776e657281525060200191505060405180910390fd5b6001600460008373ffffffffffffffffffffffffffffffffffffffff1673ffffffffffffffffffffffffffffffffffffffff16815260200190815260200160002060006101000a81548160ff0219169083151502179055506001600260156101000a81548160ff02191690831515021790555050565b6000600160009054906101000a900473ffffffffffffffffffffffffffffffffffffffff1673ffffffffffffffffffffffffffffffffffffffff166370a08231306040518263ffffffff1660e01b8152600401610a389190611de0565b60206040518083038186803b158015610a5057600080fd5b505afa158015610a64573d6000803e3d6000fd5b505050506040513d601f19601f82011682018060405250810190610a889190611a68565b905090565b610a956114a1565b73ffffffffffffffffffffffffffffffffffffffff16610ab3611047565b73ffffffffffffffffffffffffffffffffffffffff1614610b3c576040517f08c379a00000000000000000000000000000000000000000000000000000000081526004018080602001828103825260208152602001807f4f776e61626c653a2063616c6c6572206973206e6f7420746865206f776e657281525060200191505060405180910390fd5b600160009054906101000a900473ffffffffffffffffffffffffffffffffffffffff1673ffffffffffffffffffffffffffffffffffffffff1662f714ce83836040518363ffffffff1660e01b8152600401610b98929190611f79565b600060405180830381600087803b158015610bb257600080fd5b505af1158015610bc6573d6000803e3d6000fd5b505050505050565b610bd66114a1565b73ffffffffffffffffffffffffffffffffffffffff16610bf4611047565b73ffffffffffffffffffffffffffffffffffffffff1614610c7d576040517f08c379a00000000000000000000000000000000000000000000000000000000081526004018080602001828103825260208152602001807f4f776e61626c653a2063616c6c6572206973206e6f7420746865206f776e657281525060200191505060405180910390fd5b6001600360008373ffffffffffffffffffffffffffffffffffffffff1673ffffffffffffffffffffffffffffffffffffffff16815260200190815260200160002060006101000a81548160ff0219169083151502179055506001600260146101000a81548160ff02191690831515021790555050565b80600560006101000a81548173ffffffffffffffffffffffffffffffffffffffff021916908373ffffffffffffffffffffffffffffffffffffffff16021790555050565b600260159054906101000a900460ff1681565b61290481565b610d586114a1565b73ffffffffffffffffffffffffffffffffffffffff16610d76611047565b73ffffffffffffffffffffffffffffffffffffffff1614610dff576040517f08c379a00000000000000000000000000000000000000000000000000000000081526004018080602001828103825260208152602001807f4f776e61626c653a2063616c6c6572206973206e6f7420746865206f776e657281525060200191505060405180910390fd5b600073ffffffffffffffffffffffffffffffffffffffff1660008054906101000a900473ffffffffffffffffffffffffffffffffffffffff1673ffffffffffffffffffffffffffffffffffffffff167f8be0079c531659141344cd1fd0a4f28419497f9722a3daafe3b4186f6b6457e060405160405180910390a360008060006101000a81548173ffffffffffffffffffffffffffffffffffffffff021916908373ffffffffffffffffffffffffffffffffffffffff160217905550565b6000600160009054906101000a900473ffffffffffffffffffffffffffffffffffffffff16905090565b5050505050565b610ef66114a1565b73ffffffffffffffffffffffffffffffffffffffff16610f14611047565b73ffffffffffffffffffffffffffffffffffffffff1614610f9d576040517f08c379a00000000000000000000000000000000000000000000000000000000081526004018080602001828103825260208152602001807f4f776e61626c653a2063616c6c6572206973206e6f7420746865206f776e657281525060200191505060405180910390fd5b80600160006101000a81548173ffffffffffffffffffffffffffffffffffffffff021916908373ffffffffffffffffffffffffffffffffffffffff16021790555050565b600260009054906101000a900473ffffffffffffffffffffffffffffffffffffffff1681565b60036020528060005260406000206000915054906101000a900460ff1681565b60046020528060005260406000206000915054906101000a900460ff1681565b60008060009054906101000a900473ffffffffffffffffffffffffffffffffffffffff16905090565b60606040518060600160405280602981526020016121fe60299139905090565b8080602001906110a09190611fc6565b60a00160208101906110b2919061180f565b73ffffffffffffffffffffffffffffffffffffffff16600260009054906101000a900473ffffffffffffffffffffffffffffffffffffffff1673ffffffffffffffffffffffffffffffffffffffff1614611141576040517f08c379a000000000000000000000000000000000000000000000000000000000815260040161113890611f03565b60405180910390fd5b61114a816114a9565b50565b6111556116a9565b604051806080016040528061c350620186a0018152602001620186a081526020016201adb08152602001612904815250905090565b61c35081565b6201adb081565b61119f6114a1565b73ffffffffffffffffffffffffffffffffffffffff166111bd611047565b73ffffffffffffffffffffffffffffffffffffffff1614611246576040517f08c379a00000000000000000000000000000000000000000000000000000000081526004018080602001828103825260208152602001807f4f776e61626c653a2063616c6c6572206973206e6f7420746865206f776e657281525060200191505060405180910390fd5b80600260006101000a81548173ffffffffffffffffffffffffffffffffffffffff021916908373ffffffffffffffffffffffffffffffffffffffff16021790555050565b600260149054906101000a900460ff1681565b61c350620186a00181565b6112b06114a1565b73ffffffffffffffffffffffffffffffffffffffff166112ce611047565b73ffffffffffffffffffffffffffffffffffffffff1614611357576040517f08c379a00000000000000000000000000000000000000000000000000000000081526004018080602001828103825260208152602001807f4f776e61626c653a2063616c6c6572206973206e6f7420746865206f776e657281525060200191505060405180910390fd5b600073ffffffffffffffffffffffffffffffffffffffff168173ffffffffffffffffffffffffffffffffffffffff1614156113dd576040517f08c379a00000000000000000000000000000000000000000000000000000000081526004018080602001828103825260268152602001806122276026913960400191505060405180910390fd5b8073ffffffffffffffffffffffffffffffffffffffff1660008054906101000a900473ffffffffffffffffffffffffffffffffffffffff1673ffffffffffffffffffffffffffffffffffffffff167f8be0079c531659141344cd1fd0a4f28419497f9722a3daafe3b4186f6b6457e060405160405180910390a3806000806101000a81548173ffffffffffffffffffffffffffffffffffffffff021916908373ffffffffffffffffffffffffffffffffffffffff16021790555050565b620186a081565b600033905090565b6000808280600001906114bc9190611fa2565b60200160208101906114ce919061180f565b73ffffffffffffffffffffffffffffffffffffffff1663572b6c0560e01b8480602001906114fc9190611fc6565b60a001602081019061150e919061180f565b60405160240161151e9190611dc5565b604051602081830303815290604052907bffffffffffffffffffffffffffffffffffffffffffffffffffffffff19166020820180517bffffffffffffffffffffffffffffffffffffffffffffffffffffffff83818316178352505050506040516115889190611dae565b600060405180830381855afa9150503d80600081146115c3576040519150601f19603f3d011682016040523d82523d6000602084013e6115c8565b606091505b50915091508161160d576040517f08c379a000000000000000000000000000000000000000000000000000000000815260040161160490611ea3565b60405180910390fd5b6020815114611651576040517f08c379a000000000000000000000000000000000000000000000000000000000815260040161164890611f23565b60405180910390fd5b808060200190518101906116659190611838565b6116a4576040517f08c379a000000000000000000000000000000000000000000000000000000000815260040161169b90611e83565b60405180910390fd5b505050565b6040518060800160405280600081526020016000815260200160008152602001600081525090565b6000813590506116e08161215c565b92915050565b6000813590506116f581612173565b92915050565b60008135905061170a8161218a565b92915050565b60008151905061171f8161218a565b92915050565b60008083601f84011261173757600080fd5b8235905067ffffffffffffffff81111561175057600080fd5b60208301915083600182028301111561176857600080fd5b9250929050565b60008135905061177e816121a1565b92915050565b600081359050611793816121b8565b92915050565b6000813590506117a8816121cf565b92915050565b600061010082840312156117c157600080fd5b81905092915050565b6000604082840312156117dc57600080fd5b81905092915050565b6000813590506117f4816121e6565b92915050565b600081519050611809816121e6565b92915050565b60006020828403121561182157600080fd5b600061182f848285016116d1565b91505092915050565b60006020828403121561184a57600080fd5b600061185884828501611710565b91505092915050565b60008060008060006080868803121561187957600080fd5b600086013567ffffffffffffffff81111561189357600080fd5b61189f88828901611725565b955095505060206118b2888289016116fb565b93505060406118c3888289016117e5565b925050606086013567ffffffffffffffff8111156118e057600080fd5b6118ec888289016117ae565b9150509295509295909350565b60006020828403121561190b57600080fd5b60006119198482850161176f565b91505092915050565b60006020828403121561193457600080fd5b600061194284828501611784565b91505092915050565b60006020828403121561195d57600080fd5b600061196b84828501611799565b91505092915050565b60006020828403121561198657600080fd5b600082013567ffffffffffffffff8111156119a057600080fd5b6119ac848285016117ca565b91505092915050565b600080600080600080608087890312156119ce57600080fd5b600087013567ffffffffffffffff8111156119e857600080fd5b6119f489828a016117ca565b965050602087013567ffffffffffffffff811115611a1157600080fd5b611a1d89828a01611725565b9550955050604087013567ffffffffffffffff811115611a3c57600080fd5b611a4889828a01611725565b93509350506060611a5b89828a016117e5565b9150509295509295509295565b600060208284031215611a7a57600080fd5b6000611a88848285016117fa565b91505092915050565b60008060408385031215611aa457600080fd5b6000611ab2858286016117e5565b9250506020611ac3858286016116e6565b9150509250929050565b611ad6816120be565b82525050565b611ae581612040565b82525050565b611af48161202e565b82525050565b611b0381612052565b82525050565b6000611b1482611feb565b611b1e8185612001565b9350611b2e818560208601612118565b611b378161214b565b840191505092915050565b6000611b4d82611feb565b611b578185612012565b9350611b67818560208601612118565b80840191505092915050565b611b7c816120d0565b82525050565b6000611b8d82611ff6565b611b97818561201d565b9350611ba7818560208601612118565b611bb08161214b565b840191505092915050565b6000611bc8601f8361201d565b91507f696e76616c696420666f7277617264657220666f7220726563697069656e74006000830152602082019050919050565b6000611c08601c8361201d565b91507f697354727573746564466f727761726465723a207265766572746564000000006000830152602082019050919050565b6000611c48601c8361201d565b91507f4641494c205441524745542057484954454c49535420435553544f4d000000006000830152602082019050919050565b6000611c8860198361201d565b91507f72656c6179206875622061646472657373206e6f7420736574000000000000006000830152602082019050919050565b6000611cc860188361201d565b91507f466f72776172646572206973206e6f74207472757374656400000000000000006000830152602082019050919050565b6000611d0860208361201d565b91507f697354727573746564466f727761726465723a2062616420726573706f6e73656000830152602082019050919050565b608082016000820151611d516000850182611d90565b506020820151611d646020850182611d90565b506040820151611d776040850182611d90565b506060820151611d8a6060850182611d90565b50505050565b611d99816120b4565b82525050565b611da8816120b4565b82525050565b6000611dba8284611b42565b915081905092915050565b6000602082019050611dda6000830184611aeb565b92915050565b6000602082019050611df56000830184611acd565b92915050565b6000602082019050611e106000830184611afa565b92915050565b60006040820190508181036000830152611e308185611b09565b9050611e3f6020830184611afa565b9392505050565b6000602082019050611e5b6000830184611b73565b92915050565b60006020820190508181036000830152611e7b8184611b82565b905092915050565b60006020820190508181036000830152611e9c81611bbb565b9050919050565b60006020820190508181036000830152611ebc81611bfb565b9050919050565b60006020820190508181036000830152611edc81611c3b565b9050919050565b60006020820190508181036000830152611efc81611c7b565b9050919050565b60006020820190508181036000830152611f1c81611cbb565b9050919050565b60006020820190508181036000830152611f3c81611cfb565b9050919050565b6000608082019050611f586000830184611d3b565b92915050565b6000602082019050611f736000830184611d9f565b92915050565b6000604082019050611f8e6000830185611d9f565b611f9b6020830184611adc565b9392505050565b60008235600160e003833603038112611fba57600080fd5b80830191505092915050565b60008235600161010003833603038112611fdf57600080fd5b80830191505092915050565b600081519050919050565b600081519050919050565b600082825260208201905092915050565b600081905092915050565b600082825260208201905092915050565b600061203982612094565b9050919050565b600061204b82612094565b9050919050565b60008115159050919050565b60006120698261202e565b9050919050565b600061207b8261202e565b9050919050565b600061208d8261202e565b9050919050565b600073ffffffffffffffffffffffffffffffffffffffff82169050919050565b6000819050919050565b60006120c9826120f4565b9050919050565b60006120db826120e2565b9050919050565b60006120ed82612094565b9050919050565b60006120ff82612106565b9050919050565b600061211182612094565b9050919050565b60005b8381101561213657808201518184015260208101905061211b565b83811115612145576000848401525b50505050565b6000601f19601f8301169050919050565b6121658161202e565b811461217057600080fd5b50565b61217c81612040565b811461218757600080fd5b50565b61219381612052565b811461219e57600080fd5b50565b6121aa8161205e565b81146121b557600080fd5b50565b6121c181612070565b81146121cc57600080fd5b50565b6121d881612082565b81146121e357600080fd5b50565b6121ef816120b4565b81146121fa57600080fd5b5056fe322e322e302b6f70656e67736e2e61636365707465766572797468696e672e697061796d61737465724f776e61626c653a206e6577206f776e657220697320746865207a65726f2061646472657373a26469706673582212207eae0936b3c542d62b82fcf829603862ba411c6719c630e4a81fa6373806c54b64736f6c63430007060033",
  "immutableReferences": {},
  "source": "/**\n * SPDX-License-Identifier:MIT\n */\npragma solidity ^0.7.6;\npragma experimental ABIEncoderV2;\n\nimport \"@opengsn/paymasters/contracts/AcceptEverythingPaymaster.sol\";\nimport \"./TokenBank.sol\";\n\ncontract CustomPaymaster is AcceptEverythingPaymaster {\n\n    \n\n    bool public useSenderWhitelist;\n    bool public useTargetWhitelist;\n    mapping (address=>bool) public senderWhitelist;\n    mapping (address=>bool) public targetWhitelist;\n\n    TokenBank private tokenBank;\n    // function setToken(Token _token,address holder) public {\n    //     token = _token;\n    //     token.mint(holder, 10);\n    //     tokenBalance[holder] = 10;\n    // }\n\n    function setTokenBank(TokenBank _tokenBank) public {\n        tokenBank = _tokenBank;\n    }\n\n    // function getBalance(address _address) public view returns(uint) {\n    //     return tokenBalance[_address];\n    // }\n\n    function whitelistSender(address sender) public onlyOwner {\n        senderWhitelist[sender]=true;\n        useSenderWhitelist = true;\n    }\n    function whitelistTarget(address target) public onlyOwner {\n        targetWhitelist[target]=true;\n        useTargetWhitelist = true;\n    }\n\n    function preRelayedCall(\n        GsnTypes.RelayRequest calldata relayRequest,\n        bytes calldata signature,\n        bytes calldata approvalData,\n        uint256 maxPossibleGas\n    )\n    external\n    override\n    virtual\n    returns (bytes memory context, bool revertOnRecipientRevert) {\n        (relayRequest, signature, approvalData, maxPossibleGas);\n\n        \n        tokenBank.transferTokens(relayRequest.request.from);\n        // require(tokenBalance[relayRequest.request.from] > 1,\"INSUFFICIENT TOKEN BALANCE\");\n        // tokenBalance[relayRequest.request.from]-=1;\n            //require( senderWhitelist[relayRequest.request.from], \"FAIL WHITELIST CUSTOM\");\n        \n\n\n        if (useTargetWhitelist) {\n            require( targetWhitelist[relayRequest.request.to], \"FAIL TARGET WHITELIST CUSTOM\");\n        }\n        return (\"\", false);\n    }\n\n\n\n}\n",
  "sourcePath": "C:\\Users\\nomif\\Desktop\\Programming\\Blockchain\\local_copy\\ethereum-gasless-transactions-CustomPaymaster\\OpenGSN\\contracts\\CustomPaymaster.sol",
  "compiler": {
    "name": "solc",
    "version": "0.7.6+commit.7338295f.Emscripten.clang"
  },
  "schemaVersion": "3.4.3",
  "updatedAt": "2021-10-25T17:52:28.137Z",
  "devdoc": {
    "kind": "dev",
    "methods": {
      "owner()": {
        "details": "Returns the address of the current owner."
      },
      "postRelayedCall(bytes,bool,uint256,(uint256,uint256,uint256,address,address,address,bytes,uint256))": {
        "params": {
          "context": "- the call context, as returned by the preRelayedCall",
          "gasUseWithoutPost": "- the actual amount of gas used by the entire transaction, EXCEPT        the gas used by the postRelayedCall itself.",
          "relayData": "- the relay params of the request. can be used by relayHub.calculateCharge() Revert in this functions causes a revert of the client's relayed call (and preRelayedCall(), but the Paymaster is still committed to pay the relay for the entire transaction.",
          "success": "- true if the relayed call succeeded, false if it reverted"
        }
      },
      "preRelayedCall(((address,address,uint256,uint256,uint256,bytes,uint256),(uint256,uint256,uint256,address,address,address,bytes,uint256)),bytes,bytes,uint256)": {
        "params": {
          "approvalData": "- extra dapp-specific data (e.g. signature from trusted party)",
          "maxPossibleGas": "- based on values returned from {@link getGasAndDataLimits},         the RelayHub will calculate the maximum possible amount of gas the user may be charged for.         In order to convert this value to wei, the Paymaster has to call \"relayHub.calculateCharge()\"  return:      a context to be passed to postRelayedCall      rejectOnRecipientRevert - TRUE if paymaster want to reject the TX if the recipient reverts.          FALSE means that rejects by the recipient will be completed on chain, and paid by the paymaster.          (note that in the latter case, the preRelayedCall and postRelayedCall are not reverted).",
          "relayRequest": "- the full relay request structure",
          "signature": "- user's EIP712-compatible signature of the {@link relayRequest}.              Note that in most cases the paymaster shouldn't try use it at all. It is always checked              by the forwarder immediately after preRelayedCall returns."
        }
      },
      "renounceOwnership()": {
        "details": "Leaves the contract without owner. It will not be possible to call `onlyOwner` functions anymore. Can only be called by the current owner. NOTE: Renouncing ownership will leave the contract without an owner, thereby removing any functionality that is only available to the owner."
      },
      "transferOwnership(address)": {
        "details": "Transfers ownership of the contract to a new account (`newOwner`). Can only be called by the current owner."
      }
    },
    "version": 1
  },
  "userdoc": {
    "kind": "user",
    "methods": {
      "getGasAndDataLimits()": {
        "notice": "Return the Gas Limits and msg.data max size constants used by the Paymaster."
      },
      "getHubAddr()": {
        "notice": "return the relayHub of this contract."
      },
      "getRelayHubDeposit()": {
        "notice": "check current deposit on relay hub."
      },
      "postRelayedCall(bytes,bool,uint256,(uint256,uint256,uint256,address,address,address,bytes,uint256))": {
        "notice": "This method is called after the actual relayed function call. It may be used to record the transaction (e.g. charge the caller by some contract logic) for this call. MUST be protected with relayHubOnly() in case it modifies state."
      },
      "preRelayedCall(((address,address,uint256,uint256,uint256,bytes,uint256),(uint256,uint256,uint256,address,address,address,bytes,uint256)),bytes,bytes,uint256)": {
        "notice": "Called by Relay (and RelayHub), to validate if the paymaster agrees to pay for this call. MUST be protected with relayHubOnly() in case it modifies state. The Paymaster rejects by the following \"revert\" operations  - preRelayedCall() method reverts  - the forwarder reverts because of nonce or signature error  - the paymaster returned \"rejectOnRecipientRevert\", and the recipient contract reverted. In any of the above cases, all paymaster calls (and recipient call) are reverted. In any other case, the paymaster agrees to pay for the gas cost of the transaction (note  that this includes also postRelayedCall revert) The rejectOnRecipientRevert flag means the Paymaster \"delegate\" the rejection to the recipient  code.  It also means the Paymaster trust the recipient to reject fast: both preRelayedCall,  forwarder check and receipient checks must fit into the GasLimits.acceptanceBudget,  otherwise the TX is paid by the Paymaster."
      },
      "withdrawRelayHubDepositTo(uint256,address)": {
        "notice": "withdraw deposit from relayHub"
      }
    },
    "version": 1
  }
}