{
  "contractName": "CustomPaymaster",
  "abi": [
    {
      "anonymous": false,
      "inputs": [
        {
          "indexed": true,
          "internalType": "address",
          "name": "previousOwner",
          "type": "address"
        },
        {
          "indexed": true,
          "internalType": "address",
          "name": "newOwner",
          "type": "address"
        }
      ],
      "name": "OwnershipTransferred",
      "type": "event"
    },
    {
      "inputs": [],
      "name": "CALLDATA_SIZE_LIMIT",
      "outputs": [
        {
          "internalType": "uint256",
          "name": "",
          "type": "uint256"
        }
      ],
      "stateMutability": "view",
      "type": "function",
      "constant": true
    },
    {
      "inputs": [],
      "name": "FORWARDER_HUB_OVERHEAD",
      "outputs": [
        {
          "internalType": "uint256",
          "name": "",
          "type": "uint256"
        }
      ],
      "stateMutability": "view",
      "type": "function",
      "constant": true
    },
    {
      "inputs": [],
      "name": "PAYMASTER_ACCEPTANCE_BUDGET",
      "outputs": [
        {
          "internalType": "uint256",
          "name": "",
          "type": "uint256"
        }
      ],
      "stateMutability": "view",
      "type": "function",
      "constant": true
    },
    {
      "inputs": [],
      "name": "POST_RELAYED_CALL_GAS_LIMIT",
      "outputs": [
        {
          "internalType": "uint256",
          "name": "",
          "type": "uint256"
        }
      ],
      "stateMutability": "view",
      "type": "function",
      "constant": true
    },
    {
      "inputs": [],
      "name": "PRE_RELAYED_CALL_GAS_LIMIT",
      "outputs": [
        {
          "internalType": "uint256",
          "name": "",
          "type": "uint256"
        }
      ],
      "stateMutability": "view",
      "type": "function",
      "constant": true
    },
    {
      "inputs": [
        {
          "components": [
            {
              "components": [
                {
                  "internalType": "address",
                  "name": "from",
                  "type": "address"
                },
                {
                  "internalType": "address",
                  "name": "to",
                  "type": "address"
                },
                {
                  "internalType": "uint256",
                  "name": "value",
                  "type": "uint256"
                },
                {
                  "internalType": "uint256",
                  "name": "gas",
                  "type": "uint256"
                },
                {
                  "internalType": "uint256",
                  "name": "nonce",
                  "type": "uint256"
                },
                {
                  "internalType": "bytes",
                  "name": "data",
                  "type": "bytes"
                },
                {
                  "internalType": "uint256",
                  "name": "validUntil",
                  "type": "uint256"
                }
              ],
              "internalType": "struct IForwarder.ForwardRequest",
              "name": "request",
              "type": "tuple"
            },
            {
              "components": [
                {
                  "internalType": "uint256",
                  "name": "gasPrice",
                  "type": "uint256"
                },
                {
                  "internalType": "uint256",
                  "name": "pctRelayFee",
                  "type": "uint256"
                },
                {
                  "internalType": "uint256",
                  "name": "baseRelayFee",
                  "type": "uint256"
                },
                {
                  "internalType": "address",
                  "name": "relayWorker",
                  "type": "address"
                },
                {
                  "internalType": "address",
                  "name": "paymaster",
                  "type": "address"
                },
                {
                  "internalType": "address",
                  "name": "forwarder",
                  "type": "address"
                },
                {
                  "internalType": "bytes",
                  "name": "paymasterData",
                  "type": "bytes"
                },
                {
                  "internalType": "uint256",
                  "name": "clientId",
                  "type": "uint256"
                }
              ],
              "internalType": "struct GsnTypes.RelayData",
              "name": "relayData",
              "type": "tuple"
            }
          ],
          "internalType": "struct GsnTypes.RelayRequest",
          "name": "relayRequest",
          "type": "tuple"
        }
      ],
      "name": "_verifyForwarder",
      "outputs": [],
      "stateMutability": "view",
      "type": "function",
      "constant": true
    },
    {
      "inputs": [],
      "name": "getGasAndDataLimits",
      "outputs": [
        {
          "components": [
            {
              "internalType": "uint256",
              "name": "acceptanceBudget",
              "type": "uint256"
            },
            {
              "internalType": "uint256",
              "name": "preRelayedCallGasLimit",
              "type": "uint256"
            },
            {
              "internalType": "uint256",
              "name": "postRelayedCallGasLimit",
              "type": "uint256"
            },
            {
              "internalType": "uint256",
              "name": "calldataSizeLimit",
              "type": "uint256"
            }
          ],
          "internalType": "struct IPaymaster.GasAndDataLimits",
          "name": "limits",
          "type": "tuple"
        }
      ],
      "stateMutability": "view",
      "type": "function",
      "constant": true
    },
    {
      "inputs": [],
      "name": "getHubAddr",
      "outputs": [
        {
          "internalType": "address",
          "name": "",
          "type": "address"
        }
      ],
      "stateMutability": "view",
      "type": "function",
      "constant": true
    },
    {
      "inputs": [],
      "name": "getRelayHubDeposit",
      "outputs": [
        {
          "internalType": "uint256",
          "name": "",
          "type": "uint256"
        }
      ],
      "stateMutability": "view",
      "type": "function",
      "constant": true
    },
    {
      "inputs": [],
      "name": "owner",
      "outputs": [
        {
          "internalType": "address",
          "name": "",
          "type": "address"
        }
      ],
      "stateMutability": "view",
      "type": "function",
      "constant": true
    },
    {
      "inputs": [
        {
          "internalType": "bytes",
          "name": "context",
          "type": "bytes"
        },
        {
          "internalType": "bool",
          "name": "success",
          "type": "bool"
        },
        {
          "internalType": "uint256",
          "name": "gasUseWithoutPost",
          "type": "uint256"
        },
        {
          "components": [
            {
              "internalType": "uint256",
              "name": "gasPrice",
              "type": "uint256"
            },
            {
              "internalType": "uint256",
              "name": "pctRelayFee",
              "type": "uint256"
            },
            {
              "internalType": "uint256",
              "name": "baseRelayFee",
              "type": "uint256"
            },
            {
              "internalType": "address",
              "name": "relayWorker",
              "type": "address"
            },
            {
              "internalType": "address",
              "name": "paymaster",
              "type": "address"
            },
            {
              "internalType": "address",
              "name": "forwarder",
              "type": "address"
            },
            {
              "internalType": "bytes",
              "name": "paymasterData",
              "type": "bytes"
            },
            {
              "internalType": "uint256",
              "name": "clientId",
              "type": "uint256"
            }
          ],
          "internalType": "struct GsnTypes.RelayData",
          "name": "relayData",
          "type": "tuple"
        }
      ],
      "name": "postRelayedCall",
      "outputs": [],
      "stateMutability": "nonpayable",
      "type": "function"
    },
    {
      "inputs": [],
      "name": "renounceOwnership",
      "outputs": [],
      "stateMutability": "nonpayable",
      "type": "function"
    },
    {
      "inputs": [
        {
          "internalType": "address",
          "name": "",
          "type": "address"
        }
      ],
      "name": "senderWhitelist",
      "outputs": [
        {
          "internalType": "bool",
          "name": "",
          "type": "bool"
        }
      ],
      "stateMutability": "view",
      "type": "function",
      "constant": true
    },
    {
      "inputs": [
        {
          "internalType": "contract IRelayHub",
          "name": "hub",
          "type": "address"
        }
      ],
      "name": "setRelayHub",
      "outputs": [],
      "stateMutability": "nonpayable",
      "type": "function"
    },
    {
      "inputs": [
        {
          "internalType": "contract IForwarder",
          "name": "forwarder",
          "type": "address"
        }
      ],
      "name": "setTrustedForwarder",
      "outputs": [],
      "stateMutability": "nonpayable",
      "type": "function"
    },
    {
      "inputs": [
        {
          "internalType": "address",
          "name": "",
          "type": "address"
        }
      ],
      "name": "targetWhitelist",
      "outputs": [
        {
          "internalType": "bool",
          "name": "",
          "type": "bool"
        }
      ],
      "stateMutability": "view",
      "type": "function",
      "constant": true
    },
    {
      "inputs": [
        {
          "internalType": "address",
          "name": "newOwner",
          "type": "address"
        }
      ],
      "name": "transferOwnership",
      "outputs": [],
      "stateMutability": "nonpayable",
      "type": "function"
    },
    {
      "inputs": [],
      "name": "trustedForwarder",
      "outputs": [
        {
          "internalType": "contract IForwarder",
          "name": "",
          "type": "address"
        }
      ],
      "stateMutability": "view",
      "type": "function",
      "constant": true
    },
    {
      "inputs": [],
      "name": "useSenderWhitelist",
      "outputs": [
        {
          "internalType": "bool",
          "name": "",
          "type": "bool"
        }
      ],
      "stateMutability": "view",
      "type": "function",
      "constant": true
    },
    {
      "inputs": [],
      "name": "useTargetWhitelist",
      "outputs": [
        {
          "internalType": "bool",
          "name": "",
          "type": "bool"
        }
      ],
      "stateMutability": "view",
      "type": "function",
      "constant": true
    },
    {
      "inputs": [],
      "name": "versionPaymaster",
      "outputs": [
        {
          "internalType": "string",
          "name": "",
          "type": "string"
        }
      ],
      "stateMutability": "view",
      "type": "function",
      "constant": true
    },
    {
      "inputs": [
        {
          "internalType": "uint256",
          "name": "amount",
          "type": "uint256"
        },
        {
          "internalType": "address payable",
          "name": "target",
          "type": "address"
        }
      ],
      "name": "withdrawRelayHubDepositTo",
      "outputs": [],
      "stateMutability": "nonpayable",
      "type": "function"
    },
    {
      "stateMutability": "payable",
      "type": "receive",
      "payable": true
    },
    {
      "inputs": [
        {
          "internalType": "contract TokenBank",
          "name": "_tokenBank",
          "type": "address"
        },
        {
          "internalType": "contract Token",
          "name": "_token",
          "type": "address"
        }
      ],
      "name": "setTokenBank",
      "outputs": [],
      "stateMutability": "nonpayable",
      "type": "function"
    },
    {
      "inputs": [
        {
          "internalType": "address",
          "name": "sender",
          "type": "address"
        }
      ],
      "name": "whitelistSender",
      "outputs": [],
      "stateMutability": "nonpayable",
      "type": "function"
    },
    {
      "inputs": [
        {
          "internalType": "address",
          "name": "target",
          "type": "address"
        }
      ],
      "name": "whitelistTarget",
      "outputs": [],
      "stateMutability": "nonpayable",
      "type": "function"
    },
    {
      "inputs": [
        {
          "components": [
            {
              "components": [
                {
                  "internalType": "address",
                  "name": "from",
                  "type": "address"
                },
                {
                  "internalType": "address",
                  "name": "to",
                  "type": "address"
                },
                {
                  "internalType": "uint256",
                  "name": "value",
                  "type": "uint256"
                },
                {
                  "internalType": "uint256",
                  "name": "gas",
                  "type": "uint256"
                },
                {
                  "internalType": "uint256",
                  "name": "nonce",
                  "type": "uint256"
                },
                {
                  "internalType": "bytes",
                  "name": "data",
                  "type": "bytes"
                },
                {
                  "internalType": "uint256",
                  "name": "validUntil",
                  "type": "uint256"
                }
              ],
              "internalType": "struct IForwarder.ForwardRequest",
              "name": "request",
              "type": "tuple"
            },
            {
              "components": [
                {
                  "internalType": "uint256",
                  "name": "gasPrice",
                  "type": "uint256"
                },
                {
                  "internalType": "uint256",
                  "name": "pctRelayFee",
                  "type": "uint256"
                },
                {
                  "internalType": "uint256",
                  "name": "baseRelayFee",
                  "type": "uint256"
                },
                {
                  "internalType": "address",
                  "name": "relayWorker",
                  "type": "address"
                },
                {
                  "internalType": "address",
                  "name": "paymaster",
                  "type": "address"
                },
                {
                  "internalType": "address",
                  "name": "forwarder",
                  "type": "address"
                },
                {
                  "internalType": "bytes",
                  "name": "paymasterData",
                  "type": "bytes"
                },
                {
                  "internalType": "uint256",
                  "name": "clientId",
                  "type": "uint256"
                }
              ],
              "internalType": "struct GsnTypes.RelayData",
              "name": "relayData",
              "type": "tuple"
            }
          ],
          "internalType": "struct GsnTypes.RelayRequest",
          "name": "relayRequest",
          "type": "tuple"
        },
        {
          "internalType": "bytes",
          "name": "signature",
          "type": "bytes"
        },
        {
          "internalType": "bytes",
          "name": "approvalData",
          "type": "bytes"
        },
        {
          "internalType": "uint256",
          "name": "maxPossibleGas",
          "type": "uint256"
        }
      ],
      "name": "preRelayedCall",
      "outputs": [
        {
          "internalType": "bytes",
          "name": "context",
          "type": "bytes"
        },
        {
          "internalType": "bool",
          "name": "revertOnRecipientRevert",
          "type": "bool"
        }
      ],
      "stateMutability": "nonpayable",
      "type": "function"
    }
  ],
  "bytecode": "0x608060405234801561001057600080fd5b5060006100216100c460201b60201c565b9050806000806101000a81548173ffffffffffffffffffffffffffffffffffffffff021916908373ffffffffffffffffffffffffffffffffffffffff1602179055508073ffffffffffffffffffffffffffffffffffffffff16600073ffffffffffffffffffffffffffffffffffffffff167f8be0079c531659141344cd1fd0a4f28419497f9722a3daafe3b4186f6b6457e060405160405180910390a3506100cc565b600033905090565b612393806100db6000396000f3fe6080604052600436106101845760003560e01c80638222f07d116100d1578063b90b41cf1161008a578063dd1bcaa111610064578063dd1bcaa114610675578063df463a66146106a0578063f2fde38b146106cb578063f9c002f7146106f4576102ab565b8063b90b41cf146105f6578063bbdaa3c914610621578063da7422281461064c576102ab565b80638222f07d146104d2578063858437b01461050f5780638da5cb5b1461054c578063921276ea14610577578063a5dcd07b146105a2578063b039a88f146105cb576102ab565b80634f28bfb91161013e57806374e861d61161011857806374e861d61461042a57806376fa01c3146104555780637bb052641461047e5780637da0a877146104a7576102ab565b80634f28bfb9146103bd5780635c5e3db1146103e8578063715018a614610413576102ab565b8062be5dd4146102b0578063105cf34a146102ee5780631cfda9fa146103175780632afe31c1146103405780632d14c4b71461036b5780632f10a6c614610394576102ab565b366102ab57600073ffffffffffffffffffffffffffffffffffffffff16600160009054906101000a900473ffffffffffffffffffffffffffffffffffffffff1673ffffffffffffffffffffffffffffffffffffffff16141561021b576040517f08c379a000000000000000000000000000000000000000000000000000000000815260040161021290611fb9565b60405180910390fd5b600160009054906101000a900473ffffffffffffffffffffffffffffffffffffffff1673ffffffffffffffffffffffffffffffffffffffff1663aa67c91934306040518363ffffffff1660e01b81526004016102779190611e7f565b6000604051808303818588803b15801561029057600080fd5b505af11580156102a4573d6000803e3d6000fd5b5050505050005b600080fd5b3480156102bc57600080fd5b506102d760048036038101906102d29190611a45565b61071f565b6040516102e5929190611eec565b60405180910390f35b3480156102fa57600080fd5b50610315600480360381019061031091906119c8565b6108dc565b005b34801561032357600080fd5b5061033e6004803603810190610339919061188c565b610962565b005b34801561034c57600080fd5b50610355610a87565b6040516103629190612034565b60405180910390f35b34801561037757600080fd5b50610392600480360381019061038d9190611b21565b610b39565b005b3480156103a057600080fd5b506103bb60048036038101906103b6919061188c565b610c7a565b005b3480156103c957600080fd5b506103d2610d9f565b6040516103df9190611ed1565b60405180910390f35b3480156103f457600080fd5b506103fd610db2565b60405161040a9190612034565b60405180910390f35b34801561041f57600080fd5b50610428610db8565b005b34801561043657600080fd5b5061043f610f25565b60405161044c9190611e64565b60405180910390f35b34801561046157600080fd5b5061047c600480360381019061047791906118de565b610f4f565b005b34801561048a57600080fd5b506104a560048036038101906104a0919061199f565b610f56565b005b3480156104b357600080fd5b506104bc611049565b6040516104c99190611f1c565b60405180910390f35b3480156104de57600080fd5b506104f960048036038101906104f4919061188c565b61106f565b6040516105069190611ed1565b60405180910390f35b34801561051b57600080fd5b506105366004803603810190610531919061188c565b61108f565b6040516105439190611ed1565b60405180910390f35b34801561055857600080fd5b506105616110af565b60405161056e9190611e64565b60405180910390f35b34801561058357600080fd5b5061058c6110d8565b6040516105999190611f37565b60405180910390f35b3480156105ae57600080fd5b506105c960048036038101906105c49190611a04565b6110f8565b005b3480156105d757600080fd5b506105e06111b5565b6040516105ed9190612019565b60405180910390f35b34801561060257600080fd5b5061060b6111f2565b6040516106189190612034565b60405180910390f35b34801561062d57600080fd5b506106366111f8565b6040516106439190612034565b60405180910390f35b34801561065857600080fd5b50610673600480360381019061066e9190611976565b6111ff565b005b34801561068157600080fd5b5061068a6112f2565b6040516106979190611ed1565b60405180910390f35b3480156106ac57600080fd5b506106b5611305565b6040516106c29190612034565b60405180910390f35b3480156106d757600080fd5b506106f260048036038101906106ed919061188c565b611310565b005b34801561070057600080fd5b50610709611502565b6040516107169190612034565b60405180910390f35b60606000600660009054906101000a900473ffffffffffffffffffffffffffffffffffffffff1673ffffffffffffffffffffffffffffffffffffffff166323b872dd8980600001906107719190612078565b6000016020810190610783919061188c565b3060016040518463ffffffff1660e01b81526004016107a493929190611e9a565b602060405180830381600087803b1580156107be57600080fd5b505af11580156107d2573d6000803e3d6000fd5b505050506040513d601f19601f820116820180604052508101906107f691906118b5565b50600260159054906101000a900460ff16156108ba57600460008980600001906108209190612078565b6020016020810190610832919061188c565b73ffffffffffffffffffffffffffffffffffffffff1673ffffffffffffffffffffffffffffffffffffffff16815260200190815260200160002060009054906101000a900460ff166108b9576040517f08c379a00000000000000000000000000000000000000000000000000000000081526004016108b090611f99565b60405180910390fd5b5b6000604051806020016040528060008152509091509150965096945050505050565b81600560006101000a81548173ffffffffffffffffffffffffffffffffffffffff021916908373ffffffffffffffffffffffffffffffffffffffff16021790555080600660006101000a81548173ffffffffffffffffffffffffffffffffffffffff021916908373ffffffffffffffffffffffffffffffffffffffff1602179055505050565b61096a611509565b73ffffffffffffffffffffffffffffffffffffffff166109886110af565b73ffffffffffffffffffffffffffffffffffffffff1614610a11576040517f08c379a00000000000000000000000000000000000000000000000000000000081526004018080602001828103825260208152602001807f4f776e61626c653a2063616c6c6572206973206e6f7420746865206f776e657281525060200191505060405180910390fd5b6001600460008373ffffffffffffffffffffffffffffffffffffffff1673ffffffffffffffffffffffffffffffffffffffff16815260200190815260200160002060006101000a81548160ff0219169083151502179055506001600260156101000a81548160ff02191690831515021790555050565b6000600160009054906101000a900473ffffffffffffffffffffffffffffffffffffffff1673ffffffffffffffffffffffffffffffffffffffff166370a08231306040518263ffffffff1660e01b8152600401610ae49190611e7f565b60206040518083038186803b158015610afc57600080fd5b505afa158015610b10573d6000803e3d6000fd5b505050506040513d601f19601f82011682018060405250810190610b349190611af8565b905090565b610b41611509565b73ffffffffffffffffffffffffffffffffffffffff16610b5f6110af565b73ffffffffffffffffffffffffffffffffffffffff1614610be8576040517f08c379a00000000000000000000000000000000000000000000000000000000081526004018080602001828103825260208152602001807f4f776e61626c653a2063616c6c6572206973206e6f7420746865206f776e657281525060200191505060405180910390fd5b600160009054906101000a900473ffffffffffffffffffffffffffffffffffffffff1673ffffffffffffffffffffffffffffffffffffffff1662f714ce83836040518363ffffffff1660e01b8152600401610c4492919061204f565b600060405180830381600087803b158015610c5e57600080fd5b505af1158015610c72573d6000803e3d6000fd5b505050505050565b610c82611509565b73ffffffffffffffffffffffffffffffffffffffff16610ca06110af565b73ffffffffffffffffffffffffffffffffffffffff1614610d29576040517f08c379a00000000000000000000000000000000000000000000000000000000081526004018080602001828103825260208152602001807f4f776e61626c653a2063616c6c6572206973206e6f7420746865206f776e657281525060200191505060405180910390fd5b6001600360008373ffffffffffffffffffffffffffffffffffffffff1673ffffffffffffffffffffffffffffffffffffffff16815260200190815260200160002060006101000a81548160ff0219169083151502179055506001600260146101000a81548160ff02191690831515021790555050565b600260159054906101000a900460ff1681565b61290481565b610dc0611509565b73ffffffffffffffffffffffffffffffffffffffff16610dde6110af565b73ffffffffffffffffffffffffffffffffffffffff1614610e67576040517f08c379a00000000000000000000000000000000000000000000000000000000081526004018080602001828103825260208152602001807f4f776e61626c653a2063616c6c6572206973206e6f7420746865206f776e657281525060200191505060405180910390fd5b600073ffffffffffffffffffffffffffffffffffffffff1660008054906101000a900473ffffffffffffffffffffffffffffffffffffffff1673ffffffffffffffffffffffffffffffffffffffff167f8be0079c531659141344cd1fd0a4f28419497f9722a3daafe3b4186f6b6457e060405160405180910390a360008060006101000a81548173ffffffffffffffffffffffffffffffffffffffff021916908373ffffffffffffffffffffffffffffffffffffffff160217905550565b6000600160009054906101000a900473ffffffffffffffffffffffffffffffffffffffff16905090565b5050505050565b610f5e611509565b73ffffffffffffffffffffffffffffffffffffffff16610f7c6110af565b73ffffffffffffffffffffffffffffffffffffffff1614611005576040517f08c379a00000000000000000000000000000000000000000000000000000000081526004018080602001828103825260208152602001807f4f776e61626c653a2063616c6c6572206973206e6f7420746865206f776e657281525060200191505060405180910390fd5b80600160006101000a81548173ffffffffffffffffffffffffffffffffffffffff021916908373ffffffffffffffffffffffffffffffffffffffff16021790555050565b600260009054906101000a900473ffffffffffffffffffffffffffffffffffffffff1681565b60036020528060005260406000206000915054906101000a900460ff1681565b60046020528060005260406000206000915054906101000a900460ff1681565b60008060009054906101000a900473ffffffffffffffffffffffffffffffffffffffff16905090565b606060405180606001604052806029815260200161230f60299139905090565b808060200190611108919061209c565b60a001602081019061111a919061188c565b73ffffffffffffffffffffffffffffffffffffffff16600260009054906101000a900473ffffffffffffffffffffffffffffffffffffffff1673ffffffffffffffffffffffffffffffffffffffff16146111a9576040517f08c379a00000000000000000000000000000000000000000000000000000000081526004016111a090611fd9565b60405180910390fd5b6111b281611511565b50565b6111bd611711565b604051806080016040528061c350620186a0018152602001620186a081526020016201adb08152602001612904815250905090565b61c35081565b6201adb081565b611207611509565b73ffffffffffffffffffffffffffffffffffffffff166112256110af565b73ffffffffffffffffffffffffffffffffffffffff16146112ae576040517f08c379a00000000000000000000000000000000000000000000000000000000081526004018080602001828103825260208152602001807f4f776e61626c653a2063616c6c6572206973206e6f7420746865206f776e657281525060200191505060405180910390fd5b80600260006101000a81548173ffffffffffffffffffffffffffffffffffffffff021916908373ffffffffffffffffffffffffffffffffffffffff16021790555050565b600260149054906101000a900460ff1681565b61c350620186a00181565b611318611509565b73ffffffffffffffffffffffffffffffffffffffff166113366110af565b73ffffffffffffffffffffffffffffffffffffffff16146113bf576040517f08c379a00000000000000000000000000000000000000000000000000000000081526004018080602001828103825260208152602001807f4f776e61626c653a2063616c6c6572206973206e6f7420746865206f776e657281525060200191505060405180910390fd5b600073ffffffffffffffffffffffffffffffffffffffff168173ffffffffffffffffffffffffffffffffffffffff161415611445576040517f08c379a00000000000000000000000000000000000000000000000000000000081526004018080602001828103825260268152602001806123386026913960400191505060405180910390fd5b8073ffffffffffffffffffffffffffffffffffffffff1660008054906101000a900473ffffffffffffffffffffffffffffffffffffffff1673ffffffffffffffffffffffffffffffffffffffff167f8be0079c531659141344cd1fd0a4f28419497f9722a3daafe3b4186f6b6457e060405160405180910390a3806000806101000a81548173ffffffffffffffffffffffffffffffffffffffff021916908373ffffffffffffffffffffffffffffffffffffffff16021790555050565b620186a081565b600033905090565b6000808280600001906115249190612078565b6020016020810190611536919061188c565b73ffffffffffffffffffffffffffffffffffffffff1663572b6c0560e01b848060200190611564919061209c565b60a0016020810190611576919061188c565b6040516024016115869190611e64565b604051602081830303815290604052907bffffffffffffffffffffffffffffffffffffffffffffffffffffffff19166020820180517bffffffffffffffffffffffffffffffffffffffffffffffffffffffff83818316178352505050506040516115f09190611e4d565b600060405180830381855afa9150503d806000811461162b576040519150601f19603f3d011682016040523d82523d6000602084013e611630565b606091505b509150915081611675576040517f08c379a000000000000000000000000000000000000000000000000000000000815260040161166c90611f79565b60405180910390fd5b60208151146116b9576040517f08c379a00000000000000000000000000000000000000000000000000000000081526004016116b090611ff9565b60405180910390fd5b808060200190518101906116cd91906118b5565b61170c576040517f08c379a000000000000000000000000000000000000000000000000000000000815260040161170390611f59565b60405180910390fd5b505050565b6040518060800160405280600081526020016000815260200160008152602001600081525090565b60008135905061174881612256565b92915050565b60008135905061175d8161226d565b92915050565b60008135905061177281612284565b92915050565b60008151905061178781612284565b92915050565b60008083601f84011261179f57600080fd5b8235905067ffffffffffffffff8111156117b857600080fd5b6020830191508360018202830111156117d057600080fd5b9250929050565b6000813590506117e68161229b565b92915050565b6000813590506117fb816122b2565b92915050565b600081359050611810816122c9565b92915050565b600081359050611825816122e0565b92915050565b6000610100828403121561183e57600080fd5b81905092915050565b60006040828403121561185957600080fd5b81905092915050565b600081359050611871816122f7565b92915050565b600081519050611886816122f7565b92915050565b60006020828403121561189e57600080fd5b60006118ac84828501611739565b91505092915050565b6000602082840312156118c757600080fd5b60006118d584828501611778565b91505092915050565b6000806000806000608086880312156118f657600080fd5b600086013567ffffffffffffffff81111561191057600080fd5b61191c8882890161178d565b9550955050602061192f88828901611763565b935050604061194088828901611862565b925050606086013567ffffffffffffffff81111561195d57600080fd5b6119698882890161182b565b9150509295509295909350565b60006020828403121561198857600080fd5b6000611996848285016117d7565b91505092915050565b6000602082840312156119b157600080fd5b60006119bf848285016117ec565b91505092915050565b600080604083850312156119db57600080fd5b60006119e985828601611801565b92505060206119fa85828601611816565b9150509250929050565b600060208284031215611a1657600080fd5b600082013567ffffffffffffffff811115611a3057600080fd5b611a3c84828501611847565b91505092915050565b60008060008060008060808789031215611a5e57600080fd5b600087013567ffffffffffffffff811115611a7857600080fd5b611a8489828a01611847565b965050602087013567ffffffffffffffff811115611aa157600080fd5b611aad89828a0161178d565b9550955050604087013567ffffffffffffffff811115611acc57600080fd5b611ad889828a0161178d565b93509350506060611aeb89828a01611862565b9150509295509295509295565b600060208284031215611b0a57600080fd5b6000611b1884828501611877565b91505092915050565b60008060408385031215611b3457600080fd5b6000611b4285828601611862565b9250506020611b538582860161174e565b9150509250929050565b611b66816121a6565b82525050565b611b7581612116565b82525050565b611b8481612104565b82525050565b611b9381612128565b82525050565b6000611ba4826120c1565b611bae81856120d7565b9350611bbe818560208601612212565b611bc781612245565b840191505092915050565b6000611bdd826120c1565b611be781856120e8565b9350611bf7818560208601612212565b80840191505092915050565b611c0c816121b8565b82525050565b611c1b816121dc565b82525050565b6000611c2c826120cc565b611c3681856120f3565b9350611c46818560208601612212565b611c4f81612245565b840191505092915050565b6000611c67601f836120f3565b91507f696e76616c696420666f7277617264657220666f7220726563697069656e74006000830152602082019050919050565b6000611ca7601c836120f3565b91507f697354727573746564466f727761726465723a207265766572746564000000006000830152602082019050919050565b6000611ce7601c836120f3565b91507f4641494c205441524745542057484954454c49535420435553544f4d000000006000830152602082019050919050565b6000611d276019836120f3565b91507f72656c6179206875622061646472657373206e6f7420736574000000000000006000830152602082019050919050565b6000611d676018836120f3565b91507f466f72776172646572206973206e6f74207472757374656400000000000000006000830152602082019050919050565b6000611da76020836120f3565b91507f697354727573746564466f727761726465723a2062616420726573706f6e73656000830152602082019050919050565b608082016000820151611df06000850182611e2f565b506020820151611e036020850182611e2f565b506040820151611e166040850182611e2f565b506060820151611e296060850182611e2f565b50505050565b611e388161219c565b82525050565b611e478161219c565b82525050565b6000611e598284611bd2565b915081905092915050565b6000602082019050611e796000830184611b7b565b92915050565b6000602082019050611e946000830184611b5d565b92915050565b6000606082019050611eaf6000830186611b7b565b611ebc6020830185611b5d565b611ec96040830184611c12565b949350505050565b6000602082019050611ee66000830184611b8a565b92915050565b60006040820190508181036000830152611f068185611b99565b9050611f156020830184611b8a565b9392505050565b6000602082019050611f316000830184611c03565b92915050565b60006020820190508181036000830152611f518184611c21565b905092915050565b60006020820190508181036000830152611f7281611c5a565b9050919050565b60006020820190508181036000830152611f9281611c9a565b9050919050565b60006020820190508181036000830152611fb281611cda565b9050919050565b60006020820190508181036000830152611fd281611d1a565b9050919050565b60006020820190508181036000830152611ff281611d5a565b9050919050565b6000602082019050818103600083015261201281611d9a565b9050919050565b600060808201905061202e6000830184611dda565b92915050565b60006020820190506120496000830184611e3e565b92915050565b60006040820190506120646000830185611e3e565b6120716020830184611b6c565b9392505050565b60008235600160e00383360303811261209057600080fd5b80830191505092915050565b600082356001610100038336030381126120b557600080fd5b80830191505092915050565b600081519050919050565b600081519050919050565b600082825260208201905092915050565b600081905092915050565b600082825260208201905092915050565b600061210f8261217c565b9050919050565b60006121218261217c565b9050919050565b60008115159050919050565b600061213f82612104565b9050919050565b600061215182612104565b9050919050565b600061216382612104565b9050919050565b600061217582612104565b9050919050565b600073ffffffffffffffffffffffffffffffffffffffff82169050919050565b6000819050919050565b60006121b1826121ee565b9050919050565b60006121c3826121ca565b9050919050565b60006121d58261217c565b9050919050565b60006121e78261219c565b9050919050565b60006121f982612200565b9050919050565b600061220b8261217c565b9050919050565b60005b83811015612230578082015181840152602081019050612215565b8381111561223f576000848401525b50505050565b6000601f19601f8301169050919050565b61225f81612104565b811461226a57600080fd5b50565b61227681612116565b811461228157600080fd5b50565b61228d81612128565b811461229857600080fd5b50565b6122a481612134565b81146122af57600080fd5b50565b6122bb81612146565b81146122c657600080fd5b50565b6122d281612158565b81146122dd57600080fd5b50565b6122e98161216a565b81146122f457600080fd5b50565b6123008161219c565b811461230b57600080fd5b5056fe322e322e302b6f70656e67736e2e61636365707465766572797468696e672e697061796d61737465724f776e61626c653a206e6577206f776e657220697320746865207a65726f2061646472657373a26469706673582212205b34275446607a85245a10a2f174137c659ad4e21a0be8e5fdc33e595ab9c83c64736f6c63430007060033",
  "immutableReferences": {},
  "source": "/**\n * SPDX-License-Identifier:MIT\n */\npragma solidity ^0.7.6;\npragma experimental ABIEncoderV2;\n\nimport \"@opengsn/paymasters/contracts/AcceptEverythingPaymaster.sol\";\nimport \"./TokenBank.sol\";\n\ncontract CustomPaymaster is AcceptEverythingPaymaster {\n\n    \n\n    bool public useSenderWhitelist;\n    bool public useTargetWhitelist;\n    mapping (address=>bool) public senderWhitelist;\n    mapping (address=>bool) public targetWhitelist;\n\n    TokenBank private tokenBank;\n    Token private token;\n\n\n    function setTokenBank(TokenBank _tokenBank,Token _token) public {\n        tokenBank = _tokenBank;\n        token = _token;\n    }\n\n\n    function whitelistSender(address sender) public onlyOwner {\n        senderWhitelist[sender]=true;\n        useSenderWhitelist = true;\n    }\n    function whitelistTarget(address target) public onlyOwner {\n        targetWhitelist[target]=true;\n        useTargetWhitelist = true;\n    }\n\n    function preRelayedCall(\n        GsnTypes.RelayRequest calldata relayRequest,\n        bytes calldata signature,\n        bytes calldata approvalData,\n        uint256 maxPossibleGas\n    )\n    external\n    override\n    virtual\n    returns (bytes memory context, bool revertOnRecipientRevert) {\n        (relayRequest, signature, approvalData, maxPossibleGas);\n\n        \n        token.transferFrom(relayRequest.request.from,address(this),1);\n        // require(tokenBalance[relayRequest.request.from] > 1,\"INSUFFICIENT TOKEN BALANCE\");\n        // tokenBalance[relayRequest.request.from]-=1;\n            //require( senderWhitelist[relayRequest.request.from], \"FAIL WHITELIST CUSTOM\");\n        \n\n\n        if (useTargetWhitelist) {\n            require( targetWhitelist[relayRequest.request.to], \"FAIL TARGET WHITELIST CUSTOM\");\n        }\n        return (\"\", false);\n    }\n\n\n\n}\n",
  "sourcePath": "C:\\Users\\nomif\\Desktop\\Programming\\Blockchain\\ethereum-gasless-transactions\\OpenGSN\\contracts\\CustomPaymaster.sol",
  "compiler": {
    "name": "solc",
    "version": "0.7.6+commit.7338295f.Emscripten.clang"
  },
  "schemaVersion": "3.4.3",
  "updatedAt": "2021-10-26T19:55:46.389Z",
  "networkType": "ethereum",
  "devdoc": {
    "kind": "dev",
    "methods": {
      "owner()": {
        "details": "Returns the address of the current owner."
      },
      "postRelayedCall(bytes,bool,uint256,(uint256,uint256,uint256,address,address,address,bytes,uint256))": {
        "params": {
          "context": "- the call context, as returned by the preRelayedCall",
          "gasUseWithoutPost": "- the actual amount of gas used by the entire transaction, EXCEPT        the gas used by the postRelayedCall itself.",
          "relayData": "- the relay params of the request. can be used by relayHub.calculateCharge() Revert in this functions causes a revert of the client's relayed call (and preRelayedCall(), but the Paymaster is still committed to pay the relay for the entire transaction.",
          "success": "- true if the relayed call succeeded, false if it reverted"
        }
      },
      "preRelayedCall(((address,address,uint256,uint256,uint256,bytes,uint256),(uint256,uint256,uint256,address,address,address,bytes,uint256)),bytes,bytes,uint256)": {
        "params": {
          "approvalData": "- extra dapp-specific data (e.g. signature from trusted party)",
          "maxPossibleGas": "- based on values returned from {@link getGasAndDataLimits},         the RelayHub will calculate the maximum possible amount of gas the user may be charged for.         In order to convert this value to wei, the Paymaster has to call \"relayHub.calculateCharge()\"  return:      a context to be passed to postRelayedCall      rejectOnRecipientRevert - TRUE if paymaster want to reject the TX if the recipient reverts.          FALSE means that rejects by the recipient will be completed on chain, and paid by the paymaster.          (note that in the latter case, the preRelayedCall and postRelayedCall are not reverted).",
          "relayRequest": "- the full relay request structure",
          "signature": "- user's EIP712-compatible signature of the {@link relayRequest}.              Note that in most cases the paymaster shouldn't try use it at all. It is always checked              by the forwarder immediately after preRelayedCall returns."
        }
      },
      "renounceOwnership()": {
        "details": "Leaves the contract without owner. It will not be possible to call `onlyOwner` functions anymore. Can only be called by the current owner. NOTE: Renouncing ownership will leave the contract without an owner, thereby removing any functionality that is only available to the owner."
      },
      "transferOwnership(address)": {
        "details": "Transfers ownership of the contract to a new account (`newOwner`). Can only be called by the current owner."
      }
    },
    "version": 1
  },
  "userdoc": {
    "kind": "user",
    "methods": {
      "getGasAndDataLimits()": {
        "notice": "Return the Gas Limits and msg.data max size constants used by the Paymaster."
      },
      "getHubAddr()": {
        "notice": "return the relayHub of this contract."
      },
      "getRelayHubDeposit()": {
        "notice": "check current deposit on relay hub."
      },
      "postRelayedCall(bytes,bool,uint256,(uint256,uint256,uint256,address,address,address,bytes,uint256))": {
        "notice": "This method is called after the actual relayed function call. It may be used to record the transaction (e.g. charge the caller by some contract logic) for this call. MUST be protected with relayHubOnly() in case it modifies state."
      },
      "preRelayedCall(((address,address,uint256,uint256,uint256,bytes,uint256),(uint256,uint256,uint256,address,address,address,bytes,uint256)),bytes,bytes,uint256)": {
        "notice": "Called by Relay (and RelayHub), to validate if the paymaster agrees to pay for this call. MUST be protected with relayHubOnly() in case it modifies state. The Paymaster rejects by the following \"revert\" operations  - preRelayedCall() method reverts  - the forwarder reverts because of nonce or signature error  - the paymaster returned \"rejectOnRecipientRevert\", and the recipient contract reverted. In any of the above cases, all paymaster calls (and recipient call) are reverted. In any other case, the paymaster agrees to pay for the gas cost of the transaction (note  that this includes also postRelayedCall revert) The rejectOnRecipientRevert flag means the Paymaster \"delegate\" the rejection to the recipient  code.  It also means the Paymaster trust the recipient to reject fast: both preRelayedCall,  forwarder check and receipient checks must fit into the GasLimits.acceptanceBudget,  otherwise the TX is paid by the Paymaster."
      },
      "withdrawRelayHubDepositTo(uint256,address)": {
        "notice": "withdraw deposit from relayHub"
      }
    },
    "version": 1
  }
}