{
  "contractName": "NoFeePaymaster",
  "abi": [
    {
      "anonymous": false,
      "inputs": [
        {
          "indexed": true,
          "internalType": "address",
          "name": "previousOwner",
          "type": "address"
        },
        {
          "indexed": true,
          "internalType": "address",
          "name": "newOwner",
          "type": "address"
        }
      ],
      "name": "OwnershipTransferred",
      "type": "event"
    },
    {
      "inputs": [],
      "name": "CALLDATA_SIZE_LIMIT",
      "outputs": [
        {
          "internalType": "uint256",
          "name": "",
          "type": "uint256"
        }
      ],
      "stateMutability": "view",
      "type": "function",
      "constant": true
    },
    {
      "inputs": [],
      "name": "FORWARDER_HUB_OVERHEAD",
      "outputs": [
        {
          "internalType": "uint256",
          "name": "",
          "type": "uint256"
        }
      ],
      "stateMutability": "view",
      "type": "function",
      "constant": true
    },
    {
      "inputs": [],
      "name": "PAYMASTER_ACCEPTANCE_BUDGET",
      "outputs": [
        {
          "internalType": "uint256",
          "name": "",
          "type": "uint256"
        }
      ],
      "stateMutability": "view",
      "type": "function",
      "constant": true
    },
    {
      "inputs": [],
      "name": "POST_RELAYED_CALL_GAS_LIMIT",
      "outputs": [
        {
          "internalType": "uint256",
          "name": "",
          "type": "uint256"
        }
      ],
      "stateMutability": "view",
      "type": "function",
      "constant": true
    },
    {
      "inputs": [],
      "name": "PRE_RELAYED_CALL_GAS_LIMIT",
      "outputs": [
        {
          "internalType": "uint256",
          "name": "",
          "type": "uint256"
        }
      ],
      "stateMutability": "view",
      "type": "function",
      "constant": true
    },
    {
      "inputs": [
        {
          "components": [
            {
              "components": [
                {
                  "internalType": "address",
                  "name": "from",
                  "type": "address"
                },
                {
                  "internalType": "address",
                  "name": "to",
                  "type": "address"
                },
                {
                  "internalType": "uint256",
                  "name": "value",
                  "type": "uint256"
                },
                {
                  "internalType": "uint256",
                  "name": "gas",
                  "type": "uint256"
                },
                {
                  "internalType": "uint256",
                  "name": "nonce",
                  "type": "uint256"
                },
                {
                  "internalType": "bytes",
                  "name": "data",
                  "type": "bytes"
                },
                {
                  "internalType": "uint256",
                  "name": "validUntil",
                  "type": "uint256"
                }
              ],
              "internalType": "struct IForwarder.ForwardRequest",
              "name": "request",
              "type": "tuple"
            },
            {
              "components": [
                {
                  "internalType": "uint256",
                  "name": "gasPrice",
                  "type": "uint256"
                },
                {
                  "internalType": "uint256",
                  "name": "pctRelayFee",
                  "type": "uint256"
                },
                {
                  "internalType": "uint256",
                  "name": "baseRelayFee",
                  "type": "uint256"
                },
                {
                  "internalType": "address",
                  "name": "relayWorker",
                  "type": "address"
                },
                {
                  "internalType": "address",
                  "name": "paymaster",
                  "type": "address"
                },
                {
                  "internalType": "address",
                  "name": "forwarder",
                  "type": "address"
                },
                {
                  "internalType": "bytes",
                  "name": "paymasterData",
                  "type": "bytes"
                },
                {
                  "internalType": "uint256",
                  "name": "clientId",
                  "type": "uint256"
                }
              ],
              "internalType": "struct GsnTypes.RelayData",
              "name": "relayData",
              "type": "tuple"
            }
          ],
          "internalType": "struct GsnTypes.RelayRequest",
          "name": "relayRequest",
          "type": "tuple"
        }
      ],
      "name": "_verifyForwarder",
      "outputs": [],
      "stateMutability": "view",
      "type": "function",
      "constant": true
    },
    {
      "inputs": [],
      "name": "getGasAndDataLimits",
      "outputs": [
        {
          "components": [
            {
              "internalType": "uint256",
              "name": "acceptanceBudget",
              "type": "uint256"
            },
            {
              "internalType": "uint256",
              "name": "preRelayedCallGasLimit",
              "type": "uint256"
            },
            {
              "internalType": "uint256",
              "name": "postRelayedCallGasLimit",
              "type": "uint256"
            },
            {
              "internalType": "uint256",
              "name": "calldataSizeLimit",
              "type": "uint256"
            }
          ],
          "internalType": "struct IPaymaster.GasAndDataLimits",
          "name": "limits",
          "type": "tuple"
        }
      ],
      "stateMutability": "view",
      "type": "function",
      "constant": true
    },
    {
      "inputs": [],
      "name": "getHubAddr",
      "outputs": [
        {
          "internalType": "address",
          "name": "",
          "type": "address"
        }
      ],
      "stateMutability": "view",
      "type": "function",
      "constant": true
    },
    {
      "inputs": [],
      "name": "getRelayHubDeposit",
      "outputs": [
        {
          "internalType": "uint256",
          "name": "",
          "type": "uint256"
        }
      ],
      "stateMutability": "view",
      "type": "function",
      "constant": true
    },
    {
      "inputs": [],
      "name": "owner",
      "outputs": [
        {
          "internalType": "address",
          "name": "",
          "type": "address"
        }
      ],
      "stateMutability": "view",
      "type": "function",
      "constant": true
    },
    {
      "inputs": [
        {
          "internalType": "bytes",
          "name": "context",
          "type": "bytes"
        },
        {
          "internalType": "bool",
          "name": "success",
          "type": "bool"
        },
        {
          "internalType": "uint256",
          "name": "gasUseWithoutPost",
          "type": "uint256"
        },
        {
          "components": [
            {
              "internalType": "uint256",
              "name": "gasPrice",
              "type": "uint256"
            },
            {
              "internalType": "uint256",
              "name": "pctRelayFee",
              "type": "uint256"
            },
            {
              "internalType": "uint256",
              "name": "baseRelayFee",
              "type": "uint256"
            },
            {
              "internalType": "address",
              "name": "relayWorker",
              "type": "address"
            },
            {
              "internalType": "address",
              "name": "paymaster",
              "type": "address"
            },
            {
              "internalType": "address",
              "name": "forwarder",
              "type": "address"
            },
            {
              "internalType": "bytes",
              "name": "paymasterData",
              "type": "bytes"
            },
            {
              "internalType": "uint256",
              "name": "clientId",
              "type": "uint256"
            }
          ],
          "internalType": "struct GsnTypes.RelayData",
          "name": "relayData",
          "type": "tuple"
        }
      ],
      "name": "postRelayedCall",
      "outputs": [],
      "stateMutability": "nonpayable",
      "type": "function"
    },
    {
      "inputs": [],
      "name": "renounceOwnership",
      "outputs": [],
      "stateMutability": "nonpayable",
      "type": "function"
    },
    {
      "inputs": [
        {
          "internalType": "contract IRelayHub",
          "name": "hub",
          "type": "address"
        }
      ],
      "name": "setRelayHub",
      "outputs": [],
      "stateMutability": "nonpayable",
      "type": "function"
    },
    {
      "inputs": [
        {
          "internalType": "contract IForwarder",
          "name": "forwarder",
          "type": "address"
        }
      ],
      "name": "setTrustedForwarder",
      "outputs": [],
      "stateMutability": "nonpayable",
      "type": "function"
    },
    {
      "inputs": [
        {
          "internalType": "address",
          "name": "newOwner",
          "type": "address"
        }
      ],
      "name": "transferOwnership",
      "outputs": [],
      "stateMutability": "nonpayable",
      "type": "function"
    },
    {
      "inputs": [],
      "name": "trustedForwarder",
      "outputs": [
        {
          "internalType": "contract IForwarder",
          "name": "",
          "type": "address"
        }
      ],
      "stateMutability": "view",
      "type": "function",
      "constant": true
    },
    {
      "inputs": [],
      "name": "versionPaymaster",
      "outputs": [
        {
          "internalType": "string",
          "name": "",
          "type": "string"
        }
      ],
      "stateMutability": "view",
      "type": "function",
      "constant": true
    },
    {
      "inputs": [
        {
          "internalType": "uint256",
          "name": "amount",
          "type": "uint256"
        },
        {
          "internalType": "address payable",
          "name": "target",
          "type": "address"
        }
      ],
      "name": "withdrawRelayHubDepositTo",
      "outputs": [],
      "stateMutability": "nonpayable",
      "type": "function"
    },
    {
      "stateMutability": "payable",
      "type": "receive",
      "payable": true
    },
    {
      "inputs": [
        {
          "internalType": "contract Token",
          "name": "_token",
          "type": "address"
        }
      ],
      "name": "setToken",
      "outputs": [],
      "stateMutability": "nonpayable",
      "type": "function"
    },
    {
      "inputs": [
        {
          "components": [
            {
              "components": [
                {
                  "internalType": "address",
                  "name": "from",
                  "type": "address"
                },
                {
                  "internalType": "address",
                  "name": "to",
                  "type": "address"
                },
                {
                  "internalType": "uint256",
                  "name": "value",
                  "type": "uint256"
                },
                {
                  "internalType": "uint256",
                  "name": "gas",
                  "type": "uint256"
                },
                {
                  "internalType": "uint256",
                  "name": "nonce",
                  "type": "uint256"
                },
                {
                  "internalType": "bytes",
                  "name": "data",
                  "type": "bytes"
                },
                {
                  "internalType": "uint256",
                  "name": "validUntil",
                  "type": "uint256"
                }
              ],
              "internalType": "struct IForwarder.ForwardRequest",
              "name": "request",
              "type": "tuple"
            },
            {
              "components": [
                {
                  "internalType": "uint256",
                  "name": "gasPrice",
                  "type": "uint256"
                },
                {
                  "internalType": "uint256",
                  "name": "pctRelayFee",
                  "type": "uint256"
                },
                {
                  "internalType": "uint256",
                  "name": "baseRelayFee",
                  "type": "uint256"
                },
                {
                  "internalType": "address",
                  "name": "relayWorker",
                  "type": "address"
                },
                {
                  "internalType": "address",
                  "name": "paymaster",
                  "type": "address"
                },
                {
                  "internalType": "address",
                  "name": "forwarder",
                  "type": "address"
                },
                {
                  "internalType": "bytes",
                  "name": "paymasterData",
                  "type": "bytes"
                },
                {
                  "internalType": "uint256",
                  "name": "clientId",
                  "type": "uint256"
                }
              ],
              "internalType": "struct GsnTypes.RelayData",
              "name": "relayData",
              "type": "tuple"
            }
          ],
          "internalType": "struct GsnTypes.RelayRequest",
          "name": "relayRequest",
          "type": "tuple"
        },
        {
          "internalType": "bytes",
          "name": "signature",
          "type": "bytes"
        },
        {
          "internalType": "bytes",
          "name": "approvalData",
          "type": "bytes"
        },
        {
          "internalType": "uint256",
          "name": "maxPossibleGas",
          "type": "uint256"
        }
      ],
      "name": "preRelayedCall",
      "outputs": [
        {
          "internalType": "bytes",
          "name": "context",
          "type": "bytes"
        },
        {
          "internalType": "bool",
          "name": "revertOnRecipientRevert",
          "type": "bool"
        }
      ],
      "stateMutability": "nonpayable",
      "type": "function"
    }
  ],
  "bytecode": "0x6080604052600160045534801561001557600080fd5b5060006100266100c960201b60201c565b9050806000806101000a81548173ffffffffffffffffffffffffffffffffffffffff021916908373ffffffffffffffffffffffffffffffffffffffff1602179055508073ffffffffffffffffffffffffffffffffffffffff16600073ffffffffffffffffffffffffffffffffffffffff167f8be0079c531659141344cd1fd0a4f28419497f9722a3daafe3b4186f6b6457e060405160405180910390a3506100d1565b600033905090565b611f50806100e06000396000f3fe6080604052600436106101225760003560e01c80638da5cb5b116100a0578063bbdaa3c911610064578063bbdaa3c9146104c8578063da742228146104f3578063df463a661461051c578063f2fde38b14610547578063f9c002f71461057057610249565b80638da5cb5b146103f3578063921276ea1461041e578063a5dcd07b14610449578063b039a88f14610472578063b90b41cf1461049d57610249565b8063715018a6116100e7578063715018a61461033457806374e861d61461034b57806376fa01c3146103765780637bb052641461039f5780637da0a877146103c857610249565b8062be5dd41461024e578063144fa6d71461028c5780632afe31c1146102b55780632d14c4b7146102e05780635c5e3db11461030957610249565b3661024957600073ffffffffffffffffffffffffffffffffffffffff16600160009054906101000a900473ffffffffffffffffffffffffffffffffffffffff1673ffffffffffffffffffffffffffffffffffffffff1614156101b9576040517f08c379a00000000000000000000000000000000000000000000000000000000081526004016101b090611b91565b60405180910390fd5b600160009054906101000a900473ffffffffffffffffffffffffffffffffffffffff1673ffffffffffffffffffffffffffffffffffffffff1663aa67c91934306040518363ffffffff1660e01b81526004016102159190611a69565b6000604051808303818588803b15801561022e57600080fd5b505af1158015610242573d6000803e3d6000fd5b5050505050005b600080fd5b34801561025a57600080fd5b5061027560048036038101906102709190611618565b61059b565b604051610283929190611ae4565b60405180910390f35b34801561029857600080fd5b506102b360048036038101906102ae91906115ae565b6107c9565b005b3480156102c157600080fd5b506102ca61080d565b6040516102d79190611c2c565b60405180910390f35b3480156102ec57600080fd5b50610307600480360381019061030291906116f4565b6108bf565b005b34801561031557600080fd5b5061031e610a00565b60405161032b9190611c2c565b60405180910390f35b34801561034057600080fd5b50610349610a06565b005b34801561035757600080fd5b50610360610b73565b60405161036d9190611a4e565b60405180910390f35b34801561038257600080fd5b5061039d600480360381019061039891906114c4565b610b9d565b005b3480156103ab57600080fd5b506103c660048036038101906103c19190611585565b610ba4565b005b3480156103d457600080fd5b506103dd610c97565b6040516103ea9190611b14565b60405180910390f35b3480156103ff57600080fd5b50610408610cbd565b6040516104159190611a4e565b60405180910390f35b34801561042a57600080fd5b50610433610ce6565b6040516104409190611b2f565b60405180910390f35b34801561045557600080fd5b50610470600480360381019061046b91906115d7565b610d06565b005b34801561047e57600080fd5b50610487610dc3565b6040516104949190611c11565b60405180910390f35b3480156104a957600080fd5b506104b2610e00565b6040516104bf9190611c2c565b60405180910390f35b3480156104d457600080fd5b506104dd610e06565b6040516104ea9190611c2c565b60405180910390f35b3480156104ff57600080fd5b5061051a6004803603810190610515919061155c565b610e0d565b005b34801561052857600080fd5b50610531610f00565b60405161053e9190611c2c565b60405180910390f35b34801561055357600080fd5b5061056e60048036038101906105699190611472565b610f0b565b005b34801561057c57600080fd5b506105856110fd565b6040516105929190611c2c565b60405180910390f35b60606000600454600360009054906101000a900473ffffffffffffffffffffffffffffffffffffffff1673ffffffffffffffffffffffffffffffffffffffff1663dd62ed3e8a80600001906105f09190611c70565b60000160208101906106029190611472565b306040518363ffffffff1660e01b8152600401610620929190611a84565b60206040518083038186803b15801561063857600080fd5b505afa15801561064c573d6000803e3d6000fd5b505050506040513d601f19601f8201168201806040525081019061067091906116cb565b10156106b1576040517f08c379a00000000000000000000000000000000000000000000000000000000081526004016106a890611bd1565b60405180910390fd5b600360009054906101000a900473ffffffffffffffffffffffffffffffffffffffff1673ffffffffffffffffffffffffffffffffffffffff166323b872dd8980600001906106ff9190611c70565b60000160208101906107119190611472565b8a80600001906107219190611c70565b60200160208101906107339190611472565b6004546040518463ffffffff1660e01b815260040161075493929190611aad565b602060405180830381600087803b15801561076e57600080fd5b505af1158015610782573d6000803e3d6000fd5b505050506040513d601f19601f820116820180604052508101906107a6919061149b565b506000604051806020016040528060008152509091509150965096945050505050565b80600360006101000a81548173ffffffffffffffffffffffffffffffffffffffff021916908373ffffffffffffffffffffffffffffffffffffffff16021790555050565b6000600160009054906101000a900473ffffffffffffffffffffffffffffffffffffffff1673ffffffffffffffffffffffffffffffffffffffff166370a08231306040518263ffffffff1660e01b815260040161086a9190611a69565b60206040518083038186803b15801561088257600080fd5b505afa158015610896573d6000803e3d6000fd5b505050506040513d601f19601f820116820180604052508101906108ba91906116cb565b905090565b6108c7611104565b73ffffffffffffffffffffffffffffffffffffffff166108e5610cbd565b73ffffffffffffffffffffffffffffffffffffffff161461096e576040517f08c379a00000000000000000000000000000000000000000000000000000000081526004018080602001828103825260208152602001807f4f776e61626c653a2063616c6c6572206973206e6f7420746865206f776e657281525060200191505060405180910390fd5b600160009054906101000a900473ffffffffffffffffffffffffffffffffffffffff1673ffffffffffffffffffffffffffffffffffffffff1662f714ce83836040518363ffffffff1660e01b81526004016109ca929190611c47565b600060405180830381600087803b1580156109e457600080fd5b505af11580156109f8573d6000803e3d6000fd5b505050505050565b61290481565b610a0e611104565b73ffffffffffffffffffffffffffffffffffffffff16610a2c610cbd565b73ffffffffffffffffffffffffffffffffffffffff1614610ab5576040517f08c379a00000000000000000000000000000000000000000000000000000000081526004018080602001828103825260208152602001807f4f776e61626c653a2063616c6c6572206973206e6f7420746865206f776e657281525060200191505060405180910390fd5b600073ffffffffffffffffffffffffffffffffffffffff1660008054906101000a900473ffffffffffffffffffffffffffffffffffffffff1673ffffffffffffffffffffffffffffffffffffffff167f8be0079c531659141344cd1fd0a4f28419497f9722a3daafe3b4186f6b6457e060405160405180910390a360008060006101000a81548173ffffffffffffffffffffffffffffffffffffffff021916908373ffffffffffffffffffffffffffffffffffffffff160217905550565b6000600160009054906101000a900473ffffffffffffffffffffffffffffffffffffffff16905090565b5050505050565b610bac611104565b73ffffffffffffffffffffffffffffffffffffffff16610bca610cbd565b73ffffffffffffffffffffffffffffffffffffffff1614610c53576040517f08c379a00000000000000000000000000000000000000000000000000000000081526004018080602001828103825260208152602001807f4f776e61626c653a2063616c6c6572206973206e6f7420746865206f776e657281525060200191505060405180910390fd5b80600160006101000a81548173ffffffffffffffffffffffffffffffffffffffff021916908373ffffffffffffffffffffffffffffffffffffffff16021790555050565b600260009054906101000a900473ffffffffffffffffffffffffffffffffffffffff1681565b60008060009054906101000a900473ffffffffffffffffffffffffffffffffffffffff16905090565b6060604051806060016040528060298152602001611ecc60299139905090565b808060200190610d169190611c94565b60a0016020810190610d289190611472565b73ffffffffffffffffffffffffffffffffffffffff16600260009054906101000a900473ffffffffffffffffffffffffffffffffffffffff1673ffffffffffffffffffffffffffffffffffffffff1614610db7576040517f08c379a0000000000000000000000000000000000000000000000000000000008152600401610dae90611bb1565b60405180910390fd5b610dc08161110c565b50565b610dcb61130c565b604051806080016040528061c350620186a0018152602001620186a081526020016201adb08152602001612904815250905090565b61c35081565b6201adb081565b610e15611104565b73ffffffffffffffffffffffffffffffffffffffff16610e33610cbd565b73ffffffffffffffffffffffffffffffffffffffff1614610ebc576040517f08c379a00000000000000000000000000000000000000000000000000000000081526004018080602001828103825260208152602001807f4f776e61626c653a2063616c6c6572206973206e6f7420746865206f776e657281525060200191505060405180910390fd5b80600260006101000a81548173ffffffffffffffffffffffffffffffffffffffff021916908373ffffffffffffffffffffffffffffffffffffffff16021790555050565b61c350620186a00181565b610f13611104565b73ffffffffffffffffffffffffffffffffffffffff16610f31610cbd565b73ffffffffffffffffffffffffffffffffffffffff1614610fba576040517f08c379a00000000000000000000000000000000000000000000000000000000081526004018080602001828103825260208152602001807f4f776e61626c653a2063616c6c6572206973206e6f7420746865206f776e657281525060200191505060405180910390fd5b600073ffffffffffffffffffffffffffffffffffffffff168173ffffffffffffffffffffffffffffffffffffffff161415611040576040517f08c379a0000000000000000000000000000000000000000000000000000000008152600401808060200182810382526026815260200180611ef56026913960400191505060405180910390fd5b8073ffffffffffffffffffffffffffffffffffffffff1660008054906101000a900473ffffffffffffffffffffffffffffffffffffffff1673ffffffffffffffffffffffffffffffffffffffff167f8be0079c531659141344cd1fd0a4f28419497f9722a3daafe3b4186f6b6457e060405160405180910390a3806000806101000a81548173ffffffffffffffffffffffffffffffffffffffff021916908373ffffffffffffffffffffffffffffffffffffffff16021790555050565b620186a081565b600033905090565b60008082806000019061111f9190611c70565b60200160208101906111319190611472565b73ffffffffffffffffffffffffffffffffffffffff1663572b6c0560e01b84806020019061115f9190611c94565b60a00160208101906111719190611472565b6040516024016111819190611a4e565b604051602081830303815290604052907bffffffffffffffffffffffffffffffffffffffffffffffffffffffff19166020820180517bffffffffffffffffffffffffffffffffffffffffffffffffffffffff83818316178352505050506040516111eb9190611a37565b600060405180830381855afa9150503d8060008114611226576040519150601f19603f3d011682016040523d82523d6000602084013e61122b565b606091505b509150915081611270576040517f08c379a000000000000000000000000000000000000000000000000000000000815260040161126790611b71565b60405180910390fd5b60208151146112b4576040517f08c379a00000000000000000000000000000000000000000000000000000000081526004016112ab90611bf1565b60405180910390fd5b808060200190518101906112c8919061149b565b611307576040517f08c379a00000000000000000000000000000000000000000000000000000000081526004016112fe90611b51565b60405180910390fd5b505050565b6040518060800160405280600081526020016000815260200160008152602001600081525090565b60008135905061134381611e2a565b92915050565b60008135905061135881611e41565b92915050565b60008135905061136d81611e58565b92915050565b60008151905061138281611e58565b92915050565b60008083601f84011261139a57600080fd5b8235905067ffffffffffffffff8111156113b357600080fd5b6020830191508360018202830111156113cb57600080fd5b9250929050565b6000813590506113e181611e6f565b92915050565b6000813590506113f681611e86565b92915050565b60008135905061140b81611e9d565b92915050565b6000610100828403121561142457600080fd5b81905092915050565b60006040828403121561143f57600080fd5b81905092915050565b60008135905061145781611eb4565b92915050565b60008151905061146c81611eb4565b92915050565b60006020828403121561148457600080fd5b600061149284828501611334565b91505092915050565b6000602082840312156114ad57600080fd5b60006114bb84828501611373565b91505092915050565b6000806000806000608086880312156114dc57600080fd5b600086013567ffffffffffffffff8111156114f657600080fd5b61150288828901611388565b955095505060206115158882890161135e565b935050604061152688828901611448565b925050606086013567ffffffffffffffff81111561154357600080fd5b61154f88828901611411565b9150509295509295909350565b60006020828403121561156e57600080fd5b600061157c848285016113d2565b91505092915050565b60006020828403121561159757600080fd5b60006115a5848285016113e7565b91505092915050565b6000602082840312156115c057600080fd5b60006115ce848285016113fc565b91505092915050565b6000602082840312156115e957600080fd5b600082013567ffffffffffffffff81111561160357600080fd5b61160f8482850161142d565b91505092915050565b6000806000806000806080878903121561163157600080fd5b600087013567ffffffffffffffff81111561164b57600080fd5b61165789828a0161142d565b965050602087013567ffffffffffffffff81111561167457600080fd5b61168089828a01611388565b9550955050604087013567ffffffffffffffff81111561169f57600080fd5b6116ab89828a01611388565b935093505060606116be89828a01611448565b9150509295509295509295565b6000602082840312156116dd57600080fd5b60006116eb8482850161145d565b91505092915050565b6000806040838503121561170757600080fd5b600061171585828601611448565b925050602061172685828601611349565b9150509250929050565b61173981611d8c565b82525050565b61174881611d0e565b82525050565b61175781611cfc565b82525050565b61176681611d20565b82525050565b600061177782611cb9565b6117818185611ccf565b9350611791818560208601611de6565b61179a81611e19565b840191505092915050565b60006117b082611cb9565b6117ba8185611ce0565b93506117ca818560208601611de6565b80840191505092915050565b6117df81611d9e565b82525050565b60006117f082611cc4565b6117fa8185611ceb565b935061180a818560208601611de6565b61181381611e19565b840191505092915050565b600061182b601f83611ceb565b91507f696e76616c696420666f7277617264657220666f7220726563697069656e74006000830152602082019050919050565b600061186b601c83611ceb565b91507f697354727573746564466f727761726465723a207265766572746564000000006000830152602082019050919050565b60006118ab601983611ceb565b91507f72656c6179206875622061646472657373206e6f7420736574000000000000006000830152602082019050919050565b60006118eb601883611ceb565b91507f466f72776172646572206973206e6f74207472757374656400000000000000006000830152602082019050919050565b600061192b602c83611ceb565b91507f5041594d415354455220444f4553204e4f54204841564520574954484452415760008301527f4c205045524d495353494f4e00000000000000000000000000000000000000006020830152604082019050919050565b6000611991602083611ceb565b91507f697354727573746564466f727761726465723a2062616420726573706f6e73656000830152602082019050919050565b6080820160008201516119da6000850182611a19565b5060208201516119ed6020850182611a19565b506040820151611a006040850182611a19565b506060820151611a136060850182611a19565b50505050565b611a2281611d82565b82525050565b611a3181611d82565b82525050565b6000611a4382846117a5565b915081905092915050565b6000602082019050611a63600083018461174e565b92915050565b6000602082019050611a7e6000830184611730565b92915050565b6000604082019050611a99600083018561174e565b611aa66020830184611730565b9392505050565b6000606082019050611ac2600083018661174e565b611acf602083018561174e565b611adc6040830184611a28565b949350505050565b60006040820190508181036000830152611afe818561176c565b9050611b0d602083018461175d565b9392505050565b6000602082019050611b2960008301846117d6565b92915050565b60006020820190508181036000830152611b4981846117e5565b905092915050565b60006020820190508181036000830152611b6a8161181e565b9050919050565b60006020820190508181036000830152611b8a8161185e565b9050919050565b60006020820190508181036000830152611baa8161189e565b9050919050565b60006020820190508181036000830152611bca816118de565b9050919050565b60006020820190508181036000830152611bea8161191e565b9050919050565b60006020820190508181036000830152611c0a81611984565b9050919050565b6000608082019050611c2660008301846119c4565b92915050565b6000602082019050611c416000830184611a28565b92915050565b6000604082019050611c5c6000830185611a28565b611c69602083018461173f565b9392505050565b60008235600160e003833603038112611c8857600080fd5b80830191505092915050565b60008235600161010003833603038112611cad57600080fd5b80830191505092915050565b600081519050919050565b600081519050919050565b600082825260208201905092915050565b600081905092915050565b600082825260208201905092915050565b6000611d0782611d62565b9050919050565b6000611d1982611d62565b9050919050565b60008115159050919050565b6000611d3782611cfc565b9050919050565b6000611d4982611cfc565b9050919050565b6000611d5b82611cfc565b9050919050565b600073ffffffffffffffffffffffffffffffffffffffff82169050919050565b6000819050919050565b6000611d9782611dc2565b9050919050565b6000611da982611db0565b9050919050565b6000611dbb82611d62565b9050919050565b6000611dcd82611dd4565b9050919050565b6000611ddf82611d62565b9050919050565b60005b83811015611e04578082015181840152602081019050611de9565b83811115611e13576000848401525b50505050565b6000601f19601f8301169050919050565b611e3381611cfc565b8114611e3e57600080fd5b50565b611e4a81611d0e565b8114611e5557600080fd5b50565b611e6181611d20565b8114611e6c57600080fd5b50565b611e7881611d2c565b8114611e8357600080fd5b50565b611e8f81611d3e565b8114611e9a57600080fd5b50565b611ea681611d50565b8114611eb157600080fd5b50565b611ebd81611d82565b8114611ec857600080fd5b5056fe322e322e302b6f70656e67736e2e61636365707465766572797468696e672e697061796d61737465724f776e61626c653a206e6577206f776e657220697320746865207a65726f2061646472657373a26469706673582212205cc2a1ce98aa49a0a1ff373b269cee7b3e792ed716f2b2f4b6784dbf12755dd364736f6c63430007060033",
  "immutableReferences": {},
  "source": "/**\r\n * SPDX-License-Identifier:MIT\r\n */\r\npragma solidity ^0.7.6;\r\npragma experimental ABIEncoderV2;\r\n\r\nimport \"@opengsn/paymasters/contracts/AcceptEverythingPaymaster.sol\";\r\nimport \"./TokenBank.sol\";\r\n\r\ncontract NoFeePaymaster is AcceptEverythingPaymaster {\r\n\r\n    \r\n\r\n\r\n    Token private token;\r\n    uint private AMOUNT = 1;\r\n\r\n    function setToken(Token _token) public {\r\n        token = _token;\r\n    }\r\n\r\n\r\n    function preRelayedCall(\r\n        GsnTypes.RelayRequest calldata relayRequest,\r\n        bytes calldata signature,\r\n        bytes calldata approvalData,\r\n        uint256 maxPossibleGas\r\n    )\r\n    external\r\n    override\r\n    virtual\r\n    returns (bytes memory context, bool revertOnRecipientRevert) {\r\n        (relayRequest, signature, approvalData, maxPossibleGas);\r\n\r\n        require(token.allowance(relayRequest.request.from,address(this)) >= AMOUNT,\"PAYMASTER DOES NOT HAVE WITHDRAWL PERMISSION\");\r\n        token.transferFrom(relayRequest.request.from,relayRequest.request.to,AMOUNT);        \r\n\r\n\r\n        return (\"\", false);\r\n    }\r\n\r\n\r\n\r\n}\r\n",
  "sourcePath": "C:\\Users\\nomif\\Desktop\\Programming\\Blockchain\\ethereum-gasless-transactions\\OpenGSN\\contracts\\NoFeePaymaster.sol",
  "compiler": {
    "name": "solc",
    "version": "0.7.6+commit.7338295f.Emscripten.clang"
  },
  "schemaVersion": "3.4.3",
  "updatedAt": "2021-11-27T10:04:12.218Z",
  "networkType": "ethereum",
  "devdoc": {
    "kind": "dev",
    "methods": {
      "owner()": {
        "details": "Returns the address of the current owner."
      },
      "postRelayedCall(bytes,bool,uint256,(uint256,uint256,uint256,address,address,address,bytes,uint256))": {
        "params": {
          "context": "- the call context, as returned by the preRelayedCall",
          "gasUseWithoutPost": "- the actual amount of gas used by the entire transaction, EXCEPT        the gas used by the postRelayedCall itself.",
          "relayData": "- the relay params of the request. can be used by relayHub.calculateCharge() Revert in this functions causes a revert of the client's relayed call (and preRelayedCall(), but the Paymaster is still committed to pay the relay for the entire transaction.",
          "success": "- true if the relayed call succeeded, false if it reverted"
        }
      },
      "preRelayedCall(((address,address,uint256,uint256,uint256,bytes,uint256),(uint256,uint256,uint256,address,address,address,bytes,uint256)),bytes,bytes,uint256)": {
        "params": {
          "approvalData": "- extra dapp-specific data (e.g. signature from trusted party)",
          "maxPossibleGas": "- based on values returned from {@link getGasAndDataLimits},         the RelayHub will calculate the maximum possible amount of gas the user may be charged for.         In order to convert this value to wei, the Paymaster has to call \"relayHub.calculateCharge()\"  return:      a context to be passed to postRelayedCall      rejectOnRecipientRevert - TRUE if paymaster want to reject the TX if the recipient reverts.          FALSE means that rejects by the recipient will be completed on chain, and paid by the paymaster.          (note that in the latter case, the preRelayedCall and postRelayedCall are not reverted).",
          "relayRequest": "- the full relay request structure",
          "signature": "- user's EIP712-compatible signature of the {@link relayRequest}.              Note that in most cases the paymaster shouldn't try use it at all. It is always checked              by the forwarder immediately after preRelayedCall returns."
        }
      },
      "renounceOwnership()": {
        "details": "Leaves the contract without owner. It will not be possible to call `onlyOwner` functions anymore. Can only be called by the current owner. NOTE: Renouncing ownership will leave the contract without an owner, thereby removing any functionality that is only available to the owner."
      },
      "transferOwnership(address)": {
        "details": "Transfers ownership of the contract to a new account (`newOwner`). Can only be called by the current owner."
      }
    },
    "version": 1
  },
  "userdoc": {
    "kind": "user",
    "methods": {
      "getGasAndDataLimits()": {
        "notice": "Return the Gas Limits and msg.data max size constants used by the Paymaster."
      },
      "getHubAddr()": {
        "notice": "return the relayHub of this contract."
      },
      "getRelayHubDeposit()": {
        "notice": "check current deposit on relay hub."
      },
      "postRelayedCall(bytes,bool,uint256,(uint256,uint256,uint256,address,address,address,bytes,uint256))": {
        "notice": "This method is called after the actual relayed function call. It may be used to record the transaction (e.g. charge the caller by some contract logic) for this call. MUST be protected with relayHubOnly() in case it modifies state."
      },
      "preRelayedCall(((address,address,uint256,uint256,uint256,bytes,uint256),(uint256,uint256,uint256,address,address,address,bytes,uint256)),bytes,bytes,uint256)": {
        "notice": "Called by Relay (and RelayHub), to validate if the paymaster agrees to pay for this call. MUST be protected with relayHubOnly() in case it modifies state. The Paymaster rejects by the following \"revert\" operations  - preRelayedCall() method reverts  - the forwarder reverts because of nonce or signature error  - the paymaster returned \"rejectOnRecipientRevert\", and the recipient contract reverted. In any of the above cases, all paymaster calls (and recipient call) are reverted. In any other case, the paymaster agrees to pay for the gas cost of the transaction (note  that this includes also postRelayedCall revert) The rejectOnRecipientRevert flag means the Paymaster \"delegate\" the rejection to the recipient  code.  It also means the Paymaster trust the recipient to reject fast: both preRelayedCall,  forwarder check and receipient checks must fit into the GasLimits.acceptanceBudget,  otherwise the TX is paid by the Paymaster."
      },
      "withdrawRelayHubDepositTo(uint256,address)": {
        "notice": "withdraw deposit from relayHub"
      }
    },
    "version": 1
  }
}