{
  "contractName": "NoFeePaymaster",
  "abi": [
    {
      "anonymous": false,
      "inputs": [
        {
          "indexed": true,
          "internalType": "address",
          "name": "previousOwner",
          "type": "address"
        },
        {
          "indexed": true,
          "internalType": "address",
          "name": "newOwner",
          "type": "address"
        }
      ],
      "name": "OwnershipTransferred",
      "type": "event"
    },
    {
      "inputs": [],
      "name": "CALLDATA_SIZE_LIMIT",
      "outputs": [
        {
          "internalType": "uint256",
          "name": "",
          "type": "uint256"
        }
      ],
      "stateMutability": "view",
      "type": "function",
      "constant": true
    },
    {
      "inputs": [],
      "name": "FORWARDER_HUB_OVERHEAD",
      "outputs": [
        {
          "internalType": "uint256",
          "name": "",
          "type": "uint256"
        }
      ],
      "stateMutability": "view",
      "type": "function",
      "constant": true
    },
    {
      "inputs": [],
      "name": "PAYMASTER_ACCEPTANCE_BUDGET",
      "outputs": [
        {
          "internalType": "uint256",
          "name": "",
          "type": "uint256"
        }
      ],
      "stateMutability": "view",
      "type": "function",
      "constant": true
    },
    {
      "inputs": [],
      "name": "POST_RELAYED_CALL_GAS_LIMIT",
      "outputs": [
        {
          "internalType": "uint256",
          "name": "",
          "type": "uint256"
        }
      ],
      "stateMutability": "view",
      "type": "function",
      "constant": true
    },
    {
      "inputs": [],
      "name": "PRE_RELAYED_CALL_GAS_LIMIT",
      "outputs": [
        {
          "internalType": "uint256",
          "name": "",
          "type": "uint256"
        }
      ],
      "stateMutability": "view",
      "type": "function",
      "constant": true
    },
    {
      "inputs": [
        {
          "components": [
            {
              "components": [
                {
                  "internalType": "address",
                  "name": "from",
                  "type": "address"
                },
                {
                  "internalType": "address",
                  "name": "to",
                  "type": "address"
                },
                {
                  "internalType": "uint256",
                  "name": "value",
                  "type": "uint256"
                },
                {
                  "internalType": "uint256",
                  "name": "gas",
                  "type": "uint256"
                },
                {
                  "internalType": "uint256",
                  "name": "nonce",
                  "type": "uint256"
                },
                {
                  "internalType": "bytes",
                  "name": "data",
                  "type": "bytes"
                },
                {
                  "internalType": "uint256",
                  "name": "validUntil",
                  "type": "uint256"
                }
              ],
              "internalType": "struct IForwarder.ForwardRequest",
              "name": "request",
              "type": "tuple"
            },
            {
              "components": [
                {
                  "internalType": "uint256",
                  "name": "gasPrice",
                  "type": "uint256"
                },
                {
                  "internalType": "uint256",
                  "name": "pctRelayFee",
                  "type": "uint256"
                },
                {
                  "internalType": "uint256",
                  "name": "baseRelayFee",
                  "type": "uint256"
                },
                {
                  "internalType": "address",
                  "name": "relayWorker",
                  "type": "address"
                },
                {
                  "internalType": "address",
                  "name": "paymaster",
                  "type": "address"
                },
                {
                  "internalType": "address",
                  "name": "forwarder",
                  "type": "address"
                },
                {
                  "internalType": "bytes",
                  "name": "paymasterData",
                  "type": "bytes"
                },
                {
                  "internalType": "uint256",
                  "name": "clientId",
                  "type": "uint256"
                }
              ],
              "internalType": "struct GsnTypes.RelayData",
              "name": "relayData",
              "type": "tuple"
            }
          ],
          "internalType": "struct GsnTypes.RelayRequest",
          "name": "relayRequest",
          "type": "tuple"
        }
      ],
      "name": "_verifyForwarder",
      "outputs": [],
      "stateMutability": "view",
      "type": "function",
      "constant": true
    },
    {
      "inputs": [],
      "name": "getGasAndDataLimits",
      "outputs": [
        {
          "components": [
            {
              "internalType": "uint256",
              "name": "acceptanceBudget",
              "type": "uint256"
            },
            {
              "internalType": "uint256",
              "name": "preRelayedCallGasLimit",
              "type": "uint256"
            },
            {
              "internalType": "uint256",
              "name": "postRelayedCallGasLimit",
              "type": "uint256"
            },
            {
              "internalType": "uint256",
              "name": "calldataSizeLimit",
              "type": "uint256"
            }
          ],
          "internalType": "struct IPaymaster.GasAndDataLimits",
          "name": "limits",
          "type": "tuple"
        }
      ],
      "stateMutability": "view",
      "type": "function",
      "constant": true
    },
    {
      "inputs": [],
      "name": "getHubAddr",
      "outputs": [
        {
          "internalType": "address",
          "name": "",
          "type": "address"
        }
      ],
      "stateMutability": "view",
      "type": "function",
      "constant": true
    },
    {
      "inputs": [],
      "name": "getRelayHubDeposit",
      "outputs": [
        {
          "internalType": "uint256",
          "name": "",
          "type": "uint256"
        }
      ],
      "stateMutability": "view",
      "type": "function",
      "constant": true
    },
    {
      "inputs": [],
      "name": "owner",
      "outputs": [
        {
          "internalType": "address",
          "name": "",
          "type": "address"
        }
      ],
      "stateMutability": "view",
      "type": "function",
      "constant": true
    },
    {
      "inputs": [
        {
          "internalType": "bytes",
          "name": "context",
          "type": "bytes"
        },
        {
          "internalType": "bool",
          "name": "success",
          "type": "bool"
        },
        {
          "internalType": "uint256",
          "name": "gasUseWithoutPost",
          "type": "uint256"
        },
        {
          "components": [
            {
              "internalType": "uint256",
              "name": "gasPrice",
              "type": "uint256"
            },
            {
              "internalType": "uint256",
              "name": "pctRelayFee",
              "type": "uint256"
            },
            {
              "internalType": "uint256",
              "name": "baseRelayFee",
              "type": "uint256"
            },
            {
              "internalType": "address",
              "name": "relayWorker",
              "type": "address"
            },
            {
              "internalType": "address",
              "name": "paymaster",
              "type": "address"
            },
            {
              "internalType": "address",
              "name": "forwarder",
              "type": "address"
            },
            {
              "internalType": "bytes",
              "name": "paymasterData",
              "type": "bytes"
            },
            {
              "internalType": "uint256",
              "name": "clientId",
              "type": "uint256"
            }
          ],
          "internalType": "struct GsnTypes.RelayData",
          "name": "relayData",
          "type": "tuple"
        }
      ],
      "name": "postRelayedCall",
      "outputs": [],
      "stateMutability": "nonpayable",
      "type": "function"
    },
    {
      "inputs": [],
      "name": "renounceOwnership",
      "outputs": [],
      "stateMutability": "nonpayable",
      "type": "function"
    },
    {
      "inputs": [
        {
          "internalType": "address",
          "name": "",
          "type": "address"
        }
      ],
      "name": "senderWhitelist",
      "outputs": [
        {
          "internalType": "bool",
          "name": "",
          "type": "bool"
        }
      ],
      "stateMutability": "view",
      "type": "function",
      "constant": true
    },
    {
      "inputs": [
        {
          "internalType": "contract IRelayHub",
          "name": "hub",
          "type": "address"
        }
      ],
      "name": "setRelayHub",
      "outputs": [],
      "stateMutability": "nonpayable",
      "type": "function"
    },
    {
      "inputs": [
        {
          "internalType": "contract IForwarder",
          "name": "forwarder",
          "type": "address"
        }
      ],
      "name": "setTrustedForwarder",
      "outputs": [],
      "stateMutability": "nonpayable",
      "type": "function"
    },
    {
      "inputs": [
        {
          "internalType": "address",
          "name": "",
          "type": "address"
        }
      ],
      "name": "targetWhitelist",
      "outputs": [
        {
          "internalType": "bool",
          "name": "",
          "type": "bool"
        }
      ],
      "stateMutability": "view",
      "type": "function",
      "constant": true
    },
    {
      "inputs": [
        {
          "internalType": "address",
          "name": "newOwner",
          "type": "address"
        }
      ],
      "name": "transferOwnership",
      "outputs": [],
      "stateMutability": "nonpayable",
      "type": "function"
    },
    {
      "inputs": [],
      "name": "trustedForwarder",
      "outputs": [
        {
          "internalType": "contract IForwarder",
          "name": "",
          "type": "address"
        }
      ],
      "stateMutability": "view",
      "type": "function",
      "constant": true
    },
    {
      "inputs": [],
      "name": "useSenderWhitelist",
      "outputs": [
        {
          "internalType": "bool",
          "name": "",
          "type": "bool"
        }
      ],
      "stateMutability": "view",
      "type": "function",
      "constant": true
    },
    {
      "inputs": [],
      "name": "useTargetWhitelist",
      "outputs": [
        {
          "internalType": "bool",
          "name": "",
          "type": "bool"
        }
      ],
      "stateMutability": "view",
      "type": "function",
      "constant": true
    },
    {
      "inputs": [],
      "name": "versionPaymaster",
      "outputs": [
        {
          "internalType": "string",
          "name": "",
          "type": "string"
        }
      ],
      "stateMutability": "view",
      "type": "function",
      "constant": true
    },
    {
      "inputs": [
        {
          "internalType": "uint256",
          "name": "amount",
          "type": "uint256"
        },
        {
          "internalType": "address payable",
          "name": "target",
          "type": "address"
        }
      ],
      "name": "withdrawRelayHubDepositTo",
      "outputs": [],
      "stateMutability": "nonpayable",
      "type": "function"
    },
    {
      "stateMutability": "payable",
      "type": "receive",
      "payable": true
    },
    {
      "inputs": [
        {
          "internalType": "contract Token",
          "name": "_token",
          "type": "address"
        }
      ],
      "name": "setToken",
      "outputs": [],
      "stateMutability": "nonpayable",
      "type": "function"
    },
    {
      "inputs": [
        {
          "internalType": "address",
          "name": "sender",
          "type": "address"
        }
      ],
      "name": "whitelistSender",
      "outputs": [],
      "stateMutability": "nonpayable",
      "type": "function"
    },
    {
      "inputs": [
        {
          "internalType": "address",
          "name": "target",
          "type": "address"
        }
      ],
      "name": "whitelistTarget",
      "outputs": [],
      "stateMutability": "nonpayable",
      "type": "function"
    },
    {
      "inputs": [
        {
          "components": [
            {
              "components": [
                {
                  "internalType": "address",
                  "name": "from",
                  "type": "address"
                },
                {
                  "internalType": "address",
                  "name": "to",
                  "type": "address"
                },
                {
                  "internalType": "uint256",
                  "name": "value",
                  "type": "uint256"
                },
                {
                  "internalType": "uint256",
                  "name": "gas",
                  "type": "uint256"
                },
                {
                  "internalType": "uint256",
                  "name": "nonce",
                  "type": "uint256"
                },
                {
                  "internalType": "bytes",
                  "name": "data",
                  "type": "bytes"
                },
                {
                  "internalType": "uint256",
                  "name": "validUntil",
                  "type": "uint256"
                }
              ],
              "internalType": "struct IForwarder.ForwardRequest",
              "name": "request",
              "type": "tuple"
            },
            {
              "components": [
                {
                  "internalType": "uint256",
                  "name": "gasPrice",
                  "type": "uint256"
                },
                {
                  "internalType": "uint256",
                  "name": "pctRelayFee",
                  "type": "uint256"
                },
                {
                  "internalType": "uint256",
                  "name": "baseRelayFee",
                  "type": "uint256"
                },
                {
                  "internalType": "address",
                  "name": "relayWorker",
                  "type": "address"
                },
                {
                  "internalType": "address",
                  "name": "paymaster",
                  "type": "address"
                },
                {
                  "internalType": "address",
                  "name": "forwarder",
                  "type": "address"
                },
                {
                  "internalType": "bytes",
                  "name": "paymasterData",
                  "type": "bytes"
                },
                {
                  "internalType": "uint256",
                  "name": "clientId",
                  "type": "uint256"
                }
              ],
              "internalType": "struct GsnTypes.RelayData",
              "name": "relayData",
              "type": "tuple"
            }
          ],
          "internalType": "struct GsnTypes.RelayRequest",
          "name": "relayRequest",
          "type": "tuple"
        },
        {
          "internalType": "bytes",
          "name": "signature",
          "type": "bytes"
        },
        {
          "internalType": "bytes",
          "name": "approvalData",
          "type": "bytes"
        },
        {
          "internalType": "uint256",
          "name": "maxPossibleGas",
          "type": "uint256"
        }
      ],
      "name": "preRelayedCall",
      "outputs": [
        {
          "internalType": "bytes",
          "name": "context",
          "type": "bytes"
        },
        {
          "internalType": "bool",
          "name": "revertOnRecipientRevert",
          "type": "bool"
        }
      ],
      "stateMutability": "nonpayable",
      "type": "function"
    }
  ],
  "bytecode": "0x608060405234801561001057600080fd5b5060006100216100c460201b60201c565b9050806000806101000a81548173ffffffffffffffffffffffffffffffffffffffff021916908373ffffffffffffffffffffffffffffffffffffffff1602179055508073ffffffffffffffffffffffffffffffffffffffff16600073ffffffffffffffffffffffffffffffffffffffff167f8be0079c531659141344cd1fd0a4f28419497f9722a3daafe3b4186f6b6457e060405160405180910390a3506100cc565b600033905090565b612321806100db6000396000f3fe6080604052600436106101845760003560e01c80638222f07d116100d1578063b90b41cf1161008a578063dd1bcaa111610064578063dd1bcaa114610675578063df463a66146106a0578063f2fde38b146106cb578063f9c002f7146106f4576102ab565b8063b90b41cf146105f6578063bbdaa3c914610621578063da7422281461064c576102ab565b80638222f07d146104d2578063858437b01461050f5780638da5cb5b1461054c578063921276ea14610577578063a5dcd07b146105a2578063b039a88f146105cb576102ab565b80634f28bfb91161013e57806374e861d61161011857806374e861d61461042a57806376fa01c3146104555780637bb052641461047e5780637da0a877146104a7576102ab565b80634f28bfb9146103bd5780635c5e3db1146103e8578063715018a614610413576102ab565b8062be5dd4146102b0578063144fa6d7146102ee5780631cfda9fa146103175780632afe31c1146103405780632d14c4b71461036b5780632f10a6c614610394576102ab565b366102ab57600073ffffffffffffffffffffffffffffffffffffffff16600160009054906101000a900473ffffffffffffffffffffffffffffffffffffffff1673ffffffffffffffffffffffffffffffffffffffff16141561021b576040517f08c379a000000000000000000000000000000000000000000000000000000000815260040161021290611f70565b60405180910390fd5b600160009054906101000a900473ffffffffffffffffffffffffffffffffffffffff1673ffffffffffffffffffffffffffffffffffffffff1663aa67c91934306040518363ffffffff1660e01b81526004016102779190611e36565b6000604051808303818588803b15801561029057600080fd5b505af11580156102a4573d6000803e3d6000fd5b5050505050005b600080fd5b3480156102bc57600080fd5b506102d760048036038101906102d291906119fc565b61071f565b6040516102e5929190611ea3565b60405180910390f35b3480156102fa57600080fd5b5061031560048036038101906103109190611992565b6108fd565b005b34801561032357600080fd5b5061033e60048036038101906103399190611856565b610941565b005b34801561034c57600080fd5b50610355610a66565b6040516103629190611feb565b60405180910390f35b34801561037757600080fd5b50610392600480360381019061038d9190611ad8565b610b18565b005b3480156103a057600080fd5b506103bb60048036038101906103b69190611856565b610c59565b005b3480156103c957600080fd5b506103d2610d7e565b6040516103df9190611e88565b60405180910390f35b3480156103f457600080fd5b506103fd610d91565b60405161040a9190611feb565b60405180910390f35b34801561041f57600080fd5b50610428610d97565b005b34801561043657600080fd5b5061043f610f04565b60405161044c9190611e1b565b60405180910390f35b34801561046157600080fd5b5061047c600480360381019061047791906118a8565b610f2e565b005b34801561048a57600080fd5b506104a560048036038101906104a09190611969565b610f35565b005b3480156104b357600080fd5b506104bc611028565b6040516104c99190611ed3565b60405180910390f35b3480156104de57600080fd5b506104f960048036038101906104f49190611856565b61104e565b6040516105069190611e88565b60405180910390f35b34801561051b57600080fd5b5061053660048036038101906105319190611856565b61106e565b6040516105439190611e88565b60405180910390f35b34801561055857600080fd5b5061056161108e565b60405161056e9190611e1b565b60405180910390f35b34801561058357600080fd5b5061058c6110b7565b6040516105999190611eee565b60405180910390f35b3480156105ae57600080fd5b506105c960048036038101906105c491906119bb565b6110d7565b005b3480156105d757600080fd5b506105e0611194565b6040516105ed9190611fd0565b60405180910390f35b34801561060257600080fd5b5061060b6111d1565b6040516106189190611feb565b60405180910390f35b34801561062d57600080fd5b506106366111d7565b6040516106439190611feb565b60405180910390f35b34801561065857600080fd5b50610673600480360381019061066e9190611940565b6111de565b005b34801561068157600080fd5b5061068a6112d1565b6040516106979190611e88565b60405180910390f35b3480156106ac57600080fd5b506106b56112e4565b6040516106c29190611feb565b60405180910390f35b3480156106d757600080fd5b506106f260048036038101906106ed9190611856565b6112ef565b005b34801561070057600080fd5b506107096114e1565b6040516107169190611feb565b60405180910390f35b60606000600560009054906101000a900473ffffffffffffffffffffffffffffffffffffffff1673ffffffffffffffffffffffffffffffffffffffff166323b872dd898060000190610771919061202f565b60000160208101906107839190611856565b8a8060000190610793919061202f565b60200160208101906107a59190611856565b60016040518463ffffffff1660e01b81526004016107c593929190611e51565b602060405180830381600087803b1580156107df57600080fd5b505af11580156107f3573d6000803e3d6000fd5b505050506040513d601f19601f82011682018060405250810190610817919061187f565b50600260159054906101000a900460ff16156108db5760046000898060000190610841919061202f565b60200160208101906108539190611856565b73ffffffffffffffffffffffffffffffffffffffff1673ffffffffffffffffffffffffffffffffffffffff16815260200190815260200160002060009054906101000a900460ff166108da576040517f08c379a00000000000000000000000000000000000000000000000000000000081526004016108d190611f50565b60405180910390fd5b5b6000604051806020016040528060008152509091509150965096945050505050565b80600560006101000a81548173ffffffffffffffffffffffffffffffffffffffff021916908373ffffffffffffffffffffffffffffffffffffffff16021790555050565b6109496114e8565b73ffffffffffffffffffffffffffffffffffffffff1661096761108e565b73ffffffffffffffffffffffffffffffffffffffff16146109f0576040517f08c379a00000000000000000000000000000000000000000000000000000000081526004018080602001828103825260208152602001807f4f776e61626c653a2063616c6c6572206973206e6f7420746865206f776e657281525060200191505060405180910390fd5b6001600460008373ffffffffffffffffffffffffffffffffffffffff1673ffffffffffffffffffffffffffffffffffffffff16815260200190815260200160002060006101000a81548160ff0219169083151502179055506001600260156101000a81548160ff02191690831515021790555050565b6000600160009054906101000a900473ffffffffffffffffffffffffffffffffffffffff1673ffffffffffffffffffffffffffffffffffffffff166370a08231306040518263ffffffff1660e01b8152600401610ac39190611e36565b60206040518083038186803b158015610adb57600080fd5b505afa158015610aef573d6000803e3d6000fd5b505050506040513d601f19601f82011682018060405250810190610b139190611aaf565b905090565b610b206114e8565b73ffffffffffffffffffffffffffffffffffffffff16610b3e61108e565b73ffffffffffffffffffffffffffffffffffffffff1614610bc7576040517f08c379a00000000000000000000000000000000000000000000000000000000081526004018080602001828103825260208152602001807f4f776e61626c653a2063616c6c6572206973206e6f7420746865206f776e657281525060200191505060405180910390fd5b600160009054906101000a900473ffffffffffffffffffffffffffffffffffffffff1673ffffffffffffffffffffffffffffffffffffffff1662f714ce83836040518363ffffffff1660e01b8152600401610c23929190612006565b600060405180830381600087803b158015610c3d57600080fd5b505af1158015610c51573d6000803e3d6000fd5b505050505050565b610c616114e8565b73ffffffffffffffffffffffffffffffffffffffff16610c7f61108e565b73ffffffffffffffffffffffffffffffffffffffff1614610d08576040517f08c379a00000000000000000000000000000000000000000000000000000000081526004018080602001828103825260208152602001807f4f776e61626c653a2063616c6c6572206973206e6f7420746865206f776e657281525060200191505060405180910390fd5b6001600360008373ffffffffffffffffffffffffffffffffffffffff1673ffffffffffffffffffffffffffffffffffffffff16815260200190815260200160002060006101000a81548160ff0219169083151502179055506001600260146101000a81548160ff02191690831515021790555050565b600260159054906101000a900460ff1681565b61290481565b610d9f6114e8565b73ffffffffffffffffffffffffffffffffffffffff16610dbd61108e565b73ffffffffffffffffffffffffffffffffffffffff1614610e46576040517f08c379a00000000000000000000000000000000000000000000000000000000081526004018080602001828103825260208152602001807f4f776e61626c653a2063616c6c6572206973206e6f7420746865206f776e657281525060200191505060405180910390fd5b600073ffffffffffffffffffffffffffffffffffffffff1660008054906101000a900473ffffffffffffffffffffffffffffffffffffffff1673ffffffffffffffffffffffffffffffffffffffff167f8be0079c531659141344cd1fd0a4f28419497f9722a3daafe3b4186f6b6457e060405160405180910390a360008060006101000a81548173ffffffffffffffffffffffffffffffffffffffff021916908373ffffffffffffffffffffffffffffffffffffffff160217905550565b6000600160009054906101000a900473ffffffffffffffffffffffffffffffffffffffff16905090565b5050505050565b610f3d6114e8565b73ffffffffffffffffffffffffffffffffffffffff16610f5b61108e565b73ffffffffffffffffffffffffffffffffffffffff1614610fe4576040517f08c379a00000000000000000000000000000000000000000000000000000000081526004018080602001828103825260208152602001807f4f776e61626c653a2063616c6c6572206973206e6f7420746865206f776e657281525060200191505060405180910390fd5b80600160006101000a81548173ffffffffffffffffffffffffffffffffffffffff021916908373ffffffffffffffffffffffffffffffffffffffff16021790555050565b600260009054906101000a900473ffffffffffffffffffffffffffffffffffffffff1681565b60036020528060005260406000206000915054906101000a900460ff1681565b60046020528060005260406000206000915054906101000a900460ff1681565b60008060009054906101000a900473ffffffffffffffffffffffffffffffffffffffff16905090565b606060405180606001604052806029815260200161229d60299139905090565b8080602001906110e79190612053565b60a00160208101906110f99190611856565b73ffffffffffffffffffffffffffffffffffffffff16600260009054906101000a900473ffffffffffffffffffffffffffffffffffffffff1673ffffffffffffffffffffffffffffffffffffffff1614611188576040517f08c379a000000000000000000000000000000000000000000000000000000000815260040161117f90611f90565b60405180910390fd5b611191816114f0565b50565b61119c6116f0565b604051806080016040528061c350620186a0018152602001620186a081526020016201adb08152602001612904815250905090565b61c35081565b6201adb081565b6111e66114e8565b73ffffffffffffffffffffffffffffffffffffffff1661120461108e565b73ffffffffffffffffffffffffffffffffffffffff161461128d576040517f08c379a00000000000000000000000000000000000000000000000000000000081526004018080602001828103825260208152602001807f4f776e61626c653a2063616c6c6572206973206e6f7420746865206f776e657281525060200191505060405180910390fd5b80600260006101000a81548173ffffffffffffffffffffffffffffffffffffffff021916908373ffffffffffffffffffffffffffffffffffffffff16021790555050565b600260149054906101000a900460ff1681565b61c350620186a00181565b6112f76114e8565b73ffffffffffffffffffffffffffffffffffffffff1661131561108e565b73ffffffffffffffffffffffffffffffffffffffff161461139e576040517f08c379a00000000000000000000000000000000000000000000000000000000081526004018080602001828103825260208152602001807f4f776e61626c653a2063616c6c6572206973206e6f7420746865206f776e657281525060200191505060405180910390fd5b600073ffffffffffffffffffffffffffffffffffffffff168173ffffffffffffffffffffffffffffffffffffffff161415611424576040517f08c379a00000000000000000000000000000000000000000000000000000000081526004018080602001828103825260268152602001806122c66026913960400191505060405180910390fd5b8073ffffffffffffffffffffffffffffffffffffffff1660008054906101000a900473ffffffffffffffffffffffffffffffffffffffff1673ffffffffffffffffffffffffffffffffffffffff167f8be0079c531659141344cd1fd0a4f28419497f9722a3daafe3b4186f6b6457e060405160405180910390a3806000806101000a81548173ffffffffffffffffffffffffffffffffffffffff021916908373ffffffffffffffffffffffffffffffffffffffff16021790555050565b620186a081565b600033905090565b600080828060000190611503919061202f565b60200160208101906115159190611856565b73ffffffffffffffffffffffffffffffffffffffff1663572b6c0560e01b8480602001906115439190612053565b60a00160208101906115559190611856565b6040516024016115659190611e1b565b604051602081830303815290604052907bffffffffffffffffffffffffffffffffffffffffffffffffffffffff19166020820180517bffffffffffffffffffffffffffffffffffffffffffffffffffffffff83818316178352505050506040516115cf9190611e04565b600060405180830381855afa9150503d806000811461160a576040519150601f19603f3d011682016040523d82523d6000602084013e61160f565b606091505b509150915081611654576040517f08c379a000000000000000000000000000000000000000000000000000000000815260040161164b90611f30565b60405180910390fd5b6020815114611698576040517f08c379a000000000000000000000000000000000000000000000000000000000815260040161168f90611fb0565b60405180910390fd5b808060200190518101906116ac919061187f565b6116eb576040517f08c379a00000000000000000000000000000000000000000000000000000000081526004016116e290611f10565b60405180910390fd5b505050565b6040518060800160405280600081526020016000815260200160008152602001600081525090565b600081359050611727816121fb565b92915050565b60008135905061173c81612212565b92915050565b60008135905061175181612229565b92915050565b60008151905061176681612229565b92915050565b60008083601f84011261177e57600080fd5b8235905067ffffffffffffffff81111561179757600080fd5b6020830191508360018202830111156117af57600080fd5b9250929050565b6000813590506117c581612240565b92915050565b6000813590506117da81612257565b92915050565b6000813590506117ef8161226e565b92915050565b6000610100828403121561180857600080fd5b81905092915050565b60006040828403121561182357600080fd5b81905092915050565b60008135905061183b81612285565b92915050565b60008151905061185081612285565b92915050565b60006020828403121561186857600080fd5b600061187684828501611718565b91505092915050565b60006020828403121561189157600080fd5b600061189f84828501611757565b91505092915050565b6000806000806000608086880312156118c057600080fd5b600086013567ffffffffffffffff8111156118da57600080fd5b6118e68882890161176c565b955095505060206118f988828901611742565b935050604061190a8882890161182c565b925050606086013567ffffffffffffffff81111561192757600080fd5b611933888289016117f5565b9150509295509295909350565b60006020828403121561195257600080fd5b6000611960848285016117b6565b91505092915050565b60006020828403121561197b57600080fd5b6000611989848285016117cb565b91505092915050565b6000602082840312156119a457600080fd5b60006119b2848285016117e0565b91505092915050565b6000602082840312156119cd57600080fd5b600082013567ffffffffffffffff8111156119e757600080fd5b6119f384828501611811565b91505092915050565b60008060008060008060808789031215611a1557600080fd5b600087013567ffffffffffffffff811115611a2f57600080fd5b611a3b89828a01611811565b965050602087013567ffffffffffffffff811115611a5857600080fd5b611a6489828a0161176c565b9550955050604087013567ffffffffffffffff811115611a8357600080fd5b611a8f89828a0161176c565b93509350506060611aa289828a0161182c565b9150509295509295509295565b600060208284031215611ac157600080fd5b6000611acf84828501611841565b91505092915050565b60008060408385031215611aeb57600080fd5b6000611af98582860161182c565b9250506020611b0a8582860161172d565b9150509250929050565b611b1d8161214b565b82525050565b611b2c816120cd565b82525050565b611b3b816120bb565b82525050565b611b4a816120df565b82525050565b6000611b5b82612078565b611b65818561208e565b9350611b758185602086016121b7565b611b7e816121ea565b840191505092915050565b6000611b9482612078565b611b9e818561209f565b9350611bae8185602086016121b7565b80840191505092915050565b611bc38161215d565b82525050565b611bd281612181565b82525050565b6000611be382612083565b611bed81856120aa565b9350611bfd8185602086016121b7565b611c06816121ea565b840191505092915050565b6000611c1e601f836120aa565b91507f696e76616c696420666f7277617264657220666f7220726563697069656e74006000830152602082019050919050565b6000611c5e601c836120aa565b91507f697354727573746564466f727761726465723a207265766572746564000000006000830152602082019050919050565b6000611c9e601c836120aa565b91507f4641494c205441524745542057484954454c49535420435553544f4d000000006000830152602082019050919050565b6000611cde6019836120aa565b91507f72656c6179206875622061646472657373206e6f7420736574000000000000006000830152602082019050919050565b6000611d1e6018836120aa565b91507f466f72776172646572206973206e6f74207472757374656400000000000000006000830152602082019050919050565b6000611d5e6020836120aa565b91507f697354727573746564466f727761726465723a2062616420726573706f6e73656000830152602082019050919050565b608082016000820151611da76000850182611de6565b506020820151611dba6020850182611de6565b506040820151611dcd6040850182611de6565b506060820151611de06060850182611de6565b50505050565b611def81612141565b82525050565b611dfe81612141565b82525050565b6000611e108284611b89565b915081905092915050565b6000602082019050611e306000830184611b32565b92915050565b6000602082019050611e4b6000830184611b14565b92915050565b6000606082019050611e666000830186611b32565b611e736020830185611b32565b611e806040830184611bc9565b949350505050565b6000602082019050611e9d6000830184611b41565b92915050565b60006040820190508181036000830152611ebd8185611b50565b9050611ecc6020830184611b41565b9392505050565b6000602082019050611ee86000830184611bba565b92915050565b60006020820190508181036000830152611f088184611bd8565b905092915050565b60006020820190508181036000830152611f2981611c11565b9050919050565b60006020820190508181036000830152611f4981611c51565b9050919050565b60006020820190508181036000830152611f6981611c91565b9050919050565b60006020820190508181036000830152611f8981611cd1565b9050919050565b60006020820190508181036000830152611fa981611d11565b9050919050565b60006020820190508181036000830152611fc981611d51565b9050919050565b6000608082019050611fe56000830184611d91565b92915050565b60006020820190506120006000830184611df5565b92915050565b600060408201905061201b6000830185611df5565b6120286020830184611b23565b9392505050565b60008235600160e00383360303811261204757600080fd5b80830191505092915050565b6000823560016101000383360303811261206c57600080fd5b80830191505092915050565b600081519050919050565b600081519050919050565b600082825260208201905092915050565b600081905092915050565b600082825260208201905092915050565b60006120c682612121565b9050919050565b60006120d882612121565b9050919050565b60008115159050919050565b60006120f6826120bb565b9050919050565b6000612108826120bb565b9050919050565b600061211a826120bb565b9050919050565b600073ffffffffffffffffffffffffffffffffffffffff82169050919050565b6000819050919050565b600061215682612193565b9050919050565b60006121688261216f565b9050919050565b600061217a82612121565b9050919050565b600061218c82612141565b9050919050565b600061219e826121a5565b9050919050565b60006121b082612121565b9050919050565b60005b838110156121d55780820151818401526020810190506121ba565b838111156121e4576000848401525b50505050565b6000601f19601f8301169050919050565b612204816120bb565b811461220f57600080fd5b50565b61221b816120cd565b811461222657600080fd5b50565b612232816120df565b811461223d57600080fd5b50565b612249816120eb565b811461225457600080fd5b50565b612260816120fd565b811461226b57600080fd5b50565b6122778161210f565b811461228257600080fd5b50565b61228e81612141565b811461229957600080fd5b5056fe322e322e302b6f70656e67736e2e61636365707465766572797468696e672e697061796d61737465724f776e61626c653a206e6577206f776e657220697320746865207a65726f2061646472657373a2646970667358221220e74ae673a5838f3061cba1a69a8cda520e4a050ecf1c6779d81542e7792969f064736f6c63430007060033",
  "immutableReferences": {},
  "source": "/**\r\n * SPDX-License-Identifier:MIT\r\n */\r\npragma solidity ^0.7.6;\r\npragma experimental ABIEncoderV2;\r\n\r\nimport \"@opengsn/paymasters/contracts/AcceptEverythingPaymaster.sol\";\r\nimport \"./TokenBank.sol\";\r\n\r\ncontract NoFeePaymaster is AcceptEverythingPaymaster {\r\n\r\n    \r\n\r\n    bool public useSenderWhitelist;\r\n    bool public useTargetWhitelist;\r\n    mapping (address=>bool) public senderWhitelist;\r\n    mapping (address=>bool) public targetWhitelist;\r\n\r\n    Token private token;\r\n\r\n    function setToken(Token _token) public {\r\n        token = _token;\r\n    }\r\n\r\n\r\n    function whitelistSender(address sender) public onlyOwner {\r\n        senderWhitelist[sender]=true;\r\n        useSenderWhitelist = true;\r\n    }\r\n    function whitelistTarget(address target) public onlyOwner {\r\n        targetWhitelist[target]=true;\r\n        useTargetWhitelist = true;\r\n    }\r\n\r\n    function preRelayedCall(\r\n        GsnTypes.RelayRequest calldata relayRequest,\r\n        bytes calldata signature,\r\n        bytes calldata approvalData,\r\n        uint256 maxPossibleGas\r\n    )\r\n    external\r\n    override\r\n    virtual\r\n    returns (bytes memory context, bool revertOnRecipientRevert) {\r\n        (relayRequest, signature, approvalData, maxPossibleGas);\r\n\r\n        \r\n        token.transferFrom(relayRequest.request.from,relayRequest.request.to,1);        \r\n\r\n\r\n        if (useTargetWhitelist) {\r\n            require( targetWhitelist[relayRequest.request.to], \"FAIL TARGET WHITELIST CUSTOM\");\r\n        }\r\n        return (\"\", false);\r\n    }\r\n\r\n\r\n\r\n}\r\n",
  "sourcePath": "C:\\Users\\nomif\\Desktop\\Programming\\Blockchain\\ethereum-gasless-transactions\\OpenGSN\\contracts\\NoFeePaymaster.sol",
  "compiler": {
    "name": "solc",
    "version": "0.7.6+commit.7338295f.Emscripten.clang"
  },
  "schemaVersion": "3.4.3",
  "updatedAt": "2021-11-10T08:46:25.072Z",
  "networkType": "ethereum",
  "devdoc": {
    "kind": "dev",
    "methods": {
      "owner()": {
        "details": "Returns the address of the current owner."
      },
      "postRelayedCall(bytes,bool,uint256,(uint256,uint256,uint256,address,address,address,bytes,uint256))": {
        "params": {
          "context": "- the call context, as returned by the preRelayedCall",
          "gasUseWithoutPost": "- the actual amount of gas used by the entire transaction, EXCEPT        the gas used by the postRelayedCall itself.",
          "relayData": "- the relay params of the request. can be used by relayHub.calculateCharge() Revert in this functions causes a revert of the client's relayed call (and preRelayedCall(), but the Paymaster is still committed to pay the relay for the entire transaction.",
          "success": "- true if the relayed call succeeded, false if it reverted"
        }
      },
      "preRelayedCall(((address,address,uint256,uint256,uint256,bytes,uint256),(uint256,uint256,uint256,address,address,address,bytes,uint256)),bytes,bytes,uint256)": {
        "params": {
          "approvalData": "- extra dapp-specific data (e.g. signature from trusted party)",
          "maxPossibleGas": "- based on values returned from {@link getGasAndDataLimits},         the RelayHub will calculate the maximum possible amount of gas the user may be charged for.         In order to convert this value to wei, the Paymaster has to call \"relayHub.calculateCharge()\"  return:      a context to be passed to postRelayedCall      rejectOnRecipientRevert - TRUE if paymaster want to reject the TX if the recipient reverts.          FALSE means that rejects by the recipient will be completed on chain, and paid by the paymaster.          (note that in the latter case, the preRelayedCall and postRelayedCall are not reverted).",
          "relayRequest": "- the full relay request structure",
          "signature": "- user's EIP712-compatible signature of the {@link relayRequest}.              Note that in most cases the paymaster shouldn't try use it at all. It is always checked              by the forwarder immediately after preRelayedCall returns."
        }
      },
      "renounceOwnership()": {
        "details": "Leaves the contract without owner. It will not be possible to call `onlyOwner` functions anymore. Can only be called by the current owner. NOTE: Renouncing ownership will leave the contract without an owner, thereby removing any functionality that is only available to the owner."
      },
      "transferOwnership(address)": {
        "details": "Transfers ownership of the contract to a new account (`newOwner`). Can only be called by the current owner."
      }
    },
    "version": 1
  },
  "userdoc": {
    "kind": "user",
    "methods": {
      "getGasAndDataLimits()": {
        "notice": "Return the Gas Limits and msg.data max size constants used by the Paymaster."
      },
      "getHubAddr()": {
        "notice": "return the relayHub of this contract."
      },
      "getRelayHubDeposit()": {
        "notice": "check current deposit on relay hub."
      },
      "postRelayedCall(bytes,bool,uint256,(uint256,uint256,uint256,address,address,address,bytes,uint256))": {
        "notice": "This method is called after the actual relayed function call. It may be used to record the transaction (e.g. charge the caller by some contract logic) for this call. MUST be protected with relayHubOnly() in case it modifies state."
      },
      "preRelayedCall(((address,address,uint256,uint256,uint256,bytes,uint256),(uint256,uint256,uint256,address,address,address,bytes,uint256)),bytes,bytes,uint256)": {
        "notice": "Called by Relay (and RelayHub), to validate if the paymaster agrees to pay for this call. MUST be protected with relayHubOnly() in case it modifies state. The Paymaster rejects by the following \"revert\" operations  - preRelayedCall() method reverts  - the forwarder reverts because of nonce or signature error  - the paymaster returned \"rejectOnRecipientRevert\", and the recipient contract reverted. In any of the above cases, all paymaster calls (and recipient call) are reverted. In any other case, the paymaster agrees to pay for the gas cost of the transaction (note  that this includes also postRelayedCall revert) The rejectOnRecipientRevert flag means the Paymaster \"delegate\" the rejection to the recipient  code.  It also means the Paymaster trust the recipient to reject fast: both preRelayedCall,  forwarder check and receipient checks must fit into the GasLimits.acceptanceBudget,  otherwise the TX is paid by the Paymaster."
      },
      "withdrawRelayHubDepositTo(uint256,address)": {
        "notice": "withdraw deposit from relayHub"
      }
    },
    "version": 1
  }
}