{
  "contractName": "NoFeePaymaster",
  "abi": [
    {
      "anonymous": false,
      "inputs": [
        {
          "indexed": true,
          "internalType": "address",
          "name": "previousOwner",
          "type": "address"
        },
        {
          "indexed": true,
          "internalType": "address",
          "name": "newOwner",
          "type": "address"
        }
      ],
      "name": "OwnershipTransferred",
      "type": "event"
    },
    {
      "inputs": [],
      "name": "CALLDATA_SIZE_LIMIT",
      "outputs": [
        {
          "internalType": "uint256",
          "name": "",
          "type": "uint256"
        }
      ],
      "stateMutability": "view",
      "type": "function",
      "constant": true
    },
    {
      "inputs": [],
      "name": "FORWARDER_HUB_OVERHEAD",
      "outputs": [
        {
          "internalType": "uint256",
          "name": "",
          "type": "uint256"
        }
      ],
      "stateMutability": "view",
      "type": "function",
      "constant": true
    },
    {
      "inputs": [],
      "name": "PAYMASTER_ACCEPTANCE_BUDGET",
      "outputs": [
        {
          "internalType": "uint256",
          "name": "",
          "type": "uint256"
        }
      ],
      "stateMutability": "view",
      "type": "function",
      "constant": true
    },
    {
      "inputs": [],
      "name": "POST_RELAYED_CALL_GAS_LIMIT",
      "outputs": [
        {
          "internalType": "uint256",
          "name": "",
          "type": "uint256"
        }
      ],
      "stateMutability": "view",
      "type": "function",
      "constant": true
    },
    {
      "inputs": [],
      "name": "PRE_RELAYED_CALL_GAS_LIMIT",
      "outputs": [
        {
          "internalType": "uint256",
          "name": "",
          "type": "uint256"
        }
      ],
      "stateMutability": "view",
      "type": "function",
      "constant": true
    },
    {
      "inputs": [
        {
          "components": [
            {
              "components": [
                {
                  "internalType": "address",
                  "name": "from",
                  "type": "address"
                },
                {
                  "internalType": "address",
                  "name": "to",
                  "type": "address"
                },
                {
                  "internalType": "uint256",
                  "name": "value",
                  "type": "uint256"
                },
                {
                  "internalType": "uint256",
                  "name": "gas",
                  "type": "uint256"
                },
                {
                  "internalType": "uint256",
                  "name": "nonce",
                  "type": "uint256"
                },
                {
                  "internalType": "bytes",
                  "name": "data",
                  "type": "bytes"
                },
                {
                  "internalType": "uint256",
                  "name": "validUntil",
                  "type": "uint256"
                }
              ],
              "internalType": "struct IForwarder.ForwardRequest",
              "name": "request",
              "type": "tuple"
            },
            {
              "components": [
                {
                  "internalType": "uint256",
                  "name": "gasPrice",
                  "type": "uint256"
                },
                {
                  "internalType": "uint256",
                  "name": "pctRelayFee",
                  "type": "uint256"
                },
                {
                  "internalType": "uint256",
                  "name": "baseRelayFee",
                  "type": "uint256"
                },
                {
                  "internalType": "address",
                  "name": "relayWorker",
                  "type": "address"
                },
                {
                  "internalType": "address",
                  "name": "paymaster",
                  "type": "address"
                },
                {
                  "internalType": "address",
                  "name": "forwarder",
                  "type": "address"
                },
                {
                  "internalType": "bytes",
                  "name": "paymasterData",
                  "type": "bytes"
                },
                {
                  "internalType": "uint256",
                  "name": "clientId",
                  "type": "uint256"
                }
              ],
              "internalType": "struct GsnTypes.RelayData",
              "name": "relayData",
              "type": "tuple"
            }
          ],
          "internalType": "struct GsnTypes.RelayRequest",
          "name": "relayRequest",
          "type": "tuple"
        }
      ],
      "name": "_verifyForwarder",
      "outputs": [],
      "stateMutability": "view",
      "type": "function",
      "constant": true
    },
    {
      "inputs": [],
      "name": "getGasAndDataLimits",
      "outputs": [
        {
          "components": [
            {
              "internalType": "uint256",
              "name": "acceptanceBudget",
              "type": "uint256"
            },
            {
              "internalType": "uint256",
              "name": "preRelayedCallGasLimit",
              "type": "uint256"
            },
            {
              "internalType": "uint256",
              "name": "postRelayedCallGasLimit",
              "type": "uint256"
            },
            {
              "internalType": "uint256",
              "name": "calldataSizeLimit",
              "type": "uint256"
            }
          ],
          "internalType": "struct IPaymaster.GasAndDataLimits",
          "name": "limits",
          "type": "tuple"
        }
      ],
      "stateMutability": "view",
      "type": "function",
      "constant": true
    },
    {
      "inputs": [],
      "name": "getHubAddr",
      "outputs": [
        {
          "internalType": "address",
          "name": "",
          "type": "address"
        }
      ],
      "stateMutability": "view",
      "type": "function",
      "constant": true
    },
    {
      "inputs": [],
      "name": "getRelayHubDeposit",
      "outputs": [
        {
          "internalType": "uint256",
          "name": "",
          "type": "uint256"
        }
      ],
      "stateMutability": "view",
      "type": "function",
      "constant": true
    },
    {
      "inputs": [],
      "name": "owner",
      "outputs": [
        {
          "internalType": "address",
          "name": "",
          "type": "address"
        }
      ],
      "stateMutability": "view",
      "type": "function",
      "constant": true
    },
    {
      "inputs": [
        {
          "internalType": "bytes",
          "name": "context",
          "type": "bytes"
        },
        {
          "internalType": "bool",
          "name": "success",
          "type": "bool"
        },
        {
          "internalType": "uint256",
          "name": "gasUseWithoutPost",
          "type": "uint256"
        },
        {
          "components": [
            {
              "internalType": "uint256",
              "name": "gasPrice",
              "type": "uint256"
            },
            {
              "internalType": "uint256",
              "name": "pctRelayFee",
              "type": "uint256"
            },
            {
              "internalType": "uint256",
              "name": "baseRelayFee",
              "type": "uint256"
            },
            {
              "internalType": "address",
              "name": "relayWorker",
              "type": "address"
            },
            {
              "internalType": "address",
              "name": "paymaster",
              "type": "address"
            },
            {
              "internalType": "address",
              "name": "forwarder",
              "type": "address"
            },
            {
              "internalType": "bytes",
              "name": "paymasterData",
              "type": "bytes"
            },
            {
              "internalType": "uint256",
              "name": "clientId",
              "type": "uint256"
            }
          ],
          "internalType": "struct GsnTypes.RelayData",
          "name": "relayData",
          "type": "tuple"
        }
      ],
      "name": "postRelayedCall",
      "outputs": [],
      "stateMutability": "nonpayable",
      "type": "function"
    },
    {
      "inputs": [],
      "name": "renounceOwnership",
      "outputs": [],
      "stateMutability": "nonpayable",
      "type": "function"
    },
    {
      "inputs": [
        {
          "internalType": "contract IRelayHub",
          "name": "hub",
          "type": "address"
        }
      ],
      "name": "setRelayHub",
      "outputs": [],
      "stateMutability": "nonpayable",
      "type": "function"
    },
    {
      "inputs": [
        {
          "internalType": "contract IForwarder",
          "name": "forwarder",
          "type": "address"
        }
      ],
      "name": "setTrustedForwarder",
      "outputs": [],
      "stateMutability": "nonpayable",
      "type": "function"
    },
    {
      "inputs": [
        {
          "internalType": "address",
          "name": "",
          "type": "address"
        }
      ],
      "name": "targetWhitelist",
      "outputs": [
        {
          "internalType": "bool",
          "name": "",
          "type": "bool"
        }
      ],
      "stateMutability": "view",
      "type": "function",
      "constant": true
    },
    {
      "inputs": [
        {
          "internalType": "address",
          "name": "newOwner",
          "type": "address"
        }
      ],
      "name": "transferOwnership",
      "outputs": [],
      "stateMutability": "nonpayable",
      "type": "function"
    },
    {
      "inputs": [],
      "name": "trustedForwarder",
      "outputs": [
        {
          "internalType": "contract IForwarder",
          "name": "",
          "type": "address"
        }
      ],
      "stateMutability": "view",
      "type": "function",
      "constant": true
    },
    {
      "inputs": [],
      "name": "useTargetWhitelist",
      "outputs": [
        {
          "internalType": "bool",
          "name": "",
          "type": "bool"
        }
      ],
      "stateMutability": "view",
      "type": "function",
      "constant": true
    },
    {
      "inputs": [],
      "name": "versionPaymaster",
      "outputs": [
        {
          "internalType": "string",
          "name": "",
          "type": "string"
        }
      ],
      "stateMutability": "view",
      "type": "function",
      "constant": true
    },
    {
      "inputs": [
        {
          "internalType": "uint256",
          "name": "amount",
          "type": "uint256"
        },
        {
          "internalType": "address payable",
          "name": "target",
          "type": "address"
        }
      ],
      "name": "withdrawRelayHubDepositTo",
      "outputs": [],
      "stateMutability": "nonpayable",
      "type": "function"
    },
    {
      "stateMutability": "payable",
      "type": "receive",
      "payable": true
    },
    {
      "inputs": [
        {
          "internalType": "contract Token",
          "name": "_token",
          "type": "address"
        }
      ],
      "name": "setToken",
      "outputs": [],
      "stateMutability": "nonpayable",
      "type": "function"
    },
    {
      "inputs": [
        {
          "internalType": "address",
          "name": "target",
          "type": "address"
        }
      ],
      "name": "whitelistTarget",
      "outputs": [],
      "stateMutability": "nonpayable",
      "type": "function"
    },
    {
      "inputs": [
        {
          "components": [
            {
              "components": [
                {
                  "internalType": "address",
                  "name": "from",
                  "type": "address"
                },
                {
                  "internalType": "address",
                  "name": "to",
                  "type": "address"
                },
                {
                  "internalType": "uint256",
                  "name": "value",
                  "type": "uint256"
                },
                {
                  "internalType": "uint256",
                  "name": "gas",
                  "type": "uint256"
                },
                {
                  "internalType": "uint256",
                  "name": "nonce",
                  "type": "uint256"
                },
                {
                  "internalType": "bytes",
                  "name": "data",
                  "type": "bytes"
                },
                {
                  "internalType": "uint256",
                  "name": "validUntil",
                  "type": "uint256"
                }
              ],
              "internalType": "struct IForwarder.ForwardRequest",
              "name": "request",
              "type": "tuple"
            },
            {
              "components": [
                {
                  "internalType": "uint256",
                  "name": "gasPrice",
                  "type": "uint256"
                },
                {
                  "internalType": "uint256",
                  "name": "pctRelayFee",
                  "type": "uint256"
                },
                {
                  "internalType": "uint256",
                  "name": "baseRelayFee",
                  "type": "uint256"
                },
                {
                  "internalType": "address",
                  "name": "relayWorker",
                  "type": "address"
                },
                {
                  "internalType": "address",
                  "name": "paymaster",
                  "type": "address"
                },
                {
                  "internalType": "address",
                  "name": "forwarder",
                  "type": "address"
                },
                {
                  "internalType": "bytes",
                  "name": "paymasterData",
                  "type": "bytes"
                },
                {
                  "internalType": "uint256",
                  "name": "clientId",
                  "type": "uint256"
                }
              ],
              "internalType": "struct GsnTypes.RelayData",
              "name": "relayData",
              "type": "tuple"
            }
          ],
          "internalType": "struct GsnTypes.RelayRequest",
          "name": "relayRequest",
          "type": "tuple"
        },
        {
          "internalType": "bytes",
          "name": "signature",
          "type": "bytes"
        },
        {
          "internalType": "bytes",
          "name": "approvalData",
          "type": "bytes"
        },
        {
          "internalType": "uint256",
          "name": "maxPossibleGas",
          "type": "uint256"
        }
      ],
      "name": "preRelayedCall",
      "outputs": [
        {
          "internalType": "bytes",
          "name": "context",
          "type": "bytes"
        },
        {
          "internalType": "bool",
          "name": "revertOnRecipientRevert",
          "type": "bool"
        }
      ],
      "stateMutability": "nonpayable",
      "type": "function"
    }
  ],
  "bytecode": "0x6080604052600160055534801561001557600080fd5b5060006100266100c960201b60201c565b9050806000806101000a81548173ffffffffffffffffffffffffffffffffffffffff021916908373ffffffffffffffffffffffffffffffffffffffff1602179055508073ffffffffffffffffffffffffffffffffffffffff16600073ffffffffffffffffffffffffffffffffffffffff167f8be0079c531659141344cd1fd0a4f28419497f9722a3daafe3b4186f6b6457e060405160405180910390a3506100d1565b600033905090565b612298806100e06000396000f3fe6080604052600436106101435760003560e01c80637da0a877116100b6578063b90b41cf1161006f578063b90b41cf1461054f578063bbdaa3c91461057a578063da742228146105a5578063df463a66146105ce578063f2fde38b146105f9578063f9c002f7146106225761026a565b80637da0a8771461043d578063858437b0146104685780638da5cb5b146104a5578063921276ea146104d0578063a5dcd07b146104fb578063b039a88f146105245761026a565b80634f28bfb9116101085780634f28bfb9146103535780635c5e3db11461037e578063715018a6146103a957806374e861d6146103c057806376fa01c3146103eb5780637bb05264146104145761026a565b8062be5dd41461026f578063144fa6d7146102ad5780631cfda9fa146102d65780632afe31c1146102ff5780632d14c4b71461032a5761026a565b3661026a57600073ffffffffffffffffffffffffffffffffffffffff16600160009054906101000a900473ffffffffffffffffffffffffffffffffffffffff1673ffffffffffffffffffffffffffffffffffffffff1614156101da576040517f08c379a00000000000000000000000000000000000000000000000000000000081526004016101d190611ed9565b60405180910390fd5b600160009054906101000a900473ffffffffffffffffffffffffffffffffffffffff1673ffffffffffffffffffffffffffffffffffffffff1663aa67c91934306040518363ffffffff1660e01b81526004016102369190611d76565b6000604051808303818588803b15801561024f57600080fd5b505af1158015610263573d6000803e3d6000fd5b5050505050005b600080fd5b34801561027b57600080fd5b50610296600480360381019061029191906118e5565b61064d565b6040516102a4929190611e0c565b60405180910390f35b3480156102b957600080fd5b506102d460048036038101906102cf919061187b565b61093e565b005b3480156102e257600080fd5b506102fd60048036038101906102f8919061173f565b610982565b005b34801561030b57600080fd5b50610314610aa7565b6040516103219190611f74565b60405180910390f35b34801561033657600080fd5b50610351600480360381019061034c91906119c1565b610b59565b005b34801561035f57600080fd5b50610368610c9a565b6040516103759190611df1565b60405180910390f35b34801561038a57600080fd5b50610393610cad565b6040516103a09190611f74565b60405180910390f35b3480156103b557600080fd5b506103be610cb3565b005b3480156103cc57600080fd5b506103d5610e20565b6040516103e29190611d5b565b60405180910390f35b3480156103f757600080fd5b50610412600480360381019061040d9190611791565b610e4a565b005b34801561042057600080fd5b5061043b60048036038101906104369190611852565b610e51565b005b34801561044957600080fd5b50610452610f44565b60405161045f9190611e3c565b60405180910390f35b34801561047457600080fd5b5061048f600480360381019061048a919061173f565b610f6a565b60405161049c9190611df1565b60405180910390f35b3480156104b157600080fd5b506104ba610f8a565b6040516104c79190611d5b565b60405180910390f35b3480156104dc57600080fd5b506104e5610fb3565b6040516104f29190611e57565b60405180910390f35b34801561050757600080fd5b50610522600480360381019061051d91906118a4565b610fd3565b005b34801561053057600080fd5b50610539611090565b6040516105469190611f59565b60405180910390f35b34801561055b57600080fd5b506105646110cd565b6040516105719190611f74565b60405180910390f35b34801561058657600080fd5b5061058f6110d3565b60405161059c9190611f74565b60405180910390f35b3480156105b157600080fd5b506105cc60048036038101906105c79190611829565b6110da565b005b3480156105da57600080fd5b506105e36111cd565b6040516105f09190611f74565b60405180910390f35b34801561060557600080fd5b50610620600480360381019061061b919061173f565b6111d8565b005b34801561062e57600080fd5b506106376113ca565b6040516106449190611f74565b60405180910390f35b60606000600554600460009054906101000a900473ffffffffffffffffffffffffffffffffffffffff1673ffffffffffffffffffffffffffffffffffffffff1663dd62ed3e8a80600001906106a29190611fb8565b60000160208101906106b4919061173f565b306040518363ffffffff1660e01b81526004016106d2929190611d91565b60206040518083038186803b1580156106ea57600080fd5b505afa1580156106fe573d6000803e3d6000fd5b505050506040513d601f19601f820116820180604052508101906107229190611998565b1015610763576040517f08c379a000000000000000000000000000000000000000000000000000000000815260040161075a90611f19565b60405180910390fd5b600460009054906101000a900473ffffffffffffffffffffffffffffffffffffffff1673ffffffffffffffffffffffffffffffffffffffff166323b872dd8980600001906107b19190611fb8565b60000160208101906107c3919061173f565b8a80600001906107d39190611fb8565b60200160208101906107e5919061173f565b6005546040518463ffffffff1660e01b815260040161080693929190611dba565b602060405180830381600087803b15801561082057600080fd5b505af1158015610834573d6000803e3d6000fd5b505050506040513d601f19601f820116820180604052508101906108589190611768565b50600260149054906101000a900460ff161561091c57600360008980600001906108829190611fb8565b6020016020810190610894919061173f565b73ffffffffffffffffffffffffffffffffffffffff1673ffffffffffffffffffffffffffffffffffffffff16815260200190815260200160002060009054906101000a900460ff1661091b576040517f08c379a000000000000000000000000000000000000000000000000000000000815260040161091290611eb9565b60405180910390fd5b5b6000604051806020016040528060008152509091509150965096945050505050565b80600460006101000a81548173ffffffffffffffffffffffffffffffffffffffff021916908373ffffffffffffffffffffffffffffffffffffffff16021790555050565b61098a6113d1565b73ffffffffffffffffffffffffffffffffffffffff166109a8610f8a565b73ffffffffffffffffffffffffffffffffffffffff1614610a31576040517f08c379a00000000000000000000000000000000000000000000000000000000081526004018080602001828103825260208152602001807f4f776e61626c653a2063616c6c6572206973206e6f7420746865206f776e657281525060200191505060405180910390fd5b6001600360008373ffffffffffffffffffffffffffffffffffffffff1673ffffffffffffffffffffffffffffffffffffffff16815260200190815260200160002060006101000a81548160ff0219169083151502179055506001600260146101000a81548160ff02191690831515021790555050565b6000600160009054906101000a900473ffffffffffffffffffffffffffffffffffffffff1673ffffffffffffffffffffffffffffffffffffffff166370a08231306040518263ffffffff1660e01b8152600401610b049190611d76565b60206040518083038186803b158015610b1c57600080fd5b505afa158015610b30573d6000803e3d6000fd5b505050506040513d601f19601f82011682018060405250810190610b549190611998565b905090565b610b616113d1565b73ffffffffffffffffffffffffffffffffffffffff16610b7f610f8a565b73ffffffffffffffffffffffffffffffffffffffff1614610c08576040517f08c379a00000000000000000000000000000000000000000000000000000000081526004018080602001828103825260208152602001807f4f776e61626c653a2063616c6c6572206973206e6f7420746865206f776e657281525060200191505060405180910390fd5b600160009054906101000a900473ffffffffffffffffffffffffffffffffffffffff1673ffffffffffffffffffffffffffffffffffffffff1662f714ce83836040518363ffffffff1660e01b8152600401610c64929190611f8f565b600060405180830381600087803b158015610c7e57600080fd5b505af1158015610c92573d6000803e3d6000fd5b505050505050565b600260149054906101000a900460ff1681565b61290481565b610cbb6113d1565b73ffffffffffffffffffffffffffffffffffffffff16610cd9610f8a565b73ffffffffffffffffffffffffffffffffffffffff1614610d62576040517f08c379a00000000000000000000000000000000000000000000000000000000081526004018080602001828103825260208152602001807f4f776e61626c653a2063616c6c6572206973206e6f7420746865206f776e657281525060200191505060405180910390fd5b600073ffffffffffffffffffffffffffffffffffffffff1660008054906101000a900473ffffffffffffffffffffffffffffffffffffffff1673ffffffffffffffffffffffffffffffffffffffff167f8be0079c531659141344cd1fd0a4f28419497f9722a3daafe3b4186f6b6457e060405160405180910390a360008060006101000a81548173ffffffffffffffffffffffffffffffffffffffff021916908373ffffffffffffffffffffffffffffffffffffffff160217905550565b6000600160009054906101000a900473ffffffffffffffffffffffffffffffffffffffff16905090565b5050505050565b610e596113d1565b73ffffffffffffffffffffffffffffffffffffffff16610e77610f8a565b73ffffffffffffffffffffffffffffffffffffffff1614610f00576040517f08c379a00000000000000000000000000000000000000000000000000000000081526004018080602001828103825260208152602001807f4f776e61626c653a2063616c6c6572206973206e6f7420746865206f776e657281525060200191505060405180910390fd5b80600160006101000a81548173ffffffffffffffffffffffffffffffffffffffff021916908373ffffffffffffffffffffffffffffffffffffffff16021790555050565b600260009054906101000a900473ffffffffffffffffffffffffffffffffffffffff1681565b60036020528060005260406000206000915054906101000a900460ff1681565b60008060009054906101000a900473ffffffffffffffffffffffffffffffffffffffff16905090565b606060405180606001604052806029815260200161221460299139905090565b808060200190610fe39190611fdc565b60a0016020810190610ff5919061173f565b73ffffffffffffffffffffffffffffffffffffffff16600260009054906101000a900473ffffffffffffffffffffffffffffffffffffffff1673ffffffffffffffffffffffffffffffffffffffff1614611084576040517f08c379a000000000000000000000000000000000000000000000000000000000815260040161107b90611ef9565b60405180910390fd5b61108d816113d9565b50565b6110986115d9565b604051806080016040528061c350620186a0018152602001620186a081526020016201adb08152602001612904815250905090565b61c35081565b6201adb081565b6110e26113d1565b73ffffffffffffffffffffffffffffffffffffffff16611100610f8a565b73ffffffffffffffffffffffffffffffffffffffff1614611189576040517f08c379a00000000000000000000000000000000000000000000000000000000081526004018080602001828103825260208152602001807f4f776e61626c653a2063616c6c6572206973206e6f7420746865206f776e657281525060200191505060405180910390fd5b80600260006101000a81548173ffffffffffffffffffffffffffffffffffffffff021916908373ffffffffffffffffffffffffffffffffffffffff16021790555050565b61c350620186a00181565b6111e06113d1565b73ffffffffffffffffffffffffffffffffffffffff166111fe610f8a565b73ffffffffffffffffffffffffffffffffffffffff1614611287576040517f08c379a00000000000000000000000000000000000000000000000000000000081526004018080602001828103825260208152602001807f4f776e61626c653a2063616c6c6572206973206e6f7420746865206f776e657281525060200191505060405180910390fd5b600073ffffffffffffffffffffffffffffffffffffffff168173ffffffffffffffffffffffffffffffffffffffff16141561130d576040517f08c379a000000000000000000000000000000000000000000000000000000000815260040180806020018281038252602681526020018061223d6026913960400191505060405180910390fd5b8073ffffffffffffffffffffffffffffffffffffffff1660008054906101000a900473ffffffffffffffffffffffffffffffffffffffff1673ffffffffffffffffffffffffffffffffffffffff167f8be0079c531659141344cd1fd0a4f28419497f9722a3daafe3b4186f6b6457e060405160405180910390a3806000806101000a81548173ffffffffffffffffffffffffffffffffffffffff021916908373ffffffffffffffffffffffffffffffffffffffff16021790555050565b620186a081565b600033905090565b6000808280600001906113ec9190611fb8565b60200160208101906113fe919061173f565b73ffffffffffffffffffffffffffffffffffffffff1663572b6c0560e01b84806020019061142c9190611fdc565b60a001602081019061143e919061173f565b60405160240161144e9190611d5b565b604051602081830303815290604052907bffffffffffffffffffffffffffffffffffffffffffffffffffffffff19166020820180517bffffffffffffffffffffffffffffffffffffffffffffffffffffffff83818316178352505050506040516114b89190611d44565b600060405180830381855afa9150503d80600081146114f3576040519150601f19603f3d011682016040523d82523d6000602084013e6114f8565b606091505b50915091508161153d576040517f08c379a000000000000000000000000000000000000000000000000000000000815260040161153490611e99565b60405180910390fd5b6020815114611581576040517f08c379a000000000000000000000000000000000000000000000000000000000815260040161157890611f39565b60405180910390fd5b808060200190518101906115959190611768565b6115d4576040517f08c379a00000000000000000000000000000000000000000000000000000000081526004016115cb90611e79565b60405180910390fd5b505050565b6040518060800160405280600081526020016000815260200160008152602001600081525090565b60008135905061161081612172565b92915050565b60008135905061162581612189565b92915050565b60008135905061163a816121a0565b92915050565b60008151905061164f816121a0565b92915050565b60008083601f84011261166757600080fd5b8235905067ffffffffffffffff81111561168057600080fd5b60208301915083600182028301111561169857600080fd5b9250929050565b6000813590506116ae816121b7565b92915050565b6000813590506116c3816121ce565b92915050565b6000813590506116d8816121e5565b92915050565b600061010082840312156116f157600080fd5b81905092915050565b60006040828403121561170c57600080fd5b81905092915050565b600081359050611724816121fc565b92915050565b600081519050611739816121fc565b92915050565b60006020828403121561175157600080fd5b600061175f84828501611601565b91505092915050565b60006020828403121561177a57600080fd5b600061178884828501611640565b91505092915050565b6000806000806000608086880312156117a957600080fd5b600086013567ffffffffffffffff8111156117c357600080fd5b6117cf88828901611655565b955095505060206117e28882890161162b565b93505060406117f388828901611715565b925050606086013567ffffffffffffffff81111561181057600080fd5b61181c888289016116de565b9150509295509295909350565b60006020828403121561183b57600080fd5b60006118498482850161169f565b91505092915050565b60006020828403121561186457600080fd5b6000611872848285016116b4565b91505092915050565b60006020828403121561188d57600080fd5b600061189b848285016116c9565b91505092915050565b6000602082840312156118b657600080fd5b600082013567ffffffffffffffff8111156118d057600080fd5b6118dc848285016116fa565b91505092915050565b600080600080600080608087890312156118fe57600080fd5b600087013567ffffffffffffffff81111561191857600080fd5b61192489828a016116fa565b965050602087013567ffffffffffffffff81111561194157600080fd5b61194d89828a01611655565b9550955050604087013567ffffffffffffffff81111561196c57600080fd5b61197889828a01611655565b9350935050606061198b89828a01611715565b9150509295509295509295565b6000602082840312156119aa57600080fd5b60006119b88482850161172a565b91505092915050565b600080604083850312156119d457600080fd5b60006119e285828601611715565b92505060206119f385828601611616565b9150509250929050565b611a06816120d4565b82525050565b611a1581612056565b82525050565b611a2481612044565b82525050565b611a3381612068565b82525050565b6000611a4482612001565b611a4e8185612017565b9350611a5e81856020860161212e565b611a6781612161565b840191505092915050565b6000611a7d82612001565b611a878185612028565b9350611a9781856020860161212e565b80840191505092915050565b611aac816120e6565b82525050565b6000611abd8261200c565b611ac78185612033565b9350611ad781856020860161212e565b611ae081612161565b840191505092915050565b6000611af8601f83612033565b91507f696e76616c696420666f7277617264657220666f7220726563697069656e74006000830152602082019050919050565b6000611b38601c83612033565b91507f697354727573746564466f727761726465723a207265766572746564000000006000830152602082019050919050565b6000611b78601c83612033565b91507f4641494c205441524745542057484954454c49535420435553544f4d000000006000830152602082019050919050565b6000611bb8601983612033565b91507f72656c6179206875622061646472657373206e6f7420736574000000000000006000830152602082019050919050565b6000611bf8601883612033565b91507f466f72776172646572206973206e6f74207472757374656400000000000000006000830152602082019050919050565b6000611c38602c83612033565b91507f5041594d415354455220444f4553204e4f54204841564520574954484452415760008301527f4c205045524d495353494f4e00000000000000000000000000000000000000006020830152604082019050919050565b6000611c9e602083612033565b91507f697354727573746564466f727761726465723a2062616420726573706f6e73656000830152602082019050919050565b608082016000820151611ce76000850182611d26565b506020820151611cfa6020850182611d26565b506040820151611d0d6040850182611d26565b506060820151611d206060850182611d26565b50505050565b611d2f816120ca565b82525050565b611d3e816120ca565b82525050565b6000611d508284611a72565b915081905092915050565b6000602082019050611d706000830184611a1b565b92915050565b6000602082019050611d8b60008301846119fd565b92915050565b6000604082019050611da66000830185611a1b565b611db360208301846119fd565b9392505050565b6000606082019050611dcf6000830186611a1b565b611ddc6020830185611a1b565b611de96040830184611d35565b949350505050565b6000602082019050611e066000830184611a2a565b92915050565b60006040820190508181036000830152611e268185611a39565b9050611e356020830184611a2a565b9392505050565b6000602082019050611e516000830184611aa3565b92915050565b60006020820190508181036000830152611e718184611ab2565b905092915050565b60006020820190508181036000830152611e9281611aeb565b9050919050565b60006020820190508181036000830152611eb281611b2b565b9050919050565b60006020820190508181036000830152611ed281611b6b565b9050919050565b60006020820190508181036000830152611ef281611bab565b9050919050565b60006020820190508181036000830152611f1281611beb565b9050919050565b60006020820190508181036000830152611f3281611c2b565b9050919050565b60006020820190508181036000830152611f5281611c91565b9050919050565b6000608082019050611f6e6000830184611cd1565b92915050565b6000602082019050611f896000830184611d35565b92915050565b6000604082019050611fa46000830185611d35565b611fb16020830184611a0c565b9392505050565b60008235600160e003833603038112611fd057600080fd5b80830191505092915050565b60008235600161010003833603038112611ff557600080fd5b80830191505092915050565b600081519050919050565b600081519050919050565b600082825260208201905092915050565b600081905092915050565b600082825260208201905092915050565b600061204f826120aa565b9050919050565b6000612061826120aa565b9050919050565b60008115159050919050565b600061207f82612044565b9050919050565b600061209182612044565b9050919050565b60006120a382612044565b9050919050565b600073ffffffffffffffffffffffffffffffffffffffff82169050919050565b6000819050919050565b60006120df8261210a565b9050919050565b60006120f1826120f8565b9050919050565b6000612103826120aa565b9050919050565b60006121158261211c565b9050919050565b6000612127826120aa565b9050919050565b60005b8381101561214c578082015181840152602081019050612131565b8381111561215b576000848401525b50505050565b6000601f19601f8301169050919050565b61217b81612044565b811461218657600080fd5b50565b61219281612056565b811461219d57600080fd5b50565b6121a981612068565b81146121b457600080fd5b50565b6121c081612074565b81146121cb57600080fd5b50565b6121d781612086565b81146121e257600080fd5b50565b6121ee81612098565b81146121f957600080fd5b50565b612205816120ca565b811461221057600080fd5b5056fe322e322e302b6f70656e67736e2e61636365707465766572797468696e672e697061796d61737465724f776e61626c653a206e6577206f776e657220697320746865207a65726f2061646472657373a26469706673582212201492ee9106fade39b0148d75c238516bc4d407960ad93e4900c6e5d4e539a9e664736f6c63430007060033",
  "immutableReferences": {},
  "source": "/**\r\n * SPDX-License-Identifier:MIT\r\n */\r\npragma solidity ^0.7.6;\r\npragma experimental ABIEncoderV2;\r\n\r\nimport \"@opengsn/paymasters/contracts/AcceptEverythingPaymaster.sol\";\r\nimport \"./TokenBank.sol\";\r\n\r\ncontract NoFeePaymaster is AcceptEverythingPaymaster {\r\n\r\n    \r\n\r\n    bool public useTargetWhitelist;\r\n    mapping (address=>bool) public targetWhitelist;\r\n\r\n    Token private token;\r\n    uint private AMOUNT = 1;\r\n\r\n    function setToken(Token _token) public {\r\n        token = _token;\r\n    }\r\n\r\n    function whitelistTarget(address target) public onlyOwner {\r\n        targetWhitelist[target]=true;\r\n        useTargetWhitelist = true;\r\n    }\r\n\r\n    function preRelayedCall(\r\n        GsnTypes.RelayRequest calldata relayRequest,\r\n        bytes calldata signature,\r\n        bytes calldata approvalData,\r\n        uint256 maxPossibleGas\r\n    )\r\n    external\r\n    override\r\n    virtual\r\n    returns (bytes memory context, bool revertOnRecipientRevert) {\r\n        (relayRequest, signature, approvalData, maxPossibleGas);\r\n\r\n        require(token.allowance(relayRequest.request.from,address(this)) >= AMOUNT,\"PAYMASTER DOES NOT HAVE WITHDRAWL PERMISSION\");\r\n        token.transferFrom(relayRequest.request.from,relayRequest.request.to,AMOUNT);        \r\n\r\n\r\n        if (useTargetWhitelist) {\r\n            require(targetWhitelist[relayRequest.request.to], \"FAIL TARGET WHITELIST CUSTOM\");\r\n        }\r\n        return (\"\", false);\r\n    }\r\n\r\n\r\n\r\n}\r\n",
  "sourcePath": "C:\\Users\\nomif\\Desktop\\Programming\\Blockchain\\ethereum-gasless-transactions\\OpenGSN\\contracts\\NoFeePaymaster.sol",
  "compiler": {
    "name": "solc",
    "version": "0.7.6+commit.7338295f.Emscripten.clang"
  },
  "schemaVersion": "3.4.3",
  "updatedAt": "2021-11-10T13:56:34.322Z",
  "networkType": "ethereum",
  "devdoc": {
    "kind": "dev",
    "methods": {
      "owner()": {
        "details": "Returns the address of the current owner."
      },
      "postRelayedCall(bytes,bool,uint256,(uint256,uint256,uint256,address,address,address,bytes,uint256))": {
        "params": {
          "context": "- the call context, as returned by the preRelayedCall",
          "gasUseWithoutPost": "- the actual amount of gas used by the entire transaction, EXCEPT        the gas used by the postRelayedCall itself.",
          "relayData": "- the relay params of the request. can be used by relayHub.calculateCharge() Revert in this functions causes a revert of the client's relayed call (and preRelayedCall(), but the Paymaster is still committed to pay the relay for the entire transaction.",
          "success": "- true if the relayed call succeeded, false if it reverted"
        }
      },
      "preRelayedCall(((address,address,uint256,uint256,uint256,bytes,uint256),(uint256,uint256,uint256,address,address,address,bytes,uint256)),bytes,bytes,uint256)": {
        "params": {
          "approvalData": "- extra dapp-specific data (e.g. signature from trusted party)",
          "maxPossibleGas": "- based on values returned from {@link getGasAndDataLimits},         the RelayHub will calculate the maximum possible amount of gas the user may be charged for.         In order to convert this value to wei, the Paymaster has to call \"relayHub.calculateCharge()\"  return:      a context to be passed to postRelayedCall      rejectOnRecipientRevert - TRUE if paymaster want to reject the TX if the recipient reverts.          FALSE means that rejects by the recipient will be completed on chain, and paid by the paymaster.          (note that in the latter case, the preRelayedCall and postRelayedCall are not reverted).",
          "relayRequest": "- the full relay request structure",
          "signature": "- user's EIP712-compatible signature of the {@link relayRequest}.              Note that in most cases the paymaster shouldn't try use it at all. It is always checked              by the forwarder immediately after preRelayedCall returns."
        }
      },
      "renounceOwnership()": {
        "details": "Leaves the contract without owner. It will not be possible to call `onlyOwner` functions anymore. Can only be called by the current owner. NOTE: Renouncing ownership will leave the contract without an owner, thereby removing any functionality that is only available to the owner."
      },
      "transferOwnership(address)": {
        "details": "Transfers ownership of the contract to a new account (`newOwner`). Can only be called by the current owner."
      }
    },
    "version": 1
  },
  "userdoc": {
    "kind": "user",
    "methods": {
      "getGasAndDataLimits()": {
        "notice": "Return the Gas Limits and msg.data max size constants used by the Paymaster."
      },
      "getHubAddr()": {
        "notice": "return the relayHub of this contract."
      },
      "getRelayHubDeposit()": {
        "notice": "check current deposit on relay hub."
      },
      "postRelayedCall(bytes,bool,uint256,(uint256,uint256,uint256,address,address,address,bytes,uint256))": {
        "notice": "This method is called after the actual relayed function call. It may be used to record the transaction (e.g. charge the caller by some contract logic) for this call. MUST be protected with relayHubOnly() in case it modifies state."
      },
      "preRelayedCall(((address,address,uint256,uint256,uint256,bytes,uint256),(uint256,uint256,uint256,address,address,address,bytes,uint256)),bytes,bytes,uint256)": {
        "notice": "Called by Relay (and RelayHub), to validate if the paymaster agrees to pay for this call. MUST be protected with relayHubOnly() in case it modifies state. The Paymaster rejects by the following \"revert\" operations  - preRelayedCall() method reverts  - the forwarder reverts because of nonce or signature error  - the paymaster returned \"rejectOnRecipientRevert\", and the recipient contract reverted. In any of the above cases, all paymaster calls (and recipient call) are reverted. In any other case, the paymaster agrees to pay for the gas cost of the transaction (note  that this includes also postRelayedCall revert) The rejectOnRecipientRevert flag means the Paymaster \"delegate\" the rejection to the recipient  code.  It also means the Paymaster trust the recipient to reject fast: both preRelayedCall,  forwarder check and receipient checks must fit into the GasLimits.acceptanceBudget,  otherwise the TX is paid by the Paymaster."
      },
      "withdrawRelayHubDepositTo(uint256,address)": {
        "notice": "withdraw deposit from relayHub"
      }
    },
    "version": 1
  }
}