{
  "contractName": "NoFeePaymaster",
  "abi": [
    {
      "anonymous": false,
      "inputs": [
        {
          "indexed": true,
          "internalType": "address",
          "name": "previousOwner",
          "type": "address"
        },
        {
          "indexed": true,
          "internalType": "address",
          "name": "newOwner",
          "type": "address"
        }
      ],
      "name": "OwnershipTransferred",
      "type": "event"
    },
    {
      "inputs": [],
      "name": "CALLDATA_SIZE_LIMIT",
      "outputs": [
        {
          "internalType": "uint256",
          "name": "",
          "type": "uint256"
        }
      ],
      "stateMutability": "view",
      "type": "function",
      "constant": true
    },
    {
      "inputs": [],
      "name": "FORWARDER_HUB_OVERHEAD",
      "outputs": [
        {
          "internalType": "uint256",
          "name": "",
          "type": "uint256"
        }
      ],
      "stateMutability": "view",
      "type": "function",
      "constant": true
    },
    {
      "inputs": [],
      "name": "PAYMASTER_ACCEPTANCE_BUDGET",
      "outputs": [
        {
          "internalType": "uint256",
          "name": "",
          "type": "uint256"
        }
      ],
      "stateMutability": "view",
      "type": "function",
      "constant": true
    },
    {
      "inputs": [],
      "name": "POST_RELAYED_CALL_GAS_LIMIT",
      "outputs": [
        {
          "internalType": "uint256",
          "name": "",
          "type": "uint256"
        }
      ],
      "stateMutability": "view",
      "type": "function",
      "constant": true
    },
    {
      "inputs": [],
      "name": "PRE_RELAYED_CALL_GAS_LIMIT",
      "outputs": [
        {
          "internalType": "uint256",
          "name": "",
          "type": "uint256"
        }
      ],
      "stateMutability": "view",
      "type": "function",
      "constant": true
    },
    {
      "inputs": [
        {
          "components": [
            {
              "components": [
                {
                  "internalType": "address",
                  "name": "from",
                  "type": "address"
                },
                {
                  "internalType": "address",
                  "name": "to",
                  "type": "address"
                },
                {
                  "internalType": "uint256",
                  "name": "value",
                  "type": "uint256"
                },
                {
                  "internalType": "uint256",
                  "name": "gas",
                  "type": "uint256"
                },
                {
                  "internalType": "uint256",
                  "name": "nonce",
                  "type": "uint256"
                },
                {
                  "internalType": "bytes",
                  "name": "data",
                  "type": "bytes"
                },
                {
                  "internalType": "uint256",
                  "name": "validUntil",
                  "type": "uint256"
                }
              ],
              "internalType": "struct IForwarder.ForwardRequest",
              "name": "request",
              "type": "tuple"
            },
            {
              "components": [
                {
                  "internalType": "uint256",
                  "name": "gasPrice",
                  "type": "uint256"
                },
                {
                  "internalType": "uint256",
                  "name": "pctRelayFee",
                  "type": "uint256"
                },
                {
                  "internalType": "uint256",
                  "name": "baseRelayFee",
                  "type": "uint256"
                },
                {
                  "internalType": "address",
                  "name": "relayWorker",
                  "type": "address"
                },
                {
                  "internalType": "address",
                  "name": "paymaster",
                  "type": "address"
                },
                {
                  "internalType": "address",
                  "name": "forwarder",
                  "type": "address"
                },
                {
                  "internalType": "bytes",
                  "name": "paymasterData",
                  "type": "bytes"
                },
                {
                  "internalType": "uint256",
                  "name": "clientId",
                  "type": "uint256"
                }
              ],
              "internalType": "struct GsnTypes.RelayData",
              "name": "relayData",
              "type": "tuple"
            }
          ],
          "internalType": "struct GsnTypes.RelayRequest",
          "name": "relayRequest",
          "type": "tuple"
        }
      ],
      "name": "_verifyForwarder",
      "outputs": [],
      "stateMutability": "view",
      "type": "function",
      "constant": true
    },
    {
      "inputs": [],
      "name": "getGasAndDataLimits",
      "outputs": [
        {
          "components": [
            {
              "internalType": "uint256",
              "name": "acceptanceBudget",
              "type": "uint256"
            },
            {
              "internalType": "uint256",
              "name": "preRelayedCallGasLimit",
              "type": "uint256"
            },
            {
              "internalType": "uint256",
              "name": "postRelayedCallGasLimit",
              "type": "uint256"
            },
            {
              "internalType": "uint256",
              "name": "calldataSizeLimit",
              "type": "uint256"
            }
          ],
          "internalType": "struct IPaymaster.GasAndDataLimits",
          "name": "limits",
          "type": "tuple"
        }
      ],
      "stateMutability": "view",
      "type": "function",
      "constant": true
    },
    {
      "inputs": [],
      "name": "getHubAddr",
      "outputs": [
        {
          "internalType": "address",
          "name": "",
          "type": "address"
        }
      ],
      "stateMutability": "view",
      "type": "function",
      "constant": true
    },
    {
      "inputs": [],
      "name": "getRelayHubDeposit",
      "outputs": [
        {
          "internalType": "uint256",
          "name": "",
          "type": "uint256"
        }
      ],
      "stateMutability": "view",
      "type": "function",
      "constant": true
    },
    {
      "inputs": [],
      "name": "owner",
      "outputs": [
        {
          "internalType": "address",
          "name": "",
          "type": "address"
        }
      ],
      "stateMutability": "view",
      "type": "function",
      "constant": true
    },
    {
      "inputs": [
        {
          "internalType": "bytes",
          "name": "context",
          "type": "bytes"
        },
        {
          "internalType": "bool",
          "name": "success",
          "type": "bool"
        },
        {
          "internalType": "uint256",
          "name": "gasUseWithoutPost",
          "type": "uint256"
        },
        {
          "components": [
            {
              "internalType": "uint256",
              "name": "gasPrice",
              "type": "uint256"
            },
            {
              "internalType": "uint256",
              "name": "pctRelayFee",
              "type": "uint256"
            },
            {
              "internalType": "uint256",
              "name": "baseRelayFee",
              "type": "uint256"
            },
            {
              "internalType": "address",
              "name": "relayWorker",
              "type": "address"
            },
            {
              "internalType": "address",
              "name": "paymaster",
              "type": "address"
            },
            {
              "internalType": "address",
              "name": "forwarder",
              "type": "address"
            },
            {
              "internalType": "bytes",
              "name": "paymasterData",
              "type": "bytes"
            },
            {
              "internalType": "uint256",
              "name": "clientId",
              "type": "uint256"
            }
          ],
          "internalType": "struct GsnTypes.RelayData",
          "name": "relayData",
          "type": "tuple"
        }
      ],
      "name": "postRelayedCall",
      "outputs": [],
      "stateMutability": "nonpayable",
      "type": "function"
    },
    {
      "inputs": [],
      "name": "renounceOwnership",
      "outputs": [],
      "stateMutability": "nonpayable",
      "type": "function"
    },
    {
      "inputs": [
        {
          "internalType": "address",
          "name": "",
          "type": "address"
        }
      ],
      "name": "senderWhitelist",
      "outputs": [
        {
          "internalType": "bool",
          "name": "",
          "type": "bool"
        }
      ],
      "stateMutability": "view",
      "type": "function",
      "constant": true
    },
    {
      "inputs": [
        {
          "internalType": "contract IRelayHub",
          "name": "hub",
          "type": "address"
        }
      ],
      "name": "setRelayHub",
      "outputs": [],
      "stateMutability": "nonpayable",
      "type": "function"
    },
    {
      "inputs": [
        {
          "internalType": "contract IForwarder",
          "name": "forwarder",
          "type": "address"
        }
      ],
      "name": "setTrustedForwarder",
      "outputs": [],
      "stateMutability": "nonpayable",
      "type": "function"
    },
    {
      "inputs": [
        {
          "internalType": "address",
          "name": "",
          "type": "address"
        }
      ],
      "name": "targetWhitelist",
      "outputs": [
        {
          "internalType": "bool",
          "name": "",
          "type": "bool"
        }
      ],
      "stateMutability": "view",
      "type": "function",
      "constant": true
    },
    {
      "inputs": [
        {
          "internalType": "address",
          "name": "newOwner",
          "type": "address"
        }
      ],
      "name": "transferOwnership",
      "outputs": [],
      "stateMutability": "nonpayable",
      "type": "function"
    },
    {
      "inputs": [],
      "name": "trustedForwarder",
      "outputs": [
        {
          "internalType": "contract IForwarder",
          "name": "",
          "type": "address"
        }
      ],
      "stateMutability": "view",
      "type": "function",
      "constant": true
    },
    {
      "inputs": [],
      "name": "useSenderWhitelist",
      "outputs": [
        {
          "internalType": "bool",
          "name": "",
          "type": "bool"
        }
      ],
      "stateMutability": "view",
      "type": "function",
      "constant": true
    },
    {
      "inputs": [],
      "name": "useTargetWhitelist",
      "outputs": [
        {
          "internalType": "bool",
          "name": "",
          "type": "bool"
        }
      ],
      "stateMutability": "view",
      "type": "function",
      "constant": true
    },
    {
      "inputs": [],
      "name": "versionPaymaster",
      "outputs": [
        {
          "internalType": "string",
          "name": "",
          "type": "string"
        }
      ],
      "stateMutability": "view",
      "type": "function",
      "constant": true
    },
    {
      "inputs": [
        {
          "internalType": "uint256",
          "name": "amount",
          "type": "uint256"
        },
        {
          "internalType": "address payable",
          "name": "target",
          "type": "address"
        }
      ],
      "name": "withdrawRelayHubDepositTo",
      "outputs": [],
      "stateMutability": "nonpayable",
      "type": "function"
    },
    {
      "stateMutability": "payable",
      "type": "receive",
      "payable": true
    },
    {
      "inputs": [
        {
          "internalType": "contract Token",
          "name": "_token",
          "type": "address"
        }
      ],
      "name": "setTokenBank",
      "outputs": [],
      "stateMutability": "nonpayable",
      "type": "function"
    },
    {
      "inputs": [
        {
          "internalType": "address",
          "name": "sender",
          "type": "address"
        }
      ],
      "name": "whitelistSender",
      "outputs": [],
      "stateMutability": "nonpayable",
      "type": "function"
    },
    {
      "inputs": [
        {
          "internalType": "address",
          "name": "target",
          "type": "address"
        }
      ],
      "name": "whitelistTarget",
      "outputs": [],
      "stateMutability": "nonpayable",
      "type": "function"
    },
    {
      "inputs": [
        {
          "components": [
            {
              "components": [
                {
                  "internalType": "address",
                  "name": "from",
                  "type": "address"
                },
                {
                  "internalType": "address",
                  "name": "to",
                  "type": "address"
                },
                {
                  "internalType": "uint256",
                  "name": "value",
                  "type": "uint256"
                },
                {
                  "internalType": "uint256",
                  "name": "gas",
                  "type": "uint256"
                },
                {
                  "internalType": "uint256",
                  "name": "nonce",
                  "type": "uint256"
                },
                {
                  "internalType": "bytes",
                  "name": "data",
                  "type": "bytes"
                },
                {
                  "internalType": "uint256",
                  "name": "validUntil",
                  "type": "uint256"
                }
              ],
              "internalType": "struct IForwarder.ForwardRequest",
              "name": "request",
              "type": "tuple"
            },
            {
              "components": [
                {
                  "internalType": "uint256",
                  "name": "gasPrice",
                  "type": "uint256"
                },
                {
                  "internalType": "uint256",
                  "name": "pctRelayFee",
                  "type": "uint256"
                },
                {
                  "internalType": "uint256",
                  "name": "baseRelayFee",
                  "type": "uint256"
                },
                {
                  "internalType": "address",
                  "name": "relayWorker",
                  "type": "address"
                },
                {
                  "internalType": "address",
                  "name": "paymaster",
                  "type": "address"
                },
                {
                  "internalType": "address",
                  "name": "forwarder",
                  "type": "address"
                },
                {
                  "internalType": "bytes",
                  "name": "paymasterData",
                  "type": "bytes"
                },
                {
                  "internalType": "uint256",
                  "name": "clientId",
                  "type": "uint256"
                }
              ],
              "internalType": "struct GsnTypes.RelayData",
              "name": "relayData",
              "type": "tuple"
            }
          ],
          "internalType": "struct GsnTypes.RelayRequest",
          "name": "relayRequest",
          "type": "tuple"
        },
        {
          "internalType": "bytes",
          "name": "signature",
          "type": "bytes"
        },
        {
          "internalType": "bytes",
          "name": "approvalData",
          "type": "bytes"
        },
        {
          "internalType": "uint256",
          "name": "maxPossibleGas",
          "type": "uint256"
        }
      ],
      "name": "preRelayedCall",
      "outputs": [
        {
          "internalType": "bytes",
          "name": "context",
          "type": "bytes"
        },
        {
          "internalType": "bool",
          "name": "revertOnRecipientRevert",
          "type": "bool"
        }
      ],
      "stateMutability": "nonpayable",
      "type": "function"
    }
  ],
  "bytecode": "0x608060405234801561001057600080fd5b5060006100216100c460201b60201c565b9050806000806101000a81548173ffffffffffffffffffffffffffffffffffffffff021916908373ffffffffffffffffffffffffffffffffffffffff1602179055508073ffffffffffffffffffffffffffffffffffffffff16600073ffffffffffffffffffffffffffffffffffffffff167f8be0079c531659141344cd1fd0a4f28419497f9722a3daafe3b4186f6b6457e060405160405180910390a3506100cc565b600033905090565b612300806100db6000396000f3fe6080604052600436106101845760003560e01c80638222f07d116100d1578063b90b41cf1161008a578063dd1bcaa111610064578063dd1bcaa114610675578063df463a66146106a0578063f2fde38b146106cb578063f9c002f7146106f4576102ab565b8063b90b41cf146105f6578063bbdaa3c914610621578063da7422281461064c576102ab565b80638222f07d146104d2578063858437b01461050f5780638da5cb5b1461054c578063921276ea14610577578063a5dcd07b146105a2578063b039a88f146105cb576102ab565b80634f28bfb91161013e57806374e861d61161011857806374e861d61461042a57806376fa01c3146104555780637bb052641461047e5780637da0a877146104a7576102ab565b80634f28bfb9146103bd5780635c5e3db1146103e8578063715018a614610413576102ab565b8062be5dd4146102b05780631cfda9fa146102ee5780632afe31c1146103175780632d14c4b7146103425780632f10a6c61461036b578063489b990e14610394576102ab565b366102ab57600073ffffffffffffffffffffffffffffffffffffffff16600160009054906101000a900473ffffffffffffffffffffffffffffffffffffffff1673ffffffffffffffffffffffffffffffffffffffff16141561021b576040517f08c379a000000000000000000000000000000000000000000000000000000000815260040161021290611f4f565b60405180910390fd5b600160009054906101000a900473ffffffffffffffffffffffffffffffffffffffff1673ffffffffffffffffffffffffffffffffffffffff1663aa67c91934306040518363ffffffff1660e01b81526004016102779190611e15565b6000604051808303818588803b15801561029057600080fd5b505af11580156102a4573d6000803e3d6000fd5b5050505050005b600080fd5b3480156102bc57600080fd5b506102d760048036038101906102d291906119db565b61071f565b6040516102e5929190611e82565b60405180910390f35b3480156102fa57600080fd5b5061031560048036038101906103109190611835565b6108dc565b005b34801561032357600080fd5b5061032c610a01565b6040516103399190611fca565b60405180910390f35b34801561034e57600080fd5b5061036960048036038101906103649190611ab7565b610ab3565b005b34801561037757600080fd5b50610392600480360381019061038d9190611835565b610bf4565b005b3480156103a057600080fd5b506103bb60048036038101906103b69190611971565b610d19565b005b3480156103c957600080fd5b506103d2610d5d565b6040516103df9190611e67565b60405180910390f35b3480156103f457600080fd5b506103fd610d70565b60405161040a9190611fca565b60405180910390f35b34801561041f57600080fd5b50610428610d76565b005b34801561043657600080fd5b5061043f610ee3565b60405161044c9190611dfa565b60405180910390f35b34801561046157600080fd5b5061047c60048036038101906104779190611887565b610f0d565b005b34801561048a57600080fd5b506104a560048036038101906104a09190611948565b610f14565b005b3480156104b357600080fd5b506104bc611007565b6040516104c99190611eb2565b60405180910390f35b3480156104de57600080fd5b506104f960048036038101906104f49190611835565b61102d565b6040516105069190611e67565b60405180910390f35b34801561051b57600080fd5b5061053660048036038101906105319190611835565b61104d565b6040516105439190611e67565b60405180910390f35b34801561055857600080fd5b5061056161106d565b60405161056e9190611dfa565b60405180910390f35b34801561058357600080fd5b5061058c611096565b6040516105999190611ecd565b60405180910390f35b3480156105ae57600080fd5b506105c960048036038101906105c4919061199a565b6110b6565b005b3480156105d757600080fd5b506105e0611173565b6040516105ed9190611faf565b60405180910390f35b34801561060257600080fd5b5061060b6111b0565b6040516106189190611fca565b60405180910390f35b34801561062d57600080fd5b506106366111b6565b6040516106439190611fca565b60405180910390f35b34801561065857600080fd5b50610673600480360381019061066e919061191f565b6111bd565b005b34801561068157600080fd5b5061068a6112b0565b6040516106979190611e67565b60405180910390f35b3480156106ac57600080fd5b506106b56112c3565b6040516106c29190611fca565b60405180910390f35b3480156106d757600080fd5b506106f260048036038101906106ed9190611835565b6112ce565b005b34801561070057600080fd5b506107096114c0565b6040516107169190611fca565b60405180910390f35b60606000600560009054906101000a900473ffffffffffffffffffffffffffffffffffffffff1673ffffffffffffffffffffffffffffffffffffffff166323b872dd898060000190610771919061200e565b60000160208101906107839190611835565b3060016040518463ffffffff1660e01b81526004016107a493929190611e30565b602060405180830381600087803b1580156107be57600080fd5b505af11580156107d2573d6000803e3d6000fd5b505050506040513d601f19601f820116820180604052508101906107f6919061185e565b50600260159054906101000a900460ff16156108ba5760046000898060000190610820919061200e565b60200160208101906108329190611835565b73ffffffffffffffffffffffffffffffffffffffff1673ffffffffffffffffffffffffffffffffffffffff16815260200190815260200160002060009054906101000a900460ff166108b9576040517f08c379a00000000000000000000000000000000000000000000000000000000081526004016108b090611f2f565b60405180910390fd5b5b6000604051806020016040528060008152509091509150965096945050505050565b6108e46114c7565b73ffffffffffffffffffffffffffffffffffffffff1661090261106d565b73ffffffffffffffffffffffffffffffffffffffff161461098b576040517f08c379a00000000000000000000000000000000000000000000000000000000081526004018080602001828103825260208152602001807f4f776e61626c653a2063616c6c6572206973206e6f7420746865206f776e657281525060200191505060405180910390fd5b6001600460008373ffffffffffffffffffffffffffffffffffffffff1673ffffffffffffffffffffffffffffffffffffffff16815260200190815260200160002060006101000a81548160ff0219169083151502179055506001600260156101000a81548160ff02191690831515021790555050565b6000600160009054906101000a900473ffffffffffffffffffffffffffffffffffffffff1673ffffffffffffffffffffffffffffffffffffffff166370a08231306040518263ffffffff1660e01b8152600401610a5e9190611e15565b60206040518083038186803b158015610a7657600080fd5b505afa158015610a8a573d6000803e3d6000fd5b505050506040513d601f19601f82011682018060405250810190610aae9190611a8e565b905090565b610abb6114c7565b73ffffffffffffffffffffffffffffffffffffffff16610ad961106d565b73ffffffffffffffffffffffffffffffffffffffff1614610b62576040517f08c379a00000000000000000000000000000000000000000000000000000000081526004018080602001828103825260208152602001807f4f776e61626c653a2063616c6c6572206973206e6f7420746865206f776e657281525060200191505060405180910390fd5b600160009054906101000a900473ffffffffffffffffffffffffffffffffffffffff1673ffffffffffffffffffffffffffffffffffffffff1662f714ce83836040518363ffffffff1660e01b8152600401610bbe929190611fe5565b600060405180830381600087803b158015610bd857600080fd5b505af1158015610bec573d6000803e3d6000fd5b505050505050565b610bfc6114c7565b73ffffffffffffffffffffffffffffffffffffffff16610c1a61106d565b73ffffffffffffffffffffffffffffffffffffffff1614610ca3576040517f08c379a00000000000000000000000000000000000000000000000000000000081526004018080602001828103825260208152602001807f4f776e61626c653a2063616c6c6572206973206e6f7420746865206f776e657281525060200191505060405180910390fd5b6001600360008373ffffffffffffffffffffffffffffffffffffffff1673ffffffffffffffffffffffffffffffffffffffff16815260200190815260200160002060006101000a81548160ff0219169083151502179055506001600260146101000a81548160ff02191690831515021790555050565b80600560006101000a81548173ffffffffffffffffffffffffffffffffffffffff021916908373ffffffffffffffffffffffffffffffffffffffff16021790555050565b600260159054906101000a900460ff1681565b61290481565b610d7e6114c7565b73ffffffffffffffffffffffffffffffffffffffff16610d9c61106d565b73ffffffffffffffffffffffffffffffffffffffff1614610e25576040517f08c379a00000000000000000000000000000000000000000000000000000000081526004018080602001828103825260208152602001807f4f776e61626c653a2063616c6c6572206973206e6f7420746865206f776e657281525060200191505060405180910390fd5b600073ffffffffffffffffffffffffffffffffffffffff1660008054906101000a900473ffffffffffffffffffffffffffffffffffffffff1673ffffffffffffffffffffffffffffffffffffffff167f8be0079c531659141344cd1fd0a4f28419497f9722a3daafe3b4186f6b6457e060405160405180910390a360008060006101000a81548173ffffffffffffffffffffffffffffffffffffffff021916908373ffffffffffffffffffffffffffffffffffffffff160217905550565b6000600160009054906101000a900473ffffffffffffffffffffffffffffffffffffffff16905090565b5050505050565b610f1c6114c7565b73ffffffffffffffffffffffffffffffffffffffff16610f3a61106d565b73ffffffffffffffffffffffffffffffffffffffff1614610fc3576040517f08c379a00000000000000000000000000000000000000000000000000000000081526004018080602001828103825260208152602001807f4f776e61626c653a2063616c6c6572206973206e6f7420746865206f776e657281525060200191505060405180910390fd5b80600160006101000a81548173ffffffffffffffffffffffffffffffffffffffff021916908373ffffffffffffffffffffffffffffffffffffffff16021790555050565b600260009054906101000a900473ffffffffffffffffffffffffffffffffffffffff1681565b60036020528060005260406000206000915054906101000a900460ff1681565b60046020528060005260406000206000915054906101000a900460ff1681565b60008060009054906101000a900473ffffffffffffffffffffffffffffffffffffffff16905090565b606060405180606001604052806029815260200161227c60299139905090565b8080602001906110c69190612032565b60a00160208101906110d89190611835565b73ffffffffffffffffffffffffffffffffffffffff16600260009054906101000a900473ffffffffffffffffffffffffffffffffffffffff1673ffffffffffffffffffffffffffffffffffffffff1614611167576040517f08c379a000000000000000000000000000000000000000000000000000000000815260040161115e90611f6f565b60405180910390fd5b611170816114cf565b50565b61117b6116cf565b604051806080016040528061c350620186a0018152602001620186a081526020016201adb08152602001612904815250905090565b61c35081565b6201adb081565b6111c56114c7565b73ffffffffffffffffffffffffffffffffffffffff166111e361106d565b73ffffffffffffffffffffffffffffffffffffffff161461126c576040517f08c379a00000000000000000000000000000000000000000000000000000000081526004018080602001828103825260208152602001807f4f776e61626c653a2063616c6c6572206973206e6f7420746865206f776e657281525060200191505060405180910390fd5b80600260006101000a81548173ffffffffffffffffffffffffffffffffffffffff021916908373ffffffffffffffffffffffffffffffffffffffff16021790555050565b600260149054906101000a900460ff1681565b61c350620186a00181565b6112d66114c7565b73ffffffffffffffffffffffffffffffffffffffff166112f461106d565b73ffffffffffffffffffffffffffffffffffffffff161461137d576040517f08c379a00000000000000000000000000000000000000000000000000000000081526004018080602001828103825260208152602001807f4f776e61626c653a2063616c6c6572206973206e6f7420746865206f776e657281525060200191505060405180910390fd5b600073ffffffffffffffffffffffffffffffffffffffff168173ffffffffffffffffffffffffffffffffffffffff161415611403576040517f08c379a00000000000000000000000000000000000000000000000000000000081526004018080602001828103825260268152602001806122a56026913960400191505060405180910390fd5b8073ffffffffffffffffffffffffffffffffffffffff1660008054906101000a900473ffffffffffffffffffffffffffffffffffffffff1673ffffffffffffffffffffffffffffffffffffffff167f8be0079c531659141344cd1fd0a4f28419497f9722a3daafe3b4186f6b6457e060405160405180910390a3806000806101000a81548173ffffffffffffffffffffffffffffffffffffffff021916908373ffffffffffffffffffffffffffffffffffffffff16021790555050565b620186a081565b600033905090565b6000808280600001906114e2919061200e565b60200160208101906114f49190611835565b73ffffffffffffffffffffffffffffffffffffffff1663572b6c0560e01b8480602001906115229190612032565b60a00160208101906115349190611835565b6040516024016115449190611dfa565b604051602081830303815290604052907bffffffffffffffffffffffffffffffffffffffffffffffffffffffff19166020820180517bffffffffffffffffffffffffffffffffffffffffffffffffffffffff83818316178352505050506040516115ae9190611de3565b600060405180830381855afa9150503d80600081146115e9576040519150601f19603f3d011682016040523d82523d6000602084013e6115ee565b606091505b509150915081611633576040517f08c379a000000000000000000000000000000000000000000000000000000000815260040161162a90611f0f565b60405180910390fd5b6020815114611677576040517f08c379a000000000000000000000000000000000000000000000000000000000815260040161166e90611f8f565b60405180910390fd5b8080602001905181019061168b919061185e565b6116ca576040517f08c379a00000000000000000000000000000000000000000000000000000000081526004016116c190611eef565b60405180910390fd5b505050565b6040518060800160405280600081526020016000815260200160008152602001600081525090565b600081359050611706816121da565b92915050565b60008135905061171b816121f1565b92915050565b60008135905061173081612208565b92915050565b60008151905061174581612208565b92915050565b60008083601f84011261175d57600080fd5b8235905067ffffffffffffffff81111561177657600080fd5b60208301915083600182028301111561178e57600080fd5b9250929050565b6000813590506117a48161221f565b92915050565b6000813590506117b981612236565b92915050565b6000813590506117ce8161224d565b92915050565b600061010082840312156117e757600080fd5b81905092915050565b60006040828403121561180257600080fd5b81905092915050565b60008135905061181a81612264565b92915050565b60008151905061182f81612264565b92915050565b60006020828403121561184757600080fd5b6000611855848285016116f7565b91505092915050565b60006020828403121561187057600080fd5b600061187e84828501611736565b91505092915050565b60008060008060006080868803121561189f57600080fd5b600086013567ffffffffffffffff8111156118b957600080fd5b6118c58882890161174b565b955095505060206118d888828901611721565b93505060406118e98882890161180b565b925050606086013567ffffffffffffffff81111561190657600080fd5b611912888289016117d4565b9150509295509295909350565b60006020828403121561193157600080fd5b600061193f84828501611795565b91505092915050565b60006020828403121561195a57600080fd5b6000611968848285016117aa565b91505092915050565b60006020828403121561198357600080fd5b6000611991848285016117bf565b91505092915050565b6000602082840312156119ac57600080fd5b600082013567ffffffffffffffff8111156119c657600080fd5b6119d2848285016117f0565b91505092915050565b600080600080600080608087890312156119f457600080fd5b600087013567ffffffffffffffff811115611a0e57600080fd5b611a1a89828a016117f0565b965050602087013567ffffffffffffffff811115611a3757600080fd5b611a4389828a0161174b565b9550955050604087013567ffffffffffffffff811115611a6257600080fd5b611a6e89828a0161174b565b93509350506060611a8189828a0161180b565b9150509295509295509295565b600060208284031215611aa057600080fd5b6000611aae84828501611820565b91505092915050565b60008060408385031215611aca57600080fd5b6000611ad88582860161180b565b9250506020611ae98582860161170c565b9150509250929050565b611afc8161212a565b82525050565b611b0b816120ac565b82525050565b611b1a8161209a565b82525050565b611b29816120be565b82525050565b6000611b3a82612057565b611b44818561206d565b9350611b54818560208601612196565b611b5d816121c9565b840191505092915050565b6000611b7382612057565b611b7d818561207e565b9350611b8d818560208601612196565b80840191505092915050565b611ba28161213c565b82525050565b611bb181612160565b82525050565b6000611bc282612062565b611bcc8185612089565b9350611bdc818560208601612196565b611be5816121c9565b840191505092915050565b6000611bfd601f83612089565b91507f696e76616c696420666f7277617264657220666f7220726563697069656e74006000830152602082019050919050565b6000611c3d601c83612089565b91507f697354727573746564466f727761726465723a207265766572746564000000006000830152602082019050919050565b6000611c7d601c83612089565b91507f4641494c205441524745542057484954454c49535420435553544f4d000000006000830152602082019050919050565b6000611cbd601983612089565b91507f72656c6179206875622061646472657373206e6f7420736574000000000000006000830152602082019050919050565b6000611cfd601883612089565b91507f466f72776172646572206973206e6f74207472757374656400000000000000006000830152602082019050919050565b6000611d3d602083612089565b91507f697354727573746564466f727761726465723a2062616420726573706f6e73656000830152602082019050919050565b608082016000820151611d866000850182611dc5565b506020820151611d996020850182611dc5565b506040820151611dac6040850182611dc5565b506060820151611dbf6060850182611dc5565b50505050565b611dce81612120565b82525050565b611ddd81612120565b82525050565b6000611def8284611b68565b915081905092915050565b6000602082019050611e0f6000830184611b11565b92915050565b6000602082019050611e2a6000830184611af3565b92915050565b6000606082019050611e456000830186611b11565b611e526020830185611af3565b611e5f6040830184611ba8565b949350505050565b6000602082019050611e7c6000830184611b20565b92915050565b60006040820190508181036000830152611e9c8185611b2f565b9050611eab6020830184611b20565b9392505050565b6000602082019050611ec76000830184611b99565b92915050565b60006020820190508181036000830152611ee78184611bb7565b905092915050565b60006020820190508181036000830152611f0881611bf0565b9050919050565b60006020820190508181036000830152611f2881611c30565b9050919050565b60006020820190508181036000830152611f4881611c70565b9050919050565b60006020820190508181036000830152611f6881611cb0565b9050919050565b60006020820190508181036000830152611f8881611cf0565b9050919050565b60006020820190508181036000830152611fa881611d30565b9050919050565b6000608082019050611fc46000830184611d70565b92915050565b6000602082019050611fdf6000830184611dd4565b92915050565b6000604082019050611ffa6000830185611dd4565b6120076020830184611b02565b9392505050565b60008235600160e00383360303811261202657600080fd5b80830191505092915050565b6000823560016101000383360303811261204b57600080fd5b80830191505092915050565b600081519050919050565b600081519050919050565b600082825260208201905092915050565b600081905092915050565b600082825260208201905092915050565b60006120a582612100565b9050919050565b60006120b782612100565b9050919050565b60008115159050919050565b60006120d58261209a565b9050919050565b60006120e78261209a565b9050919050565b60006120f98261209a565b9050919050565b600073ffffffffffffffffffffffffffffffffffffffff82169050919050565b6000819050919050565b600061213582612172565b9050919050565b60006121478261214e565b9050919050565b600061215982612100565b9050919050565b600061216b82612120565b9050919050565b600061217d82612184565b9050919050565b600061218f82612100565b9050919050565b60005b838110156121b4578082015181840152602081019050612199565b838111156121c3576000848401525b50505050565b6000601f19601f8301169050919050565b6121e38161209a565b81146121ee57600080fd5b50565b6121fa816120ac565b811461220557600080fd5b50565b612211816120be565b811461221c57600080fd5b50565b612228816120ca565b811461223357600080fd5b50565b61223f816120dc565b811461224a57600080fd5b50565b612256816120ee565b811461226157600080fd5b50565b61226d81612120565b811461227857600080fd5b5056fe322e322e302b6f70656e67736e2e61636365707465766572797468696e672e697061796d61737465724f776e61626c653a206e6577206f776e657220697320746865207a65726f2061646472657373a26469706673582212203f0d36bb13ed1529cd354553a7b43edd155c1e59a3f19d832abab64e00c2c3b864736f6c63430007060033",
  "immutableReferences": {},
  "source": "/**\n * SPDX-License-Identifier:MIT\n */\npragma solidity ^0.7.6;\npragma experimental ABIEncoderV2;\n\nimport \"@opengsn/paymasters/contracts/AcceptEverythingPaymaster.sol\";\nimport \"./TokenBank.sol\";\n\ncontract NoFeePaymaster is AcceptEverythingPaymaster {\n\n    \n\n    bool public useSenderWhitelist;\n    bool public useTargetWhitelist;\n    mapping (address=>bool) public senderWhitelist;\n    mapping (address=>bool) public targetWhitelist;\n\n    Token private token;\n\n    function setTokenBank(Token _token) public {\n        token = _token;\n    }\n\n\n    function whitelistSender(address sender) public onlyOwner {\n        senderWhitelist[sender]=true;\n        useSenderWhitelist = true;\n    }\n    function whitelistTarget(address target) public onlyOwner {\n        targetWhitelist[target]=true;\n        useTargetWhitelist = true;\n    }\n\n    function preRelayedCall(\n        GsnTypes.RelayRequest calldata relayRequest,\n        bytes calldata signature,\n        bytes calldata approvalData,\n        uint256 maxPossibleGas\n    )\n    external\n    override\n    virtual\n    returns (bytes memory context, bool revertOnRecipientRevert) {\n        (relayRequest, signature, approvalData, maxPossibleGas);\n\n        \n        token.transferFrom(relayRequest.request.from,address(this),1);        \n\n\n        if (useTargetWhitelist) {\n            require( targetWhitelist[relayRequest.request.to], \"FAIL TARGET WHITELIST CUSTOM\");\n        }\n        return (\"\", false);\n    }\n\n\n\n}\n",
  "sourcePath": "C:\\Users\\nomif\\Desktop\\Programming\\Blockchain\\ethereum-gasless-transactions\\OpenGSN\\contracts\\NoFeePaymaster.sol",
  "compiler": {
    "name": "solc",
    "version": "0.7.6+commit.7338295f.Emscripten.clang"
  },
  "schemaVersion": "3.4.3",
  "updatedAt": "2021-10-27T19:47:54.870Z",
  "networkType": "ethereum",
  "devdoc": {
    "kind": "dev",
    "methods": {
      "owner()": {
        "details": "Returns the address of the current owner."
      },
      "postRelayedCall(bytes,bool,uint256,(uint256,uint256,uint256,address,address,address,bytes,uint256))": {
        "params": {
          "context": "- the call context, as returned by the preRelayedCall",
          "gasUseWithoutPost": "- the actual amount of gas used by the entire transaction, EXCEPT        the gas used by the postRelayedCall itself.",
          "relayData": "- the relay params of the request. can be used by relayHub.calculateCharge() Revert in this functions causes a revert of the client's relayed call (and preRelayedCall(), but the Paymaster is still committed to pay the relay for the entire transaction.",
          "success": "- true if the relayed call succeeded, false if it reverted"
        }
      },
      "preRelayedCall(((address,address,uint256,uint256,uint256,bytes,uint256),(uint256,uint256,uint256,address,address,address,bytes,uint256)),bytes,bytes,uint256)": {
        "params": {
          "approvalData": "- extra dapp-specific data (e.g. signature from trusted party)",
          "maxPossibleGas": "- based on values returned from {@link getGasAndDataLimits},         the RelayHub will calculate the maximum possible amount of gas the user may be charged for.         In order to convert this value to wei, the Paymaster has to call \"relayHub.calculateCharge()\"  return:      a context to be passed to postRelayedCall      rejectOnRecipientRevert - TRUE if paymaster want to reject the TX if the recipient reverts.          FALSE means that rejects by the recipient will be completed on chain, and paid by the paymaster.          (note that in the latter case, the preRelayedCall and postRelayedCall are not reverted).",
          "relayRequest": "- the full relay request structure",
          "signature": "- user's EIP712-compatible signature of the {@link relayRequest}.              Note that in most cases the paymaster shouldn't try use it at all. It is always checked              by the forwarder immediately after preRelayedCall returns."
        }
      },
      "renounceOwnership()": {
        "details": "Leaves the contract without owner. It will not be possible to call `onlyOwner` functions anymore. Can only be called by the current owner. NOTE: Renouncing ownership will leave the contract without an owner, thereby removing any functionality that is only available to the owner."
      },
      "transferOwnership(address)": {
        "details": "Transfers ownership of the contract to a new account (`newOwner`). Can only be called by the current owner."
      }
    },
    "version": 1
  },
  "userdoc": {
    "kind": "user",
    "methods": {
      "getGasAndDataLimits()": {
        "notice": "Return the Gas Limits and msg.data max size constants used by the Paymaster."
      },
      "getHubAddr()": {
        "notice": "return the relayHub of this contract."
      },
      "getRelayHubDeposit()": {
        "notice": "check current deposit on relay hub."
      },
      "postRelayedCall(bytes,bool,uint256,(uint256,uint256,uint256,address,address,address,bytes,uint256))": {
        "notice": "This method is called after the actual relayed function call. It may be used to record the transaction (e.g. charge the caller by some contract logic) for this call. MUST be protected with relayHubOnly() in case it modifies state."
      },
      "preRelayedCall(((address,address,uint256,uint256,uint256,bytes,uint256),(uint256,uint256,uint256,address,address,address,bytes,uint256)),bytes,bytes,uint256)": {
        "notice": "Called by Relay (and RelayHub), to validate if the paymaster agrees to pay for this call. MUST be protected with relayHubOnly() in case it modifies state. The Paymaster rejects by the following \"revert\" operations  - preRelayedCall() method reverts  - the forwarder reverts because of nonce or signature error  - the paymaster returned \"rejectOnRecipientRevert\", and the recipient contract reverted. In any of the above cases, all paymaster calls (and recipient call) are reverted. In any other case, the paymaster agrees to pay for the gas cost of the transaction (note  that this includes also postRelayedCall revert) The rejectOnRecipientRevert flag means the Paymaster \"delegate\" the rejection to the recipient  code.  It also means the Paymaster trust the recipient to reject fast: both preRelayedCall,  forwarder check and receipient checks must fit into the GasLimits.acceptanceBudget,  otherwise the TX is paid by the Paymaster."
      },
      "withdrawRelayHubDepositTo(uint256,address)": {
        "notice": "withdraw deposit from relayHub"
      }
    },
    "version": 1
  }
}