{
  "contractName": "TargetContract",
  "abi": [
    {
      "inputs": [
        {
          "internalType": "address",
          "name": "forwarder",
          "type": "address"
        }
      ],
      "stateMutability": "nonpayable",
      "type": "constructor"
    },
    {
      "anonymous": false,
      "inputs": [
        {
          "indexed": false,
          "internalType": "address",
          "name": "previousHolder",
          "type": "address"
        },
        {
          "indexed": false,
          "internalType": "address",
          "name": "currentHolder",
          "type": "address"
        }
      ],
      "name": "NoFeeFlagCaptured",
      "type": "event"
    },
    {
      "anonymous": false,
      "inputs": [
        {
          "indexed": false,
          "internalType": "address",
          "name": "previousHolder",
          "type": "address"
        },
        {
          "indexed": false,
          "internalType": "address",
          "name": "currentHolder",
          "type": "address"
        }
      ],
      "name": "TokenFeeFlagCaptured",
      "type": "event"
    },
    {
      "inputs": [],
      "name": "currentHolder",
      "outputs": [
        {
          "internalType": "address",
          "name": "",
          "type": "address"
        }
      ],
      "stateMutability": "view",
      "type": "function",
      "constant": true
    },
    {
      "inputs": [
        {
          "internalType": "address",
          "name": "forwarder",
          "type": "address"
        }
      ],
      "name": "isTrustedForwarder",
      "outputs": [
        {
          "internalType": "bool",
          "name": "",
          "type": "bool"
        }
      ],
      "stateMutability": "view",
      "type": "function",
      "constant": true
    },
    {
      "inputs": [],
      "name": "trustedForwarder",
      "outputs": [
        {
          "internalType": "address",
          "name": "",
          "type": "address"
        }
      ],
      "stateMutability": "view",
      "type": "function",
      "constant": true
    },
    {
      "inputs": [],
      "name": "versionRecipient",
      "outputs": [
        {
          "internalType": "string",
          "name": "",
          "type": "string"
        }
      ],
      "stateMutability": "view",
      "type": "function",
      "constant": true
    },
    {
      "inputs": [],
      "name": "noCommissionTx",
      "outputs": [],
      "stateMutability": "nonpayable",
      "type": "function"
    },
    {
      "inputs": [],
      "name": "tokenCommissionTx",
      "outputs": [],
      "stateMutability": "nonpayable",
      "type": "function"
    }
  ],
  "bytecode": "0x60806040526000600160006101000a81548173ffffffffffffffffffffffffffffffffffffffff021916908373ffffffffffffffffffffffffffffffffffffffff1602179055506040518060400160405280600581526020017f322e322e3000000000000000000000000000000000000000000000000000000081525060029080519060200190610091929190610118565b5034801561009e57600080fd5b50604051610742380380610742833981810160405260208110156100c157600080fd5b8101908080519060200190929190505050806000806101000a81548173ffffffffffffffffffffffffffffffffffffffff021916908373ffffffffffffffffffffffffffffffffffffffff160217905550506101c3565b828054600181600116156101000203166002900490600052602060002090601f01602090048101928261014e5760008555610195565b82601f1061016757805160ff1916838001178555610195565b82800160010185558215610195579182015b82811115610194578251825591602001919060010190610179565b5b5090506101a291906101a6565b5090565b5b808211156101bf5760008160009055506001016101a7565b5090565b610570806101d26000396000f3fe608060405234801561001057600080fd5b50600436106100615760003560e01c80624225b814610066578063150fadb61461009a578063486ff0cd146100a4578063572b6c051461012757806377cb47cc146101815780637da0a8771461018b575b600080fd5b61006e6101bf565b604051808273ffffffffffffffffffffffffffffffffffffffff16815260200191505060405180910390f35b6100a26101e5565b005b6100ac6102e4565b6040518080602001828103825283818151815260200191508051906020019080838360005b838110156100ec5780820151818401526020810190506100d1565b50505050905090810190601f1680156101195780820380516001836020036101000a031916815260200191505b509250505060405180910390f35b6101696004803603602081101561013d57600080fd5b81019080803573ffffffffffffffffffffffffffffffffffffffff169060200190929190505050610382565b60405180821515815260200191505060405180910390f35b6101896103db565b005b6101936104da565b604051808273ffffffffffffffffffffffffffffffffffffffff16815260200191505060405180910390f35b600160009054906101000a900473ffffffffffffffffffffffffffffffffffffffff1681565b6000600160009054906101000a900473ffffffffffffffffffffffffffffffffffffffff1690506102146104fe565b600160006101000a81548173ffffffffffffffffffffffffffffffffffffffff021916908373ffffffffffffffffffffffffffffffffffffffff1602179055507fe0715f4f7be8912ca1d8b6410a1bcb07469abb30af298141e722227826e1133981600160009054906101000a900473ffffffffffffffffffffffffffffffffffffffff16604051808373ffffffffffffffffffffffffffffffffffffffff1681526020018273ffffffffffffffffffffffffffffffffffffffff1681526020019250505060405180910390a150565b60028054600181600116156101000203166002900480601f01602080910402602001604051908101604052809291908181526020018280546001816001161561010002031660029004801561037a5780601f1061034f5761010080835404028352916020019161037a565b820191906000526020600020905b81548152906001019060200180831161035d57829003601f168201915b505050505081565b60008060009054906101000a900473ffffffffffffffffffffffffffffffffffffffff1673ffffffffffffffffffffffffffffffffffffffff168273ffffffffffffffffffffffffffffffffffffffff16149050919050565b6000600160009054906101000a900473ffffffffffffffffffffffffffffffffffffffff16905061040a6104fe565b600160006101000a81548173ffffffffffffffffffffffffffffffffffffffff021916908373ffffffffffffffffffffffffffffffffffffffff1602179055507fb7751414d51365bd117121a81f098c3846ed385ba6abd6bf178b2485da5a865081600160009054906101000a900473ffffffffffffffffffffffffffffffffffffffff16604051808373ffffffffffffffffffffffffffffffffffffffff1681526020018273ffffffffffffffffffffffffffffffffffffffff1681526020019250505060405180910390a150565b60008054906101000a900473ffffffffffffffffffffffffffffffffffffffff1681565b6000601460003690501015801561051a575061051933610382565b5b1561052e57601436033560601c9050610536565b339050610537565b5b9056fea2646970667358221220e64b576cdc8813a7c86264196a64a6ac6bcfd28854effcaa160813185b66673c64736f6c63430007060033",
  "immutableReferences": {},
  "source": "/**\n * SPDX-License-Identifier:MIT\n */\npragma solidity ^0.7.6;\n\nimport \"@opengsn/contracts/src/BaseRelayRecipient.sol\";\n\ncontract TargetContract is BaseRelayRecipient {\n\n    event NoFeeFlagCaptured(address previousHolder, address currentHolder);\n    event TokenFeeFlagCaptured(address previousHolder, address currentHolder);\n\n    address public currentHolder = address(0);\n\n    constructor(address forwarder) {\n      trustedForwarder = forwarder;\n    }\n\n    string public override versionRecipient = \"2.2.0\";\n\n    //mapping[address] => token_balance \n\n    function noCommissionTx() external {\n        address previousHolder = currentHolder;\n\n        currentHolder = _msgSender();\n        \n\n        emit NoFeeFlagCaptured(previousHolder, currentHolder);\n    }\n\n    function tokenCommissionTx() external {\n        address previousHolder = currentHolder;\n\n        currentHolder = _msgSender();\n        \n\n        emit TokenFeeFlagCaptured(previousHolder, currentHolder);\n    }\n\n\n\n}\n",
  "sourcePath": "C:\\Users\\nomif\\Desktop\\Programming\\Blockchain\\ethereum-gasless-transactions\\OpenGSN\\contracts\\TargetContract.sol",
  "compiler": {
    "name": "solc",
    "version": "0.7.6+commit.7338295f.Emscripten.clang"
  },
  "schemaVersion": "3.4.3",
  "updatedAt": "2021-10-27T19:47:54.864Z",
  "networkType": "ethereum",
  "devdoc": {
    "kind": "dev",
    "methods": {},
    "version": 1
  },
  "userdoc": {
    "kind": "user",
    "methods": {
      "isTrustedForwarder(address)": {
        "notice": "return if the forwarder is trusted to forward relayed transactions to us. the forwarder is required to verify the sender's signature, and verify the call is not a replay."
      }
    },
    "version": 1
  }
}