{
  "contractName": "TargetContract",
  "abi": [
    {
      "inputs": [
        {
          "internalType": "address",
          "name": "forwarder",
          "type": "address"
        }
      ],
      "stateMutability": "nonpayable",
      "type": "constructor"
    },
    {
      "anonymous": false,
      "inputs": [
        {
          "indexed": false,
          "internalType": "address",
          "name": "sender",
          "type": "address"
        }
      ],
      "name": "NoFeeFlagCaptured",
      "type": "event"
    },
    {
      "anonymous": false,
      "inputs": [
        {
          "indexed": false,
          "internalType": "address",
          "name": "sender",
          "type": "address"
        }
      ],
      "name": "TokenFeeFlagCaptured",
      "type": "event"
    },
    {
      "inputs": [
        {
          "internalType": "address",
          "name": "forwarder",
          "type": "address"
        }
      ],
      "name": "isTrustedForwarder",
      "outputs": [
        {
          "internalType": "bool",
          "name": "",
          "type": "bool"
        }
      ],
      "stateMutability": "view",
      "type": "function",
      "constant": true
    },
    {
      "inputs": [],
      "name": "trustedForwarder",
      "outputs": [
        {
          "internalType": "address",
          "name": "",
          "type": "address"
        }
      ],
      "stateMutability": "view",
      "type": "function",
      "constant": true
    },
    {
      "inputs": [],
      "name": "versionRecipient",
      "outputs": [
        {
          "internalType": "string",
          "name": "",
          "type": "string"
        }
      ],
      "stateMutability": "view",
      "type": "function",
      "constant": true
    },
    {
      "inputs": [],
      "name": "noCommissionTx",
      "outputs": [],
      "stateMutability": "nonpayable",
      "type": "function"
    },
    {
      "inputs": [],
      "name": "tokenCommissionTx",
      "outputs": [],
      "stateMutability": "nonpayable",
      "type": "function"
    }
  ],
  "bytecode": "0x60806040526040518060400160405280600581526020017f322e322e300000000000000000000000000000000000000000000000000000008152506001908051906020019061004f9291906100d6565b5034801561005c57600080fd5b5060405161054a38038061054a8339818101604052602081101561007f57600080fd5b8101908080519060200190929190505050806000806101000a81548173ffffffffffffffffffffffffffffffffffffffff021916908373ffffffffffffffffffffffffffffffffffffffff16021790555050610181565b828054600181600116156101000203166002900490600052602060002090601f01602090048101928261010c5760008555610153565b82601f1061012557805160ff1916838001178555610153565b82800160010185558215610153579182015b82811115610152578251825591602001919060010190610137565b5b5090506101609190610164565b5090565b5b8082111561017d576000816000905550600101610165565b5090565b6103ba806101906000396000f3fe608060405234801561001057600080fd5b50600436106100575760003560e01c8063150fadb61461005c578063486ff0cd14610066578063572b6c05146100e957806377cb47cc146101435780637da0a8771461014d575b600080fd5b610064610181565b005b61006e6101d7565b6040518080602001828103825283818151815260200191508051906020019080838360005b838110156100ae578082015181840152602081019050610093565b50505050905090810190601f1680156100db5780820380516001836020036101000a031916815260200191505b509250505060405180910390f35b61012b600480360360208110156100ff57600080fd5b81019080803573ffffffffffffffffffffffffffffffffffffffff169060200190929190505050610275565b60405180821515815260200191505060405180910390f35b61014b6102ce565b005b610155610324565b604051808273ffffffffffffffffffffffffffffffffffffffff16815260200191505060405180910390f35b7ff3dc38beeae0c854a36e8aa90aef24baf0b556f4d40f67a35acd7a1a31d49df26101aa610348565b604051808273ffffffffffffffffffffffffffffffffffffffff16815260200191505060405180910390a1565b60018054600181600116156101000203166002900480601f01602080910402602001604051908101604052809291908181526020018280546001816001161561010002031660029004801561026d5780601f106102425761010080835404028352916020019161026d565b820191906000526020600020905b81548152906001019060200180831161025057829003601f168201915b505050505081565b60008060009054906101000a900473ffffffffffffffffffffffffffffffffffffffff1673ffffffffffffffffffffffffffffffffffffffff168273ffffffffffffffffffffffffffffffffffffffff16149050919050565b7fbdb7b268444248e746dd524874c8946efd2594884e9a55cb6a034942063393cb6102f7610348565b604051808273ffffffffffffffffffffffffffffffffffffffff16815260200191505060405180910390a1565b60008054906101000a900473ffffffffffffffffffffffffffffffffffffffff1681565b60006014600036905010158015610364575061036333610275565b5b1561037857601436033560601c9050610380565b339050610381565b5b9056fea264697066735822122016d583eabf9e946ac8210005aa8e83842624b4fe9db63ea87af22a1ce0f89b1b64736f6c63430007060033",
  "immutableReferences": {},
  "source": "/**\r\n * SPDX-License-Identifier:MIT\r\n */\r\npragma solidity ^0.7.6;\r\n\r\nimport \"@opengsn/contracts/src/BaseRelayRecipient.sol\";\r\nimport \"./TokenBank.sol\";\r\n\r\ncontract TargetContract is BaseRelayRecipient {\r\n\r\n    event NoFeeFlagCaptured(address sender);\r\n    event TokenFeeFlagCaptured(address sender);\r\n\r\n    constructor(address forwarder) {\r\n      trustedForwarder = forwarder;\r\n    }\r\n\r\n\r\n    string public override versionRecipient = \"2.2.0\";\r\n\r\n\r\n    function noCommissionTx() public {\r\n        emit NoFeeFlagCaptured(_msgSender());\r\n    }\r\n    \r\n    function tokenCommissionTx() public {\r\n        emit TokenFeeFlagCaptured(_msgSender());\r\n\r\n    }\r\n\r\n\r\n\r\n}\r\n",
  "sourcePath": "C:\\Users\\nomif\\Desktop\\Programming\\Blockchain\\ethereum-gasless-transactions\\OpenGSN\\contracts\\TargetContract.sol",
  "compiler": {
    "name": "solc",
    "version": "0.7.6+commit.7338295f.Emscripten.clang"
  },
  "schemaVersion": "3.4.3",
  "updatedAt": "2021-11-18T14:19:51.880Z",
  "networkType": "ethereum",
  "devdoc": {
    "kind": "dev",
    "methods": {},
    "version": 1
  },
  "userdoc": {
    "kind": "user",
    "methods": {
      "isTrustedForwarder(address)": {
        "notice": "return if the forwarder is trusted to forward relayed transactions to us. the forwarder is required to verify the sender's signature, and verify the call is not a replay."
      }
    },
    "version": 1
  }
}