{
  "contractName": "TokenFeePaymaster",
  "abi": [
    {
      "anonymous": false,
      "inputs": [
        {
          "indexed": true,
          "internalType": "address",
          "name": "previousOwner",
          "type": "address"
        },
        {
          "indexed": true,
          "internalType": "address",
          "name": "newOwner",
          "type": "address"
        }
      ],
      "name": "OwnershipTransferred",
      "type": "event"
    },
    {
      "inputs": [],
      "name": "CALLDATA_SIZE_LIMIT",
      "outputs": [
        {
          "internalType": "uint256",
          "name": "",
          "type": "uint256"
        }
      ],
      "stateMutability": "view",
      "type": "function",
      "constant": true
    },
    {
      "inputs": [],
      "name": "FORWARDER_HUB_OVERHEAD",
      "outputs": [
        {
          "internalType": "uint256",
          "name": "",
          "type": "uint256"
        }
      ],
      "stateMutability": "view",
      "type": "function",
      "constant": true
    },
    {
      "inputs": [],
      "name": "PAYMASTER_ACCEPTANCE_BUDGET",
      "outputs": [
        {
          "internalType": "uint256",
          "name": "",
          "type": "uint256"
        }
      ],
      "stateMutability": "view",
      "type": "function",
      "constant": true
    },
    {
      "inputs": [],
      "name": "POST_RELAYED_CALL_GAS_LIMIT",
      "outputs": [
        {
          "internalType": "uint256",
          "name": "",
          "type": "uint256"
        }
      ],
      "stateMutability": "view",
      "type": "function",
      "constant": true
    },
    {
      "inputs": [],
      "name": "PRE_RELAYED_CALL_GAS_LIMIT",
      "outputs": [
        {
          "internalType": "uint256",
          "name": "",
          "type": "uint256"
        }
      ],
      "stateMutability": "view",
      "type": "function",
      "constant": true
    },
    {
      "inputs": [
        {
          "components": [
            {
              "components": [
                {
                  "internalType": "address",
                  "name": "from",
                  "type": "address"
                },
                {
                  "internalType": "address",
                  "name": "to",
                  "type": "address"
                },
                {
                  "internalType": "uint256",
                  "name": "value",
                  "type": "uint256"
                },
                {
                  "internalType": "uint256",
                  "name": "gas",
                  "type": "uint256"
                },
                {
                  "internalType": "uint256",
                  "name": "nonce",
                  "type": "uint256"
                },
                {
                  "internalType": "bytes",
                  "name": "data",
                  "type": "bytes"
                },
                {
                  "internalType": "uint256",
                  "name": "validUntil",
                  "type": "uint256"
                }
              ],
              "internalType": "struct IForwarder.ForwardRequest",
              "name": "request",
              "type": "tuple"
            },
            {
              "components": [
                {
                  "internalType": "uint256",
                  "name": "gasPrice",
                  "type": "uint256"
                },
                {
                  "internalType": "uint256",
                  "name": "pctRelayFee",
                  "type": "uint256"
                },
                {
                  "internalType": "uint256",
                  "name": "baseRelayFee",
                  "type": "uint256"
                },
                {
                  "internalType": "address",
                  "name": "relayWorker",
                  "type": "address"
                },
                {
                  "internalType": "address",
                  "name": "paymaster",
                  "type": "address"
                },
                {
                  "internalType": "address",
                  "name": "forwarder",
                  "type": "address"
                },
                {
                  "internalType": "bytes",
                  "name": "paymasterData",
                  "type": "bytes"
                },
                {
                  "internalType": "uint256",
                  "name": "clientId",
                  "type": "uint256"
                }
              ],
              "internalType": "struct GsnTypes.RelayData",
              "name": "relayData",
              "type": "tuple"
            }
          ],
          "internalType": "struct GsnTypes.RelayRequest",
          "name": "relayRequest",
          "type": "tuple"
        }
      ],
      "name": "_verifyForwarder",
      "outputs": [],
      "stateMutability": "view",
      "type": "function",
      "constant": true
    },
    {
      "inputs": [],
      "name": "getGasAndDataLimits",
      "outputs": [
        {
          "components": [
            {
              "internalType": "uint256",
              "name": "acceptanceBudget",
              "type": "uint256"
            },
            {
              "internalType": "uint256",
              "name": "preRelayedCallGasLimit",
              "type": "uint256"
            },
            {
              "internalType": "uint256",
              "name": "postRelayedCallGasLimit",
              "type": "uint256"
            },
            {
              "internalType": "uint256",
              "name": "calldataSizeLimit",
              "type": "uint256"
            }
          ],
          "internalType": "struct IPaymaster.GasAndDataLimits",
          "name": "limits",
          "type": "tuple"
        }
      ],
      "stateMutability": "view",
      "type": "function",
      "constant": true
    },
    {
      "inputs": [],
      "name": "getHubAddr",
      "outputs": [
        {
          "internalType": "address",
          "name": "",
          "type": "address"
        }
      ],
      "stateMutability": "view",
      "type": "function",
      "constant": true
    },
    {
      "inputs": [],
      "name": "getRelayHubDeposit",
      "outputs": [
        {
          "internalType": "uint256",
          "name": "",
          "type": "uint256"
        }
      ],
      "stateMutability": "view",
      "type": "function",
      "constant": true
    },
    {
      "inputs": [],
      "name": "owner",
      "outputs": [
        {
          "internalType": "address",
          "name": "",
          "type": "address"
        }
      ],
      "stateMutability": "view",
      "type": "function",
      "constant": true
    },
    {
      "inputs": [
        {
          "internalType": "bytes",
          "name": "context",
          "type": "bytes"
        },
        {
          "internalType": "bool",
          "name": "success",
          "type": "bool"
        },
        {
          "internalType": "uint256",
          "name": "gasUseWithoutPost",
          "type": "uint256"
        },
        {
          "components": [
            {
              "internalType": "uint256",
              "name": "gasPrice",
              "type": "uint256"
            },
            {
              "internalType": "uint256",
              "name": "pctRelayFee",
              "type": "uint256"
            },
            {
              "internalType": "uint256",
              "name": "baseRelayFee",
              "type": "uint256"
            },
            {
              "internalType": "address",
              "name": "relayWorker",
              "type": "address"
            },
            {
              "internalType": "address",
              "name": "paymaster",
              "type": "address"
            },
            {
              "internalType": "address",
              "name": "forwarder",
              "type": "address"
            },
            {
              "internalType": "bytes",
              "name": "paymasterData",
              "type": "bytes"
            },
            {
              "internalType": "uint256",
              "name": "clientId",
              "type": "uint256"
            }
          ],
          "internalType": "struct GsnTypes.RelayData",
          "name": "relayData",
          "type": "tuple"
        }
      ],
      "name": "postRelayedCall",
      "outputs": [],
      "stateMutability": "nonpayable",
      "type": "function"
    },
    {
      "inputs": [],
      "name": "renounceOwnership",
      "outputs": [],
      "stateMutability": "nonpayable",
      "type": "function"
    },
    {
      "inputs": [
        {
          "internalType": "contract IRelayHub",
          "name": "hub",
          "type": "address"
        }
      ],
      "name": "setRelayHub",
      "outputs": [],
      "stateMutability": "nonpayable",
      "type": "function"
    },
    {
      "inputs": [
        {
          "internalType": "contract IForwarder",
          "name": "forwarder",
          "type": "address"
        }
      ],
      "name": "setTrustedForwarder",
      "outputs": [],
      "stateMutability": "nonpayable",
      "type": "function"
    },
    {
      "inputs": [
        {
          "internalType": "address",
          "name": "",
          "type": "address"
        }
      ],
      "name": "targetWhitelist",
      "outputs": [
        {
          "internalType": "bool",
          "name": "",
          "type": "bool"
        }
      ],
      "stateMutability": "view",
      "type": "function",
      "constant": true
    },
    {
      "inputs": [
        {
          "internalType": "address",
          "name": "newOwner",
          "type": "address"
        }
      ],
      "name": "transferOwnership",
      "outputs": [],
      "stateMutability": "nonpayable",
      "type": "function"
    },
    {
      "inputs": [],
      "name": "trustedForwarder",
      "outputs": [
        {
          "internalType": "contract IForwarder",
          "name": "",
          "type": "address"
        }
      ],
      "stateMutability": "view",
      "type": "function",
      "constant": true
    },
    {
      "inputs": [],
      "name": "useTargetWhitelist",
      "outputs": [
        {
          "internalType": "bool",
          "name": "",
          "type": "bool"
        }
      ],
      "stateMutability": "view",
      "type": "function",
      "constant": true
    },
    {
      "inputs": [],
      "name": "versionPaymaster",
      "outputs": [
        {
          "internalType": "string",
          "name": "",
          "type": "string"
        }
      ],
      "stateMutability": "view",
      "type": "function",
      "constant": true
    },
    {
      "inputs": [
        {
          "internalType": "uint256",
          "name": "amount",
          "type": "uint256"
        },
        {
          "internalType": "address payable",
          "name": "target",
          "type": "address"
        }
      ],
      "name": "withdrawRelayHubDepositTo",
      "outputs": [],
      "stateMutability": "nonpayable",
      "type": "function"
    },
    {
      "stateMutability": "payable",
      "type": "receive",
      "payable": true
    },
    {
      "inputs": [
        {
          "internalType": "contract Token",
          "name": "_token",
          "type": "address"
        }
      ],
      "name": "setToken",
      "outputs": [],
      "stateMutability": "nonpayable",
      "type": "function"
    },
    {
      "inputs": [
        {
          "internalType": "address",
          "name": "target",
          "type": "address"
        }
      ],
      "name": "whitelistTarget",
      "outputs": [],
      "stateMutability": "nonpayable",
      "type": "function"
    },
    {
      "inputs": [
        {
          "components": [
            {
              "components": [
                {
                  "internalType": "address",
                  "name": "from",
                  "type": "address"
                },
                {
                  "internalType": "address",
                  "name": "to",
                  "type": "address"
                },
                {
                  "internalType": "uint256",
                  "name": "value",
                  "type": "uint256"
                },
                {
                  "internalType": "uint256",
                  "name": "gas",
                  "type": "uint256"
                },
                {
                  "internalType": "uint256",
                  "name": "nonce",
                  "type": "uint256"
                },
                {
                  "internalType": "bytes",
                  "name": "data",
                  "type": "bytes"
                },
                {
                  "internalType": "uint256",
                  "name": "validUntil",
                  "type": "uint256"
                }
              ],
              "internalType": "struct IForwarder.ForwardRequest",
              "name": "request",
              "type": "tuple"
            },
            {
              "components": [
                {
                  "internalType": "uint256",
                  "name": "gasPrice",
                  "type": "uint256"
                },
                {
                  "internalType": "uint256",
                  "name": "pctRelayFee",
                  "type": "uint256"
                },
                {
                  "internalType": "uint256",
                  "name": "baseRelayFee",
                  "type": "uint256"
                },
                {
                  "internalType": "address",
                  "name": "relayWorker",
                  "type": "address"
                },
                {
                  "internalType": "address",
                  "name": "paymaster",
                  "type": "address"
                },
                {
                  "internalType": "address",
                  "name": "forwarder",
                  "type": "address"
                },
                {
                  "internalType": "bytes",
                  "name": "paymasterData",
                  "type": "bytes"
                },
                {
                  "internalType": "uint256",
                  "name": "clientId",
                  "type": "uint256"
                }
              ],
              "internalType": "struct GsnTypes.RelayData",
              "name": "relayData",
              "type": "tuple"
            }
          ],
          "internalType": "struct GsnTypes.RelayRequest",
          "name": "relayRequest",
          "type": "tuple"
        },
        {
          "internalType": "bytes",
          "name": "signature",
          "type": "bytes"
        },
        {
          "internalType": "bytes",
          "name": "approvalData",
          "type": "bytes"
        },
        {
          "internalType": "uint256",
          "name": "maxPossibleGas",
          "type": "uint256"
        }
      ],
      "name": "preRelayedCall",
      "outputs": [
        {
          "internalType": "bytes",
          "name": "context",
          "type": "bytes"
        },
        {
          "internalType": "bool",
          "name": "revertOnRecipientRevert",
          "type": "bool"
        }
      ],
      "stateMutability": "nonpayable",
      "type": "function"
    }
  ],
  "bytecode": "0x60806040526001600555600160065534801561001a57600080fd5b50600061002b6100ce60201b60201c565b9050806000806101000a81548173ffffffffffffffffffffffffffffffffffffffff021916908373ffffffffffffffffffffffffffffffffffffffff1602179055508073ffffffffffffffffffffffffffffffffffffffff16600073ffffffffffffffffffffffffffffffffffffffff167f8be0079c531659141344cd1fd0a4f28419497f9722a3daafe3b4186f6b6457e060405160405180910390a3506100d6565b600033905090565b6123a8806100e56000396000f3fe6080604052600436106101435760003560e01c80637da0a877116100b6578063b90b41cf1161006f578063b90b41cf1461054f578063bbdaa3c91461057a578063da742228146105a5578063df463a66146105ce578063f2fde38b146105f9578063f9c002f7146106225761026a565b80637da0a8771461043d578063858437b0146104685780638da5cb5b146104a5578063921276ea146104d0578063a5dcd07b146104fb578063b039a88f146105245761026a565b80634f28bfb9116101085780634f28bfb9146103535780635c5e3db11461037e578063715018a6146103a957806374e861d6146103c057806376fa01c3146103eb5780637bb05264146104145761026a565b8062be5dd41461026f578063144fa6d7146102ad5780631cfda9fa146102d65780632afe31c1146102ff5780632d14c4b71461032a5761026a565b3661026a57600073ffffffffffffffffffffffffffffffffffffffff16600160009054906101000a900473ffffffffffffffffffffffffffffffffffffffff1673ffffffffffffffffffffffffffffffffffffffff1614156101da576040517f08c379a00000000000000000000000000000000000000000000000000000000081526004016101d190611fe9565b60405180910390fd5b600160009054906101000a900473ffffffffffffffffffffffffffffffffffffffff1673ffffffffffffffffffffffffffffffffffffffff1663aa67c91934306040518363ffffffff1660e01b81526004016102369190611e4f565b6000604051808303818588803b15801561024f57600080fd5b505af1158015610263573d6000803e3d6000fd5b5050505050005b600080fd5b34801561027b57600080fd5b50610296600480360381019061029191906119be565b61064d565b6040516102a4929190611f1c565b60405180910390f35b3480156102b957600080fd5b506102d460048036038101906102cf9190611954565b610a17565b005b3480156102e257600080fd5b506102fd60048036038101906102f89190611818565b610a5b565b005b34801561030b57600080fd5b50610314610b80565b6040516103219190612084565b60405180910390f35b34801561033657600080fd5b50610351600480360381019061034c9190611a9a565b610c32565b005b34801561035f57600080fd5b50610368610d73565b6040516103759190611f01565b60405180910390f35b34801561038a57600080fd5b50610393610d86565b6040516103a09190612084565b60405180910390f35b3480156103b557600080fd5b506103be610d8c565b005b3480156103cc57600080fd5b506103d5610ef9565b6040516103e29190611e34565b60405180910390f35b3480156103f757600080fd5b50610412600480360381019061040d919061186a565b610f23565b005b34801561042057600080fd5b5061043b6004803603810190610436919061192b565b610f2a565b005b34801561044957600080fd5b5061045261101d565b60405161045f9190611f4c565b60405180910390f35b34801561047457600080fd5b5061048f600480360381019061048a9190611818565b611043565b60405161049c9190611f01565b60405180910390f35b3480156104b157600080fd5b506104ba611063565b6040516104c79190611e34565b60405180910390f35b3480156104dc57600080fd5b506104e561108c565b6040516104f29190611f67565b60405180910390f35b34801561050757600080fd5b50610522600480360381019061051d919061197d565b6110ac565b005b34801561053057600080fd5b50610539611169565b6040516105469190612069565b60405180910390f35b34801561055b57600080fd5b506105646111a6565b6040516105719190612084565b60405180910390f35b34801561058657600080fd5b5061058f6111ac565b60405161059c9190612084565b60405180910390f35b3480156105b157600080fd5b506105cc60048036038101906105c79190611902565b6111b3565b005b3480156105da57600080fd5b506105e36112a6565b6040516105f09190612084565b60405180910390f35b34801561060557600080fd5b50610620600480360381019061061b9190611818565b6112b1565b005b34801561062e57600080fd5b506106376114a3565b6040516106449190612084565b60405180910390f35b6060600060065460055401600460009054906101000a900473ffffffffffffffffffffffffffffffffffffffff1673ffffffffffffffffffffffffffffffffffffffff1663dd62ed3e8a80600001906106a691906120c8565b60000160208101906106b89190611818565b306040518363ffffffff1660e01b81526004016106d6929190611e6a565b60206040518083038186803b1580156106ee57600080fd5b505afa158015610702573d6000803e3d6000fd5b505050506040513d601f19601f820116820180604052508101906107269190611a71565b1015610767576040517f08c379a000000000000000000000000000000000000000000000000000000000815260040161075e90612029565b60405180910390fd5b600460009054906101000a900473ffffffffffffffffffffffffffffffffffffffff1673ffffffffffffffffffffffffffffffffffffffff166323b872dd8980600001906107b591906120c8565b60000160208101906107c79190611818565b8a80600001906107d791906120c8565b60200160208101906107e99190611818565b6005546040518463ffffffff1660e01b815260040161080a93929190611eca565b602060405180830381600087803b15801561082457600080fd5b505af1158015610838573d6000803e3d6000fd5b505050506040513d601f19601f8201168201806040525081019061085c9190611841565b50600460009054906101000a900473ffffffffffffffffffffffffffffffffffffffff1673ffffffffffffffffffffffffffffffffffffffff166323b872dd8980600001906108ab91906120c8565b60000160208101906108bd9190611818565b306006546040518463ffffffff1660e01b81526004016108df93929190611e93565b602060405180830381600087803b1580156108f957600080fd5b505af115801561090d573d6000803e3d6000fd5b505050506040513d601f19601f820116820180604052508101906109319190611841565b50600260149054906101000a900460ff16156109f5576003600089806000019061095b91906120c8565b602001602081019061096d9190611818565b73ffffffffffffffffffffffffffffffffffffffff1673ffffffffffffffffffffffffffffffffffffffff16815260200190815260200160002060009054906101000a900460ff166109f4576040517f08c379a00000000000000000000000000000000000000000000000000000000081526004016109eb90611fc9565b60405180910390fd5b5b6000604051806020016040528060008152509091509150965096945050505050565b80600460006101000a81548173ffffffffffffffffffffffffffffffffffffffff021916908373ffffffffffffffffffffffffffffffffffffffff16021790555050565b610a636114aa565b73ffffffffffffffffffffffffffffffffffffffff16610a81611063565b73ffffffffffffffffffffffffffffffffffffffff1614610b0a576040517f08c379a00000000000000000000000000000000000000000000000000000000081526004018080602001828103825260208152602001807f4f776e61626c653a2063616c6c6572206973206e6f7420746865206f776e657281525060200191505060405180910390fd5b6001600360008373ffffffffffffffffffffffffffffffffffffffff1673ffffffffffffffffffffffffffffffffffffffff16815260200190815260200160002060006101000a81548160ff0219169083151502179055506001600260146101000a81548160ff02191690831515021790555050565b6000600160009054906101000a900473ffffffffffffffffffffffffffffffffffffffff1673ffffffffffffffffffffffffffffffffffffffff166370a08231306040518263ffffffff1660e01b8152600401610bdd9190611e4f565b60206040518083038186803b158015610bf557600080fd5b505afa158015610c09573d6000803e3d6000fd5b505050506040513d601f19601f82011682018060405250810190610c2d9190611a71565b905090565b610c3a6114aa565b73ffffffffffffffffffffffffffffffffffffffff16610c58611063565b73ffffffffffffffffffffffffffffffffffffffff1614610ce1576040517f08c379a00000000000000000000000000000000000000000000000000000000081526004018080602001828103825260208152602001807f4f776e61626c653a2063616c6c6572206973206e6f7420746865206f776e657281525060200191505060405180910390fd5b600160009054906101000a900473ffffffffffffffffffffffffffffffffffffffff1673ffffffffffffffffffffffffffffffffffffffff1662f714ce83836040518363ffffffff1660e01b8152600401610d3d92919061209f565b600060405180830381600087803b158015610d5757600080fd5b505af1158015610d6b573d6000803e3d6000fd5b505050505050565b600260149054906101000a900460ff1681565b61290481565b610d946114aa565b73ffffffffffffffffffffffffffffffffffffffff16610db2611063565b73ffffffffffffffffffffffffffffffffffffffff1614610e3b576040517f08c379a00000000000000000000000000000000000000000000000000000000081526004018080602001828103825260208152602001807f4f776e61626c653a2063616c6c6572206973206e6f7420746865206f776e657281525060200191505060405180910390fd5b600073ffffffffffffffffffffffffffffffffffffffff1660008054906101000a900473ffffffffffffffffffffffffffffffffffffffff1673ffffffffffffffffffffffffffffffffffffffff167f8be0079c531659141344cd1fd0a4f28419497f9722a3daafe3b4186f6b6457e060405160405180910390a360008060006101000a81548173ffffffffffffffffffffffffffffffffffffffff021916908373ffffffffffffffffffffffffffffffffffffffff160217905550565b6000600160009054906101000a900473ffffffffffffffffffffffffffffffffffffffff16905090565b5050505050565b610f326114aa565b73ffffffffffffffffffffffffffffffffffffffff16610f50611063565b73ffffffffffffffffffffffffffffffffffffffff1614610fd9576040517f08c379a00000000000000000000000000000000000000000000000000000000081526004018080602001828103825260208152602001807f4f776e61626c653a2063616c6c6572206973206e6f7420746865206f776e657281525060200191505060405180910390fd5b80600160006101000a81548173ffffffffffffffffffffffffffffffffffffffff021916908373ffffffffffffffffffffffffffffffffffffffff16021790555050565b600260009054906101000a900473ffffffffffffffffffffffffffffffffffffffff1681565b60036020528060005260406000206000915054906101000a900460ff1681565b60008060009054906101000a900473ffffffffffffffffffffffffffffffffffffffff16905090565b606060405180606001604052806029815260200161232460299139905090565b8080602001906110bc91906120ec565b60a00160208101906110ce9190611818565b73ffffffffffffffffffffffffffffffffffffffff16600260009054906101000a900473ffffffffffffffffffffffffffffffffffffffff1673ffffffffffffffffffffffffffffffffffffffff161461115d576040517f08c379a000000000000000000000000000000000000000000000000000000000815260040161115490612009565b60405180910390fd5b611166816114b2565b50565b6111716116b2565b604051806080016040528061c350620186a0018152602001620186a081526020016201adb08152602001612904815250905090565b61c35081565b6201adb081565b6111bb6114aa565b73ffffffffffffffffffffffffffffffffffffffff166111d9611063565b73ffffffffffffffffffffffffffffffffffffffff1614611262576040517f08c379a00000000000000000000000000000000000000000000000000000000081526004018080602001828103825260208152602001807f4f776e61626c653a2063616c6c6572206973206e6f7420746865206f776e657281525060200191505060405180910390fd5b80600260006101000a81548173ffffffffffffffffffffffffffffffffffffffff021916908373ffffffffffffffffffffffffffffffffffffffff16021790555050565b61c350620186a00181565b6112b96114aa565b73ffffffffffffffffffffffffffffffffffffffff166112d7611063565b73ffffffffffffffffffffffffffffffffffffffff1614611360576040517f08c379a00000000000000000000000000000000000000000000000000000000081526004018080602001828103825260208152602001807f4f776e61626c653a2063616c6c6572206973206e6f7420746865206f776e657281525060200191505060405180910390fd5b600073ffffffffffffffffffffffffffffffffffffffff168173ffffffffffffffffffffffffffffffffffffffff1614156113e6576040517f08c379a000000000000000000000000000000000000000000000000000000000815260040180806020018281038252602681526020018061234d6026913960400191505060405180910390fd5b8073ffffffffffffffffffffffffffffffffffffffff1660008054906101000a900473ffffffffffffffffffffffffffffffffffffffff1673ffffffffffffffffffffffffffffffffffffffff167f8be0079c531659141344cd1fd0a4f28419497f9722a3daafe3b4186f6b6457e060405160405180910390a3806000806101000a81548173ffffffffffffffffffffffffffffffffffffffff021916908373ffffffffffffffffffffffffffffffffffffffff16021790555050565b620186a081565b600033905090565b6000808280600001906114c591906120c8565b60200160208101906114d79190611818565b73ffffffffffffffffffffffffffffffffffffffff1663572b6c0560e01b84806020019061150591906120ec565b60a00160208101906115179190611818565b6040516024016115279190611e34565b604051602081830303815290604052907bffffffffffffffffffffffffffffffffffffffffffffffffffffffff19166020820180517bffffffffffffffffffffffffffffffffffffffffffffffffffffffff83818316178352505050506040516115919190611e1d565b600060405180830381855afa9150503d80600081146115cc576040519150601f19603f3d011682016040523d82523d6000602084013e6115d1565b606091505b509150915081611616576040517f08c379a000000000000000000000000000000000000000000000000000000000815260040161160d90611fa9565b60405180910390fd5b602081511461165a576040517f08c379a000000000000000000000000000000000000000000000000000000000815260040161165190612049565b60405180910390fd5b8080602001905181019061166e9190611841565b6116ad576040517f08c379a00000000000000000000000000000000000000000000000000000000081526004016116a490611f89565b60405180910390fd5b505050565b6040518060800160405280600081526020016000815260200160008152602001600081525090565b6000813590506116e981612282565b92915050565b6000813590506116fe81612299565b92915050565b600081359050611713816122b0565b92915050565b600081519050611728816122b0565b92915050565b60008083601f84011261174057600080fd5b8235905067ffffffffffffffff81111561175957600080fd5b60208301915083600182028301111561177157600080fd5b9250929050565b600081359050611787816122c7565b92915050565b60008135905061179c816122de565b92915050565b6000813590506117b1816122f5565b92915050565b600061010082840312156117ca57600080fd5b81905092915050565b6000604082840312156117e557600080fd5b81905092915050565b6000813590506117fd8161230c565b92915050565b6000815190506118128161230c565b92915050565b60006020828403121561182a57600080fd5b6000611838848285016116da565b91505092915050565b60006020828403121561185357600080fd5b600061186184828501611719565b91505092915050565b60008060008060006080868803121561188257600080fd5b600086013567ffffffffffffffff81111561189c57600080fd5b6118a88882890161172e565b955095505060206118bb88828901611704565b93505060406118cc888289016117ee565b925050606086013567ffffffffffffffff8111156118e957600080fd5b6118f5888289016117b7565b9150509295509295909350565b60006020828403121561191457600080fd5b600061192284828501611778565b91505092915050565b60006020828403121561193d57600080fd5b600061194b8482850161178d565b91505092915050565b60006020828403121561196657600080fd5b6000611974848285016117a2565b91505092915050565b60006020828403121561198f57600080fd5b600082013567ffffffffffffffff8111156119a957600080fd5b6119b5848285016117d3565b91505092915050565b600080600080600080608087890312156119d757600080fd5b600087013567ffffffffffffffff8111156119f157600080fd5b6119fd89828a016117d3565b965050602087013567ffffffffffffffff811115611a1a57600080fd5b611a2689828a0161172e565b9550955050604087013567ffffffffffffffff811115611a4557600080fd5b611a5189828a0161172e565b93509350506060611a6489828a016117ee565b9150509295509295509295565b600060208284031215611a8357600080fd5b6000611a9184828501611803565b91505092915050565b60008060408385031215611aad57600080fd5b6000611abb858286016117ee565b9250506020611acc858286016116ef565b9150509250929050565b611adf816121e4565b82525050565b611aee81612166565b82525050565b611afd81612154565b82525050565b611b0c81612178565b82525050565b6000611b1d82612111565b611b278185612127565b9350611b3781856020860161223e565b611b4081612271565b840191505092915050565b6000611b5682612111565b611b608185612138565b9350611b7081856020860161223e565b80840191505092915050565b611b85816121f6565b82525050565b6000611b968261211c565b611ba08185612143565b9350611bb081856020860161223e565b611bb981612271565b840191505092915050565b6000611bd1601f83612143565b91507f696e76616c696420666f7277617264657220666f7220726563697069656e74006000830152602082019050919050565b6000611c11601c83612143565b91507f697354727573746564466f727761726465723a207265766572746564000000006000830152602082019050919050565b6000611c51601c83612143565b91507f4641494c205441524745542057484954454c49535420435553544f4d000000006000830152602082019050919050565b6000611c91601983612143565b91507f72656c6179206875622061646472657373206e6f7420736574000000000000006000830152602082019050919050565b6000611cd1601883612143565b91507f466f72776172646572206973206e6f74207472757374656400000000000000006000830152602082019050919050565b6000611d11602c83612143565b91507f5041594d415354455220444f4553204e4f54204841564520574954484452415760008301527f4c205045524d495353494f4e00000000000000000000000000000000000000006020830152604082019050919050565b6000611d77602083612143565b91507f697354727573746564466f727761726465723a2062616420726573706f6e73656000830152602082019050919050565b608082016000820151611dc06000850182611dff565b506020820151611dd36020850182611dff565b506040820151611de66040850182611dff565b506060820151611df96060850182611dff565b50505050565b611e08816121da565b82525050565b611e17816121da565b82525050565b6000611e298284611b4b565b915081905092915050565b6000602082019050611e496000830184611af4565b92915050565b6000602082019050611e646000830184611ad6565b92915050565b6000604082019050611e7f6000830185611af4565b611e8c6020830184611ad6565b9392505050565b6000606082019050611ea86000830186611af4565b611eb56020830185611ad6565b611ec26040830184611e0e565b949350505050565b6000606082019050611edf6000830186611af4565b611eec6020830185611af4565b611ef96040830184611e0e565b949350505050565b6000602082019050611f166000830184611b03565b92915050565b60006040820190508181036000830152611f368185611b12565b9050611f456020830184611b03565b9392505050565b6000602082019050611f616000830184611b7c565b92915050565b60006020820190508181036000830152611f818184611b8b565b905092915050565b60006020820190508181036000830152611fa281611bc4565b9050919050565b60006020820190508181036000830152611fc281611c04565b9050919050565b60006020820190508181036000830152611fe281611c44565b9050919050565b6000602082019050818103600083015261200281611c84565b9050919050565b6000602082019050818103600083015261202281611cc4565b9050919050565b6000602082019050818103600083015261204281611d04565b9050919050565b6000602082019050818103600083015261206281611d6a565b9050919050565b600060808201905061207e6000830184611daa565b92915050565b60006020820190506120996000830184611e0e565b92915050565b60006040820190506120b46000830185611e0e565b6120c16020830184611ae5565b9392505050565b60008235600160e0038336030381126120e057600080fd5b80830191505092915050565b6000823560016101000383360303811261210557600080fd5b80830191505092915050565b600081519050919050565b600081519050919050565b600082825260208201905092915050565b600081905092915050565b600082825260208201905092915050565b600061215f826121ba565b9050919050565b6000612171826121ba565b9050919050565b60008115159050919050565b600061218f82612154565b9050919050565b60006121a182612154565b9050919050565b60006121b382612154565b9050919050565b600073ffffffffffffffffffffffffffffffffffffffff82169050919050565b6000819050919050565b60006121ef8261221a565b9050919050565b600061220182612208565b9050919050565b6000612213826121ba565b9050919050565b60006122258261222c565b9050919050565b6000612237826121ba565b9050919050565b60005b8381101561225c578082015181840152602081019050612241565b8381111561226b576000848401525b50505050565b6000601f19601f8301169050919050565b61228b81612154565b811461229657600080fd5b50565b6122a281612166565b81146122ad57600080fd5b50565b6122b981612178565b81146122c457600080fd5b50565b6122d081612184565b81146122db57600080fd5b50565b6122e781612196565b81146122f257600080fd5b50565b6122fe816121a8565b811461230957600080fd5b50565b612315816121da565b811461232057600080fd5b5056fe322e322e302b6f70656e67736e2e61636365707465766572797468696e672e697061796d61737465724f776e61626c653a206e6577206f776e657220697320746865207a65726f2061646472657373a2646970667358221220eb64ce78df6ec2ddb0c4fb05ab562a145a5c11045fdc4b234d8a5ad6e9ded25764736f6c63430007060033",
  "immutableReferences": {},
  "source": "/**\r\n * SPDX-License-Identifier:MIT\r\n */\r\npragma solidity ^0.7.6;\r\npragma experimental ABIEncoderV2;\r\n\r\nimport \"@opengsn/paymasters/contracts/AcceptEverythingPaymaster.sol\";\r\nimport \"./TokenBank.sol\";\r\n\r\ncontract TokenFeePaymaster is AcceptEverythingPaymaster {\r\n\r\n    \r\n\r\n\r\n    bool public useTargetWhitelist;\r\n    mapping (address=>bool) public targetWhitelist;\r\n\r\n    Token private token;\r\n\r\n    uint private AMOUNT = 1;\r\n    uint private FEES = 1;\r\n\r\n\r\n    function setToken(Token _token) public {\r\n        token = _token;\r\n    }\r\n\r\n    function whitelistTarget(address target) public onlyOwner {\r\n        targetWhitelist[target]=true;\r\n        useTargetWhitelist = true;\r\n    }\r\n\r\n    function preRelayedCall(\r\n        GsnTypes.RelayRequest calldata relayRequest,\r\n        bytes calldata signature,\r\n        bytes calldata approvalData,\r\n        uint256 maxPossibleGas\r\n    )\r\n    external\r\n    override\r\n    virtual\r\n    returns (bytes memory context, bool revertOnRecipientRevert) {\r\n        (relayRequest, signature, approvalData, maxPossibleGas);\r\n\r\n        require(token.allowance(relayRequest.request.from,address(this)) >= AMOUNT + FEES,\"PAYMASTER DOES NOT HAVE WITHDRAWL PERMISSION\");\r\n        token.transferFrom(relayRequest.request.from,relayRequest.request.to,AMOUNT);\r\n        token.transferFrom(relayRequest.request.from,address(this),FEES);\r\n\r\n        if (useTargetWhitelist) {\r\n            require( targetWhitelist[relayRequest.request.to], \"FAIL TARGET WHITELIST CUSTOM\");\r\n        }\r\n        return (\"\", false);\r\n    }\r\n\r\n\r\n\r\n}\r\n",
  "sourcePath": "C:\\Users\\nomif\\Desktop\\Programming\\Blockchain\\ethereum-gasless-transactions\\OpenGSN\\contracts\\TokenFeePaymaster.sol",
  "compiler": {
    "name": "solc",
    "version": "0.7.6+commit.7338295f.Emscripten.clang"
  },
  "schemaVersion": "3.4.3",
  "updatedAt": "2021-11-18T14:19:51.905Z",
  "networkType": "ethereum",
  "devdoc": {
    "kind": "dev",
    "methods": {
      "owner()": {
        "details": "Returns the address of the current owner."
      },
      "postRelayedCall(bytes,bool,uint256,(uint256,uint256,uint256,address,address,address,bytes,uint256))": {
        "params": {
          "context": "- the call context, as returned by the preRelayedCall",
          "gasUseWithoutPost": "- the actual amount of gas used by the entire transaction, EXCEPT        the gas used by the postRelayedCall itself.",
          "relayData": "- the relay params of the request. can be used by relayHub.calculateCharge() Revert in this functions causes a revert of the client's relayed call (and preRelayedCall(), but the Paymaster is still committed to pay the relay for the entire transaction.",
          "success": "- true if the relayed call succeeded, false if it reverted"
        }
      },
      "preRelayedCall(((address,address,uint256,uint256,uint256,bytes,uint256),(uint256,uint256,uint256,address,address,address,bytes,uint256)),bytes,bytes,uint256)": {
        "params": {
          "approvalData": "- extra dapp-specific data (e.g. signature from trusted party)",
          "maxPossibleGas": "- based on values returned from {@link getGasAndDataLimits},         the RelayHub will calculate the maximum possible amount of gas the user may be charged for.         In order to convert this value to wei, the Paymaster has to call \"relayHub.calculateCharge()\"  return:      a context to be passed to postRelayedCall      rejectOnRecipientRevert - TRUE if paymaster want to reject the TX if the recipient reverts.          FALSE means that rejects by the recipient will be completed on chain, and paid by the paymaster.          (note that in the latter case, the preRelayedCall and postRelayedCall are not reverted).",
          "relayRequest": "- the full relay request structure",
          "signature": "- user's EIP712-compatible signature of the {@link relayRequest}.              Note that in most cases the paymaster shouldn't try use it at all. It is always checked              by the forwarder immediately after preRelayedCall returns."
        }
      },
      "renounceOwnership()": {
        "details": "Leaves the contract without owner. It will not be possible to call `onlyOwner` functions anymore. Can only be called by the current owner. NOTE: Renouncing ownership will leave the contract without an owner, thereby removing any functionality that is only available to the owner."
      },
      "transferOwnership(address)": {
        "details": "Transfers ownership of the contract to a new account (`newOwner`). Can only be called by the current owner."
      }
    },
    "version": 1
  },
  "userdoc": {
    "kind": "user",
    "methods": {
      "getGasAndDataLimits()": {
        "notice": "Return the Gas Limits and msg.data max size constants used by the Paymaster."
      },
      "getHubAddr()": {
        "notice": "return the relayHub of this contract."
      },
      "getRelayHubDeposit()": {
        "notice": "check current deposit on relay hub."
      },
      "postRelayedCall(bytes,bool,uint256,(uint256,uint256,uint256,address,address,address,bytes,uint256))": {
        "notice": "This method is called after the actual relayed function call. It may be used to record the transaction (e.g. charge the caller by some contract logic) for this call. MUST be protected with relayHubOnly() in case it modifies state."
      },
      "preRelayedCall(((address,address,uint256,uint256,uint256,bytes,uint256),(uint256,uint256,uint256,address,address,address,bytes,uint256)),bytes,bytes,uint256)": {
        "notice": "Called by Relay (and RelayHub), to validate if the paymaster agrees to pay for this call. MUST be protected with relayHubOnly() in case it modifies state. The Paymaster rejects by the following \"revert\" operations  - preRelayedCall() method reverts  - the forwarder reverts because of nonce or signature error  - the paymaster returned \"rejectOnRecipientRevert\", and the recipient contract reverted. In any of the above cases, all paymaster calls (and recipient call) are reverted. In any other case, the paymaster agrees to pay for the gas cost of the transaction (note  that this includes also postRelayedCall revert) The rejectOnRecipientRevert flag means the Paymaster \"delegate\" the rejection to the recipient  code.  It also means the Paymaster trust the recipient to reject fast: both preRelayedCall,  forwarder check and receipient checks must fit into the GasLimits.acceptanceBudget,  otherwise the TX is paid by the Paymaster."
      },
      "withdrawRelayHubDepositTo(uint256,address)": {
        "notice": "withdraw deposit from relayHub"
      }
    },
    "version": 1
  }
}