{
  "contractName": "TokenBank",
  "abi": [
    {
      "inputs": [
        {
          "internalType": "contract Token",
          "name": "_token",
          "type": "address"
        }
      ],
      "stateMutability": "nonpayable",
      "type": "constructor"
    },
    {
      "anonymous": false,
      "inputs": [
        {
          "indexed": false,
          "internalType": "address",
          "name": "buyer",
          "type": "address"
        },
        {
          "indexed": false,
          "internalType": "uint256",
          "name": "amountOfETH",
          "type": "uint256"
        },
        {
          "indexed": false,
          "internalType": "uint256",
          "name": "amountOfTokens",
          "type": "uint256"
        }
      ],
      "name": "BuyTokens",
      "type": "event"
    },
    {
      "inputs": [],
      "name": "buyTokens",
      "outputs": [],
      "stateMutability": "payable",
      "type": "function",
      "payable": true
    },
    {
      "inputs": [
        {
          "internalType": "uint256",
          "name": "tokenAmountToSell",
          "type": "uint256"
        }
      ],
      "name": "sellTokens",
      "outputs": [],
      "stateMutability": "nonpayable",
      "type": "function"
    }
  ],
  "bytecode": "0x6080604052600160005534801561001557600080fd5b5060405161098a38038061098a8339818101604052602081101561003857600080fd5b810190808051906020019092919050505080600160006101000a81548173ffffffffffffffffffffffffffffffffffffffff021916908373ffffffffffffffffffffffffffffffffffffffff160217905550506108f08061009a6000396000f3fe6080604052600436106100295760003560e01c80636c11bcd31461002e578063d0febe4c14610069575b600080fd5b34801561003a57600080fd5b506100676004803603602081101561005157600080fd5b8101908080359060200190929190505050610073565b005b610071610483565b005b600081116100cc576040517f08c379a000000000000000000000000000000000000000000000000000000000815260040180806020018281038252602c81526020018061086d602c913960400191505060405180910390fd5b6000600160009054906101000a900473ffffffffffffffffffffffffffffffffffffffff1673ffffffffffffffffffffffffffffffffffffffff166370a08231336040518263ffffffff1660e01b8152600401808273ffffffffffffffffffffffffffffffffffffffff16815260200191505060206040518083038186803b15801561015757600080fd5b505afa15801561016b573d6000803e3d6000fd5b505050506040513d602081101561018157600080fd5b81019080805190602001909291905050509050818110156101ed576040517f08c379a00000000000000000000000000000000000000000000000000000000081526004018080602001828103825260408152602001806108006040913960400191505060405180910390fd5b6000805483816101f957fe5b04905060004790508181101561025a576040517f08c379a00000000000000000000000000000000000000000000000000000000081526004018080602001828103825260368152602001806107ca6036913960400191505060405180910390fd5b6000600160009054906101000a900473ffffffffffffffffffffffffffffffffffffffff1673ffffffffffffffffffffffffffffffffffffffff166323b872dd3330886040518463ffffffff1660e01b8152600401808473ffffffffffffffffffffffffffffffffffffffff1681526020018373ffffffffffffffffffffffffffffffffffffffff1681526020018281526020019350505050602060405180830381600087803b15801561030d57600080fd5b505af1158015610321573d6000803e3d6000fd5b505050506040513d602081101561033757600080fd5b81019080805190602001909291905050509050806103a0576040517f08c379a000000000000000000000000000000000000000000000000000000000815260040180806020018281038252602d815260200180610840602d913960400191505060405180910390fd5b3373ffffffffffffffffffffffffffffffffffffffff168360405180600001905060006040518083038185875af1925050503d80600081146103fe576040519150601f19603f3d011682016040523d82523d6000602084013e610403565b606091505b5050809150508061047c576040517f08c379a000000000000000000000000000000000000000000000000000000000815260040180806020018281038252601e8152602001807f4661696c656420746f2073656e642045544820746f207468652075736572000081525060200191505060405180910390fd5b5050505050565b600034116104f9576040517f08c379a000000000000000000000000000000000000000000000000000000000815260040180806020018281038252600e8152602001807f496e76616c696420416d6f756e7400000000000000000000000000000000000081525060200191505060405180910390fd5b60008054340290506000600160009054906101000a900473ffffffffffffffffffffffffffffffffffffffff1673ffffffffffffffffffffffffffffffffffffffff166370a08231306040518263ffffffff1660e01b8152600401808273ffffffffffffffffffffffffffffffffffffffff16815260200191505060206040518083038186803b15801561058c57600080fd5b505afa1580156105a0573d6000803e3d6000fd5b505050506040513d60208110156105b657600080fd5b8101908080519060200190929190505050905081811015610622576040517f08c379a00000000000000000000000000000000000000000000000000000000081526004018080602001828103825260228152602001806108996022913960400191505060405180910390fd5b6000600160009054906101000a900473ffffffffffffffffffffffffffffffffffffffff1673ffffffffffffffffffffffffffffffffffffffff1663a9059cbb33856040518363ffffffff1660e01b8152600401808373ffffffffffffffffffffffffffffffffffffffff16815260200182815260200192505050602060405180830381600087803b1580156106b757600080fd5b505af11580156106cb573d6000803e3d6000fd5b505050506040513d60208110156106e157600080fd5b8101908080519060200190929190505050905080610767576040517f08c379a00000000000000000000000000000000000000000000000000000000081526004018080602001828103825260208152602001807f4661696c656420746f207472616e7366657220746f6b656e20746f207573657281525060200191505060405180910390fd5b7f0a37b72bb67eee30e09084cf386f8a17817c57f620c3ab95fb25d6a20356ec77333485604051808473ffffffffffffffffffffffffffffffffffffffff168152602001838152602001828152602001935050505060405180910390a150505056fe56656e646f7220686173206e6f7420656e6f7567682066756e647320746f20616363657074207468652073656c6c2072657175657374596f75722062616c616e6365206973206c6f776572207468616e2074686520616d6f756e74206f6620746f6b656e7320796f752077616e7420746f2073656c6c4661696c656420746f207472616e7366657220746f6b656e732066726f6d207573657220746f2076656e646f725370656369667920616e20616d6f756e74206f6620746f6b656e2067726561746572207468616e207a65726f546f6b656e2042616e6b2048617320496e73756666696369656e7420546f6b656e73a2646970667358221220915e8904b3086e8e52e269563998a8f9f6177914500e050fc47ecb78d5cd1e2564736f6c63430007060033",
  "immutableReferences": {},
  "source": "\r\n\r\npragma solidity ^0.7.6;\r\nimport \"./Token.sol\";\r\nimport \"@openzeppelin/contracts/access/Ownable.sol\";\r\n\r\n\r\ncontract TokenBank {\r\n\r\n    uint tokenEthRate = 1;\r\n    \r\n    event BuyTokens(address buyer, uint256 amountOfETH, uint256 amountOfTokens);\r\n\r\n    Token private token;  \r\n\r\n    constructor(Token _token) public {\r\n        token = _token;\r\n    }\r\n\r\n    function buyTokens() public payable {\r\n        require(msg.value > 0, \"Invalid Amount\");\r\n\r\n        uint amountToBuy = msg.value * tokenEthRate;\r\n\r\n        uint bankTokenBalance = token.balanceOf(address(this));\r\n        require(bankTokenBalance >= amountToBuy,\"Token Bank Has Insufficient Tokens\");\r\n\r\n        bool sent = token.transfer(msg.sender, amountToBuy);\r\n        require(sent, \"Failed to transfer token to user\");\r\n\r\n        emit BuyTokens(msg.sender,msg.value,amountToBuy);\r\n    }\r\n\r\n    function sellTokens(uint256 tokenAmountToSell) public { //does not work yet\r\n    // Check that the requested amount of tokens to sell is more than 0\r\n        require(tokenAmountToSell > 0, \"Specify an amount of token greater than zero\");\r\n\r\n        // Check that the user's token balance is enough to do the swap\r\n        uint256 userBalance = token.balanceOf(msg.sender);\r\n        require(userBalance >= tokenAmountToSell, \"Your balance is lower than the amount of tokens you want to sell\");\r\n\r\n        // Check that the Vendor's balance is enough to do the swap\r\n        uint256 amountOfETHToTransfer = tokenAmountToSell / tokenEthRate;\r\n        uint256 bankEthBalance = address(this).balance;\r\n        require(bankEthBalance >= amountOfETHToTransfer, \"Vendor has not enough funds to accept the sell request\");\r\n\r\n        (bool sent) = token.transferFrom(msg.sender, address(this), tokenAmountToSell);\r\n        require(sent, \"Failed to transfer tokens from user to vendor\");\r\n\r\n\r\n        (sent,) = msg.sender.call{value: amountOfETHToTransfer}(\"\");\r\n        require(sent, \"Failed to send ETH to the user\");\r\n    }\r\n\r\n\r\n    // function approveTokens(address _creditor,uint256 amount) public{\r\n    //     require(token.approve(_creditor,amount),\"Allowance Failed\");\r\n    //     token.increaseAllowance(_creditor,amount); //IDK WHY \r\n    // }\r\n\r\n    // function transferTokens(address _debitor,address _creditor ,uint amount) public {\r\n    //     token.transferFrom(_debitor,_creditor,amount);\r\n    // }\r\n\r\n    // function tokenBalance(address _address) view public returns(uint) {\r\n    //     return token.balanceOf(_address);\r\n    //}\r\n\r\n\r\n\r\n\r\n\r\n\r\n    \r\n\r\n\r\n\r\n\r\n\r\n}",
  "sourcePath": "C:\\Users\\nomif\\Desktop\\Programming\\Blockchain\\ethereum-gasless-transactions\\OpenGSN\\contracts\\TokenBank.sol",
  "compiler": {
    "name": "solc",
    "version": "0.7.6+commit.7338295f.Emscripten.clang"
  },
  "schemaVersion": "3.4.3",
  "updatedAt": "2021-10-27T19:47:54.953Z",
  "networkType": "ethereum",
  "devdoc": {
    "kind": "dev",
    "methods": {},
    "version": 1
  },
  "userdoc": {
    "kind": "user",
    "methods": {},
    "version": 1
  }
}