{
  "contractName": "TokenBank",
  "abi": [
    {
      "inputs": [
        {
          "internalType": "contract Token",
          "name": "_token",
          "type": "address"
        },
        {
          "internalType": "uint256",
          "name": "_supply",
          "type": "uint256"
        }
      ],
      "stateMutability": "nonpayable",
      "type": "constructor"
    },
    {
      "anonymous": false,
      "inputs": [
        {
          "indexed": true,
          "internalType": "address",
          "name": "user",
          "type": "address"
        },
        {
          "indexed": false,
          "internalType": "uint256",
          "name": "balance",
          "type": "uint256"
        }
      ],
      "name": "Deposit",
      "type": "event"
    },
    {
      "anonymous": false,
      "inputs": [
        {
          "indexed": true,
          "internalType": "address",
          "name": "user",
          "type": "address"
        },
        {
          "indexed": false,
          "internalType": "uint256",
          "name": "balance",
          "type": "uint256"
        }
      ],
      "name": "Withdraw",
      "type": "event"
    },
    {
      "inputs": [
        {
          "internalType": "address",
          "name": "",
          "type": "address"
        }
      ],
      "name": "tokenBalance",
      "outputs": [
        {
          "internalType": "uint256",
          "name": "",
          "type": "uint256"
        }
      ],
      "stateMutability": "view",
      "type": "function"
    },
    {
      "inputs": [],
      "name": "depositTokens",
      "outputs": [],
      "stateMutability": "payable",
      "type": "function"
    },
    {
      "inputs": [
        {
          "internalType": "uint256",
          "name": "amount",
          "type": "uint256"
        }
      ],
      "name": "withdrawTokens",
      "outputs": [],
      "stateMutability": "nonpayable",
      "type": "function"
    },
    {
      "inputs": [
        {
          "internalType": "address",
          "name": "_debitor",
          "type": "address"
        }
      ],
      "name": "transferTokens",
      "outputs": [],
      "stateMutability": "nonpayable",
      "type": "function"
    },
    {
      "inputs": [
        {
          "internalType": "address",
          "name": "_address",
          "type": "address"
        }
      ],
      "name": "getBalance",
      "outputs": [
        {
          "internalType": "uint256",
          "name": "",
          "type": "uint256"
        }
      ],
      "stateMutability": "view",
      "type": "function"
    }
  ],
  "bytecode": "0x608060405234801561001057600080fd5b506040516107ec3803806107ec8339818101604052604081101561003357600080fd5b810190808051906020019092919080519060200190929190505050816000806101000a81548173ffffffffffffffffffffffffffffffffffffffff021916908373ffffffffffffffffffffffffffffffffffffffff16021790555060008054906101000a900473ffffffffffffffffffffffffffffffffffffffff1673ffffffffffffffffffffffffffffffffffffffff166340c10f1930670de0b6b3a764000084026040518363ffffffff1660e01b8152600401808373ffffffffffffffffffffffffffffffffffffffff16815260200182815260200192505050600060405180830381600087803b15801561012957600080fd5b505af115801561013d573d6000803e3d6000fd5b50505050670de0b6b3a76400008102600160003073ffffffffffffffffffffffffffffffffffffffff1673ffffffffffffffffffffffffffffffffffffffff16815260200190815260200160002081905550505061064c806101a06000396000f3fe60806040526004361061004a5760003560e01c80630c89a0df1461004f578063315a095d146100a05780637c4b414d146100db578063eedc966a146100e5578063f8b2cb4f1461014a575b600080fd5b34801561005b57600080fd5b5061009e6004803603602081101561007257600080fd5b81019080803573ffffffffffffffffffffffffffffffffffffffff1690602001909291905050506101af565b005b3480156100ac57600080fd5b506100d9600480360360208110156100c357600080fd5b8101908080359060200190929190505050610301565b005b6100e36104d9565b005b3480156100f157600080fd5b506101346004803603602081101561010857600080fd5b81019080803573ffffffffffffffffffffffffffffffffffffffff1690602001909291905050506105b5565b6040518082815260200191505060405180910390f35b34801561015657600080fd5b506101996004803603602081101561016d57600080fd5b81019080803573ffffffffffffffffffffffffffffffffffffffff1690602001909291905050506105cd565b6040518082815260200191505060405180910390f35b60018060008373ffffffffffffffffffffffffffffffffffffffff1673ffffffffffffffffffffffffffffffffffffffff168152602001908152602001600020541015610264576040517f08c379a000000000000000000000000000000000000000000000000000000000815260040180806020018281038252601a8152602001807f494e53554646494349454e5420544f4b454e2042414c414e434500000000000081525060200191505060405180910390fd5b60018060008373ffffffffffffffffffffffffffffffffffffffff1673ffffffffffffffffffffffffffffffffffffffff1681526020019081526020016000206000828254039250508190555060018060003373ffffffffffffffffffffffffffffffffffffffff1673ffffffffffffffffffffffffffffffffffffffff1681526020019081526020016000206000828254019250508190555050565b80600160003373ffffffffffffffffffffffffffffffffffffffff1673ffffffffffffffffffffffffffffffffffffffff16815260200190815260200160002054116103b5576040517f08c379a000000000000000000000000000000000000000000000000000000000815260040180806020018281038252601a8152602001807f494e53554646494349454e5420544f4b454e2042414c414e434500000000000081525060200191505060405180910390fd5b80600160003373ffffffffffffffffffffffffffffffffffffffff1673ffffffffffffffffffffffffffffffffffffffff168152602001908152602001600020600082825403925050819055503373ffffffffffffffffffffffffffffffffffffffff166108fc829081150290604051600060405180830381858888f19350505050158015610448573d6000803e3d6000fd5b503373ffffffffffffffffffffffffffffffffffffffff167f884edad9ce6fa2440d8a54cc123490eb96d2768479d49ff9c7366125a9424364600160003373ffffffffffffffffffffffffffffffffffffffff1673ffffffffffffffffffffffffffffffffffffffff168152602001908152602001600020546040518082815260200191505060405180910390a250565b34600160003373ffffffffffffffffffffffffffffffffffffffff1673ffffffffffffffffffffffffffffffffffffffff168152602001908152602001600020600082825401925050819055503373ffffffffffffffffffffffffffffffffffffffff167fe1fffcc4923d04b559f4d29a8bfc6cda04eb5b0d3c460751c2402c5c5cc9109c600160003373ffffffffffffffffffffffffffffffffffffffff1673ffffffffffffffffffffffffffffffffffffffff168152602001908152602001600020546040518082815260200191505060405180910390a2565b60016020528060005260406000206000915090505481565b6000600160008373ffffffffffffffffffffffffffffffffffffffff1673ffffffffffffffffffffffffffffffffffffffff16815260200190815260200160002054905091905056fea2646970667358221220d036b9c2e13bdd0e0bf0b706dd7bc36a5bc0a4b8ab0b55b4bc3fed274b58915064736f6c63430007060033",
  "immutableReferences": {},
  "source": "pragma solidity ^0.7.6;\r\nimport \"./Token.sol\";\r\n\r\ncontract TokenBank {\r\n\r\n\r\n    event Withdraw(address indexed user, uint balance);\r\n    event Deposit(address indexed user, uint balance);\r\n\r\n    Token private token;\r\n    mapping(address => uint) public tokenBalance;\r\n  \r\n\r\n    constructor(Token _token,uint _supply) public {\r\n        token = _token;\r\n        token.mint(address(this),_supply*(10**18));\r\n        tokenBalance[address(this)] = _supply*(10**18);\r\n    }\r\n\r\n\r\n\r\n    function depositTokens() payable public {\r\n        tokenBalance[msg.sender] += msg.value;\r\n        emit Deposit(msg.sender, tokenBalance[msg.sender]);\r\n    }\r\n\r\n    function withdrawTokens(uint amount) public {\r\n        \r\n        require(tokenBalance[msg.sender] > amount, \"INSUFFICIENT TOKEN BALANCE\");\r\n        tokenBalance[msg.sender] -= amount; // blockchain security changing internal states first\r\n        msg.sender.transfer(amount); \r\n\r\n        emit Withdraw(msg.sender, tokenBalance[msg.sender]);\r\n    }\r\n\r\n    function transferTokens(address _debitor) public {\r\n        require(tokenBalance[_debitor] >= 1, \"INSUFFICIENT TOKEN BALANCE\");\r\n        tokenBalance[_debitor]-=1;\r\n        tokenBalance[msg.sender]+=1;\r\n    }\r\n\r\n\r\n    function getBalance(address _address) public view returns(uint) {\r\n        return tokenBalance[_address];\r\n    }\r\n\r\n\r\n    // function authorizeTokens(address _recepient,uint max_amount) public {\r\n    //     tokenAuthBalances[]\r\n    // }\r\n\r\n    // function withdrawTokensAsRecepient(address _debitor,unit amount){\r\n    //         // only once \r\n    // }\r\n\r\n\r\n    \r\n\r\n\r\n\r\n\r\n\r\n}",
  "sourcePath": "C:\\Users\\nomif\\Desktop\\Programming\\Blockchain\\local_copy\\ethereum-gasless-transactions-CustomPaymaster\\OpenGSN\\contracts\\TokenBank.sol",
  "compiler": {
    "name": "solc",
    "version": "0.7.6+commit.7338295f.Emscripten.clang"
  },
  "schemaVersion": "3.4.3",
  "updatedAt": "2021-10-25T17:52:28.153Z",
  "devdoc": {
    "kind": "dev",
    "methods": {},
    "version": 1
  },
  "userdoc": {
    "kind": "user",
    "methods": {},
    "version": 1
  }
}